{"src/contracts/base/ArtistFundManager.sol":{"ArtistFundManager":{"abi":[{"inputs":[],"stateMutability":"nonpayable","type":"constructor"},{"anonymous":false,"inputs":[{"indexed":true,"internalType":"string","name":"artistId","type":"string"},{"indexed":true,"internalType":"address","name":"wallet","type":"address"}],"name":"ArtistRegistered","type":"event"},{"anonymous":false,"inputs":[{"indexed":true,"internalType":"string","name":"artistId","type":"string"},{"indexed":true,"internalType":"address","name":"wallet","type":"address"},{"indexed":false,"internalType":"uint256","name":"amount","type":"uint256"}],"name":"FundsDistributed","type":"event"},{"anonymous":false,"inputs":[{"indexed":true,"internalType":"string","name":"grantId","type":"string"},{"indexed":true,"internalType":"string","name":"artistId","type":"string"},{"indexed":false,"internalType":"uint256","name":"amount","type":"uint256"}],"name":"GrantAwarded","type":"event"},{"anonymous":false,"inputs":[{"indexed":true,"internalType":"string","name":"grantId","type":"string"},{"indexed":false,"internalType":"string","name":"title","type":"string"},{"indexed":false,"internalType":"uint256","name":"amount","type":"uint256"}],"name":"GrantCreated","type":"event"},{"anonymous":false,"inputs":[{"indexed":true,"internalType":"address","name":"previousOwner","type":"address"},{"indexed":true,"internalType":"address","name":"newOwner","type":"address"}],"name":"OwnershipTransferred","type":"event"},{"inputs":[{"internalType":"string","name":"","type":"string"}],"name":"artists","outputs":[{"internalType":"string","name":"id","type":"string"},{"internalType":"address","name":"wallet","type":"address"},{"internalType":"bool","name":"verified","type":"bool"}],"stateMutability":"view","type":"function"},{"inputs":[{"internalType":"string","name":"grantId","type":"string"},{"internalType":"string","name":"artistId","type":"string"}],"name":"awardGrant","outputs":[],"stateMutability":"nonpayable","type":"function"},{"inputs":[{"internalType":"string","name":"grantId","type":"string"},{"internalType":"string","name":"title","type":"string"},{"internalType":"uint256","name":"amount","type":"uint256"}],"name":"createGrant","outputs":[],"stateMutability":"payable","type":"function"},{"inputs":[{"internalType":"string","name":"artistId","type":"string"}],"name":"distributeFunds","outputs":[],"stateMutability":"nonpayable","type":"function"},{"inputs":[{"internalType":"string","name":"artistId","type":"string"}],"name":"getArtist","outputs":[{"components":[{"internalType":"string","name":"id","type":"string"},{"internalType":"address","name":"wallet","type":"address"},{"internalType":"bool","name":"verified","type":"bool"}],"internalType":"struct ArtistFundManager.Artist","name":"","type":"tuple"}],"stateMutability":"view","type":"function"},{"inputs":[{"internalType":"string","name":"grantId","type":"string"}],"name":"getGrant","outputs":[{"components":[{"internalType":"string","name":"id","type":"string"},{"internalType":"string","name":"title","type":"string"},{"internalType":"uint256","name":"amount","type":"uint256"},{"internalType":"address","name":"funder","type":"address"},{"internalType":"bool","name":"active","type":"bool"}],"internalType":"struct ArtistFundManager.Grant","name":"","type":"tuple"}],"stateMutability":"view","type":"function"},{"inputs":[{"internalType":"string","name":"artistId","type":"string"}],"name":"getPendingFunds","outputs":[{"internalType":"uint256","name":"","type":"uint256"}],"stateMutability":"view","type":"function"},{"inputs":[{"internalType":"string","name":"","type":"string"},{"internalType":"string","name":"","type":"string"}],"name":"grantApplications","outputs":[{"internalType":"bool","name":"","type":"bool"}],"stateMutability":"view","type":"function"},{"inputs":[{"internalType":"string","name":"","type":"string"}],"name":"grants","outputs":[{"internalType":"string","name":"id","type":"string"},{"internalType":"string","name":"title","type":"string"},{"internalType":"uint256","name":"amount","type":"uint256"},{"internalType":"address","name":"funder","type":"address"},{"internalType":"bool","name":"active","type":"bool"}],"stateMutability":"view","type":"function"},{"inputs":[],"name":"owner","outputs":[{"internalType":"address","name":"","type":"address"}],"stateMutability":"view","type":"function"},{"inputs":[{"internalType":"string","name":"","type":"string"}],"name":"pendingFunds","outputs":[{"internalType":"uint256","name":"","type":"uint256"}],"stateMutability":"view","type":"function"},{"inputs":[{"internalType":"string","name":"artistId","type":"string"},{"internalType":"address","name":"wallet","type":"address"}],"name":"registerArtist","outputs":[],"stateMutability":"nonpayable","type":"function"},{"inputs":[],"name":"renounceOwnership","outputs":[],"stateMutability":"nonpayable","type":"function"},{"inputs":[{"internalType":"address","name":"newOwner","type":"address"}],"name":"transferOwnership","outputs":[],"stateMutability":"nonpayable","type":"function"},{"stateMutability":"payable","type":"receive"}],"evm":{"bytecode":{"linkReferences":{},"object":"608060405234801561001057600080fd5b5061001a33610023565b60018055610073565b600080546001600160a01b038381166001600160a01b0319831681178455604051919092169283917f8be0079c531659141344cd1fd0a4f28419497f9722a3daafe3b4186f6b6457e09190a35050565b6117f5806100826000396000f3fe6080604052600436106100e15760003560e01c80638da5cb5b1161007f578063b2b37d3c11610059578063b2b37d3c146102c5578063c8f79e7a146102e5578063dac343b2146102f8578063f2fde38b1461033057600080fd5b80638da5cb5b14610242578063a0f320c51461026a578063a2498ab31461029857600080fd5b80634b531c05116100bb5780634b531c05146101b15780635755b9bc146101de5780636b9b94ac146101fe578063715018a61461022d57600080fd5b806314df98b3146100ed57806333aec12a1461010f57806335a9cfdb1461014957600080fd5b366100e857005b600080fd5b3480156100f957600080fd5b5061010d6101083660046112ef565b610350565b005b34801561011b57600080fd5b5061012f61012a366004611353565b6105c6565b6040516101409594939291906113e0565b60405180910390f35b34801561015557600080fd5b506101a16101643660046112ef565b8151602081840181018051600482529282019482019490942091909352815180830184018051928152908401929093019190912091525460ff1681565b6040519015158152602001610140565b3480156101bd57600080fd5b506101d16101cc366004611353565b61071e565b604051610140919061142e565b3480156101ea57600080fd5b5061010d6101f93660046114b8565b6108de565b34801561020a57600080fd5b5061021e610219366004611353565b610abf565b60405161014093929190611506565b34801561023957600080fd5b5061010d610b84565b34801561024e57600080fd5b506000546040516001600160a01b039091168152602001610140565b34801561027657600080fd5b5061028a610285366004611353565b610b98565b604051908152602001610140565b3480156102a457600080fd5b506102b86102b3366004611353565b610bc0565b6040516101409190611539565b3480156102d157600080fd5b5061010d6102e0366004611353565b610cc2565b61010d6102f3366004611582565b610ed4565b34801561030457600080fd5b5061028a610313366004611353565b805160208183018101805160058252928201919093012091525481565b34801561033c57600080fd5b5061010d61034b3660046115ef565b6110d3565b610358611149565b6003826040516103689190611611565b9081526040519081900360200190206003015460ff600160a01b909104166103ca5760405162461bcd60e51b815260206004820152601060248201526f4772616e74206e6f742061637469766560801b60448201526064015b60405180910390fd5b6002816040516103da9190611611565b9081526040519081900360200190206001015460ff600160a01b9091041661043a5760405162461bcd60e51b8152602060048201526013602482015272105c9d1a5cdd081b9bdd081d995c9a599a5959606a1b60448201526064016103c1565b60048260405161044a9190611611565b9081526020016040518091039020816040516104669190611611565b9081526040519081900360200190205460ff16156104b85760405162461bcd60e51b815260206004820152600f60248201526e105b1c9958591e48185dd85c991959608a1b60448201526064016103c1565b60006003836040516104ca9190611611565b9081526020016040518091039020905060016004846040516104ec9190611611565b9081526020016040518091039020836040516105089190611611565b908152604051908190036020018120805492151560ff199093169290921790915560028201549060059061053d908590611611565b9081526020016040518091039020600082825461055a919061162d565b909155505060405161056d908390611611565b6040518091039020836040516105839190611611565b60405190819003812060028401548252907f68a9a147328b8386f7335122943cb30c598015c517b72dc5d1c04604a062c10d9060200160405180910390a3505050565b80516020818301810180516003825292820191909301209152805481906105ec90611654565b80601f016020809104026020016040519081016040528092919081815260200182805461061890611654565b80156106655780601f1061063a57610100808354040283529160200191610665565b820191906000526020600020905b81548152906001019060200180831161064857829003601f168201915b50505050509080600101805461067a90611654565b80601f01602080910402602001604051908101604052809291908181526020018280546106a690611654565b80156106f35780601f106106c8576101008083540402835291602001916106f3565b820191906000526020600020905b8154815290600101906020018083116106d657829003601f168201915b5050505060028301546003909301549192916001600160a01b0381169150600160a01b900460ff1685565b61075b6040518060a0016040528060608152602001606081526020016000815260200160006001600160a01b031681526020016000151581525090565b60038260405161076b9190611611565b90815260200160405180910390206040518060a001604052908160008201805461079490611654565b80601f01602080910402602001604051908101604052809291908181526020018280546107c090611654565b801561080d5780601f106107e25761010080835404028352916020019161080d565b820191906000526020600020905b8154815290600101906020018083116107f057829003601f168201915b5050505050815260200160018201805461082690611654565b80601f016020809104026020016040519081016040528092919081815260200182805461085290611654565b801561089f5780601f106108745761010080835404028352916020019161089f565b820191906000526020600020905b81548152906001019060200180831161088257829003601f168201915b5050509183525050600282015460208201526003909101546001600160a01b0381166040830152600160a01b900460ff16151560609091015292915050565b6108e6611149565b6001600160a01b0381166109355760405162461bcd60e51b8152602060048201526016602482015275496e76616c69642077616c6c6574206164647265737360501b60448201526064016103c1565b600082511161097a5760405162461bcd60e51b8152602060048201526011602482015270125b9d985b1a5908185c9d1a5cdd081251607a1b60448201526064016103c1565b60028260405161098a9190611611565b9081526040519081900360200190206001015460ff600160a01b90910416156109f55760405162461bcd60e51b815260206004820152601960248201527f41727469737420616c726561647920726567697374657265640000000000000060448201526064016103c1565b604080516060810182528381526001600160a01b03831660208201526001818301529051600290610a27908590611611565b90815260405190819003602001902081518190610a4490826116dd565b506020820151600190910180546040938401511515600160a01b026001600160a81b03199091166001600160a01b0393841617179055905190821690610a8b908490611611565b604051908190038120907f3d29da7fef11a3d9e7980c76d39c19e6bd3c33cf9f32c9569f856267bbdeedfd90600090a35050565b8051602081830181018051600282529282019190930120915280548190610ae590611654565b80601f0160208091040260200160405190810160405280929190818152602001828054610b1190611654565b8015610b5e5780601f10610b3357610100808354040283529160200191610b5e565b820191906000526020600020905b815481529060010190602001808311610b4157829003601f168201915b505050600190930154919250506001600160a01b0381169060ff600160a01b9091041683565b610b8c611149565b610b9660006111a3565b565b6000600582604051610baa9190611611565b9081526020016040518091039020549050919050565b60408051606080820183528152600060208201819052818301529051600290610bea908490611611565b9081526020016040518091039020604051806060016040529081600082018054610c1390611654565b80601f0160208091040260200160405190810160405280929190818152602001828054610c3f90611654565b8015610c8c5780601f10610c6157610100808354040283529160200191610c8c565b820191906000526020600020905b815481529060010190602001808311610c6f57829003601f168201915b5050509183525050600191909101546001600160a01b0381166020830152600160a01b900460ff16151560409091015292915050565b610cca6111f3565b6000600282604051610cdc9190611611565b908152604051908190036020019020600181015490915060ff600160a01b90910416610d405760405162461bcd60e51b8152602060048201526013602482015272105c9d1a5cdd081b9bdd081d995c9a599a5959606a1b60448201526064016103c1565b6000600583604051610d529190611611565b908152602001604051809103902054905060008111610dac5760405162461bcd60e51b81526020600482015260166024820152754e6f2066756e647320746f206469737472696275746560501b60448201526064016103c1565b6000600584604051610dbe9190611611565b9081526040519081900360200181209190915560018301546000916001600160a01b0390911690839060006040518083038185875af1925050503d8060008114610e24576040519150601f19603f3d011682016040523d82523d6000602084013e610e29565b606091505b5050905080610e6c5760405162461bcd60e51b815260206004820152600f60248201526e151c985b9cd9995c8819985a5b1959608a1b60448201526064016103c1565b60018301546040516001600160a01b0390911690610e8b908690611611565b604051908190038120848252907f054d53368c7f57909410721809acf5632411d3c372442c62b3f30ebfe5405c659060200160405180910390a3505050610ed160018055565b50565b803414610f1b5760405162461bcd60e51b8152602060048201526015602482015274125b98dbdc9c9958dd08199d5b9908185b5bdd5b9d605a1b60448201526064016103c1565b6000835111610f5f5760405162461bcd60e51b815260206004820152601060248201526f125b9d985b1a590819dc985b9d08125160821b60448201526064016103c1565b600383604051610f6f9190611611565b9081526040519081900360200190206003015460ff600160a01b9091041615610fd15760405162461bcd60e51b81526020600482015260146024820152734772616e7420616c72656164792065786973747360601b60448201526064016103c1565b6040805160a08101825284815260208101849052808201839052336060820152600160808201529051600390611008908690611611565b9081526040519081900360200190208151819061102590826116dd565b506020820151600182019061103a90826116dd565b5060408281015160028301556060830151600390920180546080909401511515600160a01b026001600160a81b03199094166001600160a01b03909316929092179290921790555161108d908490611611565b60405180910390207f70a5093558db26a78bec3bdd867fd0e08a00f34272282654c4a483e02f494fa283836040516110c692919061179d565b60405180910390a2505050565b6110db611149565b6001600160a01b0381166111405760405162461bcd60e51b815260206004820152602660248201527f4f776e61626c653a206e6577206f776e657220697320746865207a65726f206160448201526564647265737360d01b60648201526084016103c1565b610ed1816111a3565b6000546001600160a01b03163314610b965760405162461bcd60e51b815260206004820181905260248201527f4f776e61626c653a2063616c6c6572206973206e6f7420746865206f776e657260448201526064016103c1565b600080546001600160a01b038381166001600160a01b0319831681178455604051919092169283917f8be0079c531659141344cd1fd0a4f28419497f9722a3daafe3b4186f6b6457e09190a35050565b6002600154036112455760405162461bcd60e51b815260206004820152601f60248201527f5265656e7472616e637947756172643a207265656e7472616e742063616c6c0060448201526064016103c1565b6002600155565b634e487b7160e01b600052604160045260246000fd5b600082601f83011261127357600080fd5b813567ffffffffffffffff8082111561128e5761128e61124c565b604051601f8301601f19908116603f011681019082821181831017156112b6576112b661124c565b816040528381528660208588010111156112cf57600080fd5b836020870160208301376000602085830101528094505050505092915050565b6000806040838503121561130257600080fd5b823567ffffffffffffffff8082111561131a57600080fd5b61132686838701611262565b9350602085013591508082111561133c57600080fd5b5061134985828601611262565b9150509250929050565b60006020828403121561136557600080fd5b813567ffffffffffffffff81111561137c57600080fd5b61138884828501611262565b949350505050565b60005b838110156113ab578181015183820152602001611393565b50506000910152565b600081518084526113cc816020860160208601611390565b601f01601f19169290920160200192915050565b60a0815260006113f360a08301886113b4565b828103602084015261140581886113b4565b604084019690965250506001600160a01b03929092166060830152151560809091015292915050565b602081526000825160a0602084015261144a60c08401826113b4565b90506020840151601f1984830301604085015261146782826113b4565b9150506040840151606084015260018060a01b0360608501511660808401526080840151151560a08401528091505092915050565b80356001600160a01b03811681146114b357600080fd5b919050565b600080604083850312156114cb57600080fd5b823567ffffffffffffffff8111156114e257600080fd5b6114ee85828601611262565b9250506114fd6020840161149c565b90509250929050565b60608152600061151960608301866113b4565b6001600160a01b0394909416602083015250901515604090910152919050565b60208152600082516060602084015261155560808401826113b4565b60208501516001600160a01b03166040858101919091529094015115156060909301929092525090919050565b60008060006060848603121561159757600080fd5b833567ffffffffffffffff808211156115af57600080fd5b6115bb87838801611262565b945060208601359150808211156115d157600080fd5b506115de86828701611262565b925050604084013590509250925092565b60006020828403121561160157600080fd5b61160a8261149c565b9392505050565b60008251611623818460208701611390565b9190910192915050565b8082018082111561164e57634e487b7160e01b600052601160045260246000fd5b92915050565b600181811c9082168061166857607f821691505b60208210810361168857634e487b7160e01b600052602260045260246000fd5b50919050565b601f8211156116d857600081815260208120601f850160051c810160208610156116b55750805b601f850160051c820191505b818110156116d4578281556001016116c1565b5050505b505050565b815167ffffffffffffffff8111156116f7576116f761124c565b61170b816117058454611654565b8461168e565b602080601f83116001811461174057600084156117285750858301515b600019600386901b1c1916600185901b1785556116d4565b600085815260208120601f198616915b8281101561176f57888601518255948401946001909101908401611750565b508582101561178d5787850151600019600388901b60f8161c191681555b5050505050600190811b01905550565b6040815260006117b060408301856113b4565b9050826020830152939250505056fea2646970667358221220abb5a3e8712979fe27737d91c38734265504755938df291191fbccbf456ed87364736f6c63430008140033","opcodes":"PUSH1 0x80 PUSH1 0x40 MSTORE CALLVALUE DUP1 ISZERO PUSH2 0x10 JUMPI PUSH1 0x0 DUP1 REVERT JUMPDEST POP PUSH2 0x1A CALLER PUSH2 0x23 JUMP JUMPDEST PUSH1 0x1 DUP1 SSTORE PUSH2 0x73 JUMP JUMPDEST PUSH1 0x0 DUP1 SLOAD PUSH1 0x1 PUSH1 0x1 PUSH1 0xA0 SHL SUB DUP4 DUP2 AND PUSH1 0x1 PUSH1 0x1 PUSH1 0xA0 SHL SUB NOT DUP4 AND DUP2 OR DUP5 SSTORE PUSH1 0x40 MLOAD SWAP2 SWAP1 SWAP3 AND SWAP3 DUP4 SWAP2 PUSH32 0x8BE0079C531659141344CD1FD0A4F28419497F9722A3DAAFE3B4186F6B6457E0 SWAP2 SWAP1 LOG3 POP POP JUMP JUMPDEST PUSH2 0x17F5 DUP1 PUSH2 0x82 PUSH1 0x0 CODECOPY PUSH1 0x0 RETURN INVALID PUSH1 0x80 PUSH1 0x40 MSTORE PUSH1 0x4 CALLDATASIZE LT PUSH2 0xE1 JUMPI PUSH1 0x0 CALLDATALOAD PUSH1 0xE0 SHR DUP1 PUSH4 0x8DA5CB5B GT PUSH2 0x7F JUMPI DUP1 PUSH4 0xB2B37D3C GT PUSH2 0x59 JUMPI DUP1 PUSH4 0xB2B37D3C EQ PUSH2 0x2C5 JUMPI DUP1 PUSH4 0xC8F79E7A EQ PUSH2 0x2E5 JUMPI DUP1 PUSH4 0xDAC343B2 EQ PUSH2 0x2F8 JUMPI DUP1 PUSH4 0xF2FDE38B EQ PUSH2 0x330 JUMPI PUSH1 0x0 DUP1 REVERT JUMPDEST DUP1 PUSH4 0x8DA5CB5B EQ PUSH2 0x242 JUMPI DUP1 PUSH4 0xA0F320C5 EQ PUSH2 0x26A JUMPI DUP1 PUSH4 0xA2498AB3 EQ PUSH2 0x298 JUMPI PUSH1 0x0 DUP1 REVERT JUMPDEST DUP1 PUSH4 0x4B531C05 GT PUSH2 0xBB JUMPI DUP1 PUSH4 0x4B531C05 EQ PUSH2 0x1B1 JUMPI DUP1 PUSH4 0x5755B9BC EQ PUSH2 0x1DE JUMPI DUP1 PUSH4 0x6B9B94AC EQ PUSH2 0x1FE JUMPI DUP1 PUSH4 0x715018A6 EQ PUSH2 0x22D JUMPI PUSH1 0x0 DUP1 REVERT JUMPDEST DUP1 PUSH4 0x14DF98B3 EQ PUSH2 0xED JUMPI DUP1 PUSH4 0x33AEC12A EQ PUSH2 0x10F JUMPI DUP1 PUSH4 0x35A9CFDB EQ PUSH2 0x149 JUMPI PUSH1 0x0 DUP1 REVERT JUMPDEST CALLDATASIZE PUSH2 0xE8 JUMPI STOP JUMPDEST PUSH1 0x0 DUP1 REVERT JUMPDEST CALLVALUE DUP1 ISZERO PUSH2 0xF9 JUMPI PUSH1 0x0 DUP1 REVERT JUMPDEST POP PUSH2 0x10D PUSH2 0x108 CALLDATASIZE PUSH1 0x4 PUSH2 0x12EF JUMP JUMPDEST PUSH2 0x350 JUMP JUMPDEST STOP JUMPDEST CALLVALUE DUP1 ISZERO PUSH2 0x11B JUMPI PUSH1 0x0 DUP1 REVERT JUMPDEST POP PUSH2 0x12F PUSH2 0x12A CALLDATASIZE PUSH1 0x4 PUSH2 0x1353 JUMP JUMPDEST PUSH2 0x5C6 JUMP JUMPDEST PUSH1 0x40 MLOAD PUSH2 0x140 SWAP6 SWAP5 SWAP4 SWAP3 SWAP2 SWAP1 PUSH2 0x13E0 JUMP JUMPDEST PUSH1 0x40 MLOAD DUP1 SWAP2 SUB SWAP1 RETURN JUMPDEST CALLVALUE DUP1 ISZERO PUSH2 0x155 JUMPI PUSH1 0x0 DUP1 REVERT JUMPDEST POP PUSH2 0x1A1 PUSH2 0x164 CALLDATASIZE PUSH1 0x4 PUSH2 0x12EF JUMP JUMPDEST DUP2 MLOAD PUSH1 0x20 DUP2 DUP5 ADD DUP2 ADD DUP1 MLOAD PUSH1 0x4 DUP3 MSTORE SWAP3 DUP3 ADD SWAP5 DUP3 ADD SWAP5 SWAP1 SWAP5 KECCAK256 SWAP2 SWAP1 SWAP4 MSTORE DUP2 MLOAD DUP1 DUP4 ADD DUP5 ADD DUP1 MLOAD SWAP3 DUP2 MSTORE SWAP1 DUP5 ADD SWAP3 SWAP1 SWAP4 ADD SWAP2 SWAP1 SWAP2 KECCAK256 SWAP2 MSTORE SLOAD PUSH1 0xFF AND DUP2 JUMP JUMPDEST PUSH1 0x40 MLOAD SWAP1 ISZERO ISZERO DUP2 MSTORE PUSH1 0x20 ADD PUSH2 0x140 JUMP JUMPDEST CALLVALUE DUP1 ISZERO PUSH2 0x1BD JUMPI PUSH1 0x0 DUP1 REVERT JUMPDEST POP PUSH2 0x1D1 PUSH2 0x1CC CALLDATASIZE PUSH1 0x4 PUSH2 0x1353 JUMP JUMPDEST PUSH2 0x71E JUMP JUMPDEST PUSH1 0x40 MLOAD PUSH2 0x140 SWAP2 SWAP1 PUSH2 0x142E JUMP JUMPDEST CALLVALUE DUP1 ISZERO PUSH2 0x1EA JUMPI PUSH1 0x0 DUP1 REVERT JUMPDEST POP PUSH2 0x10D PUSH2 0x1F9 CALLDATASIZE PUSH1 0x4 PUSH2 0x14B8 JUMP JUMPDEST PUSH2 0x8DE JUMP JUMPDEST CALLVALUE DUP1 ISZERO PUSH2 0x20A JUMPI PUSH1 0x0 DUP1 REVERT JUMPDEST POP PUSH2 0x21E PUSH2 0x219 CALLDATASIZE PUSH1 0x4 PUSH2 0x1353 JUMP JUMPDEST PUSH2 0xABF JUMP JUMPDEST PUSH1 0x40 MLOAD PUSH2 0x140 SWAP4 SWAP3 SWAP2 SWAP1 PUSH2 0x1506 JUMP JUMPDEST CALLVALUE DUP1 ISZERO PUSH2 0x239 JUMPI PUSH1 0x0 DUP1 REVERT JUMPDEST POP PUSH2 0x10D PUSH2 0xB84 JUMP JUMPDEST CALLVALUE DUP1 ISZERO PUSH2 0x24E JUMPI PUSH1 0x0 DUP1 REVERT JUMPDEST POP PUSH1 0x0 SLOAD PUSH1 0x40 MLOAD PUSH1 0x1 PUSH1 0x1 PUSH1 0xA0 SHL SUB SWAP1 SWAP2 AND DUP2 MSTORE PUSH1 0x20 ADD PUSH2 0x140 JUMP JUMPDEST CALLVALUE DUP1 ISZERO PUSH2 0x276 JUMPI PUSH1 0x0 DUP1 REVERT JUMPDEST POP PUSH2 0x28A PUSH2 0x285 CALLDATASIZE PUSH1 0x4 PUSH2 0x1353 JUMP JUMPDEST PUSH2 0xB98 JUMP JUMPDEST PUSH1 0x40 MLOAD SWAP1 DUP2 MSTORE PUSH1 0x20 ADD PUSH2 0x140 JUMP JUMPDEST CALLVALUE DUP1 ISZERO PUSH2 0x2A4 JUMPI PUSH1 0x0 DUP1 REVERT JUMPDEST POP PUSH2 0x2B8 PUSH2 0x2B3 CALLDATASIZE PUSH1 0x4 PUSH2 0x1353 JUMP JUMPDEST PUSH2 0xBC0 JUMP JUMPDEST PUSH1 0x40 MLOAD PUSH2 0x140 SWAP2 SWAP1 PUSH2 0x1539 JUMP JUMPDEST CALLVALUE DUP1 ISZERO PUSH2 0x2D1 JUMPI PUSH1 0x0 DUP1 REVERT JUMPDEST POP PUSH2 0x10D PUSH2 0x2E0 CALLDATASIZE PUSH1 0x4 PUSH2 0x1353 JUMP JUMPDEST PUSH2 0xCC2 JUMP JUMPDEST PUSH2 0x10D PUSH2 0x2F3 CALLDATASIZE PUSH1 0x4 PUSH2 0x1582 JUMP JUMPDEST PUSH2 0xED4 JUMP JUMPDEST CALLVALUE DUP1 ISZERO PUSH2 0x304 JUMPI PUSH1 0x0 DUP1 REVERT JUMPDEST POP PUSH2 0x28A PUSH2 0x313 CALLDATASIZE PUSH1 0x4 PUSH2 0x1353 JUMP JUMPDEST DUP1 MLOAD PUSH1 0x20 DUP2 DUP4 ADD DUP2 ADD DUP1 MLOAD PUSH1 0x5 DUP3 MSTORE SWAP3 DUP3 ADD SWAP2 SWAP1 SWAP4 ADD KECCAK256 SWAP2 MSTORE SLOAD DUP2 JUMP JUMPDEST CALLVALUE DUP1 ISZERO PUSH2 0x33C JUMPI PUSH1 0x0 DUP1 REVERT JUMPDEST POP PUSH2 0x10D PUSH2 0x34B CALLDATASIZE PUSH1 0x4 PUSH2 0x15EF JUMP JUMPDEST PUSH2 0x10D3 JUMP JUMPDEST PUSH2 0x358 PUSH2 0x1149 JUMP JUMPDEST PUSH1 0x3 DUP3 PUSH1 0x40 MLOAD PUSH2 0x368 SWAP2 SWAP1 PUSH2 0x1611 JUMP JUMPDEST SWAP1 DUP2 MSTORE PUSH1 0x40 MLOAD SWAP1 DUP2 SWAP1 SUB PUSH1 0x20 ADD SWAP1 KECCAK256 PUSH1 0x3 ADD SLOAD PUSH1 0xFF PUSH1 0x1 PUSH1 0xA0 SHL SWAP1 SWAP2 DIV AND PUSH2 0x3CA JUMPI PUSH1 0x40 MLOAD PUSH3 0x461BCD PUSH1 0xE5 SHL DUP2 MSTORE PUSH1 0x20 PUSH1 0x4 DUP3 ADD MSTORE PUSH1 0x10 PUSH1 0x24 DUP3 ADD MSTORE PUSH16 0x4772616E74206E6F7420616374697665 PUSH1 0x80 SHL PUSH1 0x44 DUP3 ADD MSTORE PUSH1 0x64 ADD JUMPDEST PUSH1 0x40 MLOAD DUP1 SWAP2 SUB SWAP1 REVERT JUMPDEST PUSH1 0x2 DUP2 PUSH1 0x40 MLOAD PUSH2 0x3DA SWAP2 SWAP1 PUSH2 0x1611 JUMP JUMPDEST SWAP1 DUP2 MSTORE PUSH1 0x40 MLOAD SWAP1 DUP2 SWAP1 SUB PUSH1 0x20 ADD SWAP1 KECCAK256 PUSH1 0x1 ADD SLOAD PUSH1 0xFF PUSH1 0x1 PUSH1 0xA0 SHL SWAP1 SWAP2 DIV AND PUSH2 0x43A JUMPI PUSH1 0x40 MLOAD PUSH3 0x461BCD PUSH1 0xE5 SHL DUP2 MSTORE PUSH1 0x20 PUSH1 0x4 DUP3 ADD MSTORE PUSH1 0x13 PUSH1 0x24 DUP3 ADD MSTORE PUSH19 0x105C9D1A5CDD081B9BDD081D995C9A599A5959 PUSH1 0x6A SHL PUSH1 0x44 DUP3 ADD MSTORE PUSH1 0x64 ADD PUSH2 0x3C1 JUMP JUMPDEST PUSH1 0x4 DUP3 PUSH1 0x40 MLOAD PUSH2 0x44A SWAP2 SWAP1 PUSH2 0x1611 JUMP JUMPDEST SWAP1 DUP2 MSTORE PUSH1 0x20 ADD PUSH1 0x40 MLOAD DUP1 SWAP2 SUB SWAP1 KECCAK256 DUP2 PUSH1 0x40 MLOAD PUSH2 0x466 SWAP2 SWAP1 PUSH2 0x1611 JUMP JUMPDEST SWAP1 DUP2 MSTORE PUSH1 0x40 MLOAD SWAP1 DUP2 SWAP1 SUB PUSH1 0x20 ADD SWAP1 KECCAK256 SLOAD PUSH1 0xFF AND ISZERO PUSH2 0x4B8 JUMPI PUSH1 0x40 MLOAD PUSH3 0x461BCD PUSH1 0xE5 SHL DUP2 MSTORE PUSH1 0x20 PUSH1 0x4 DUP3 ADD MSTORE PUSH1 0xF PUSH1 0x24 DUP3 ADD MSTORE PUSH15 0x105B1C9958591E48185DD85C991959 PUSH1 0x8A SHL PUSH1 0x44 DUP3 ADD MSTORE PUSH1 0x64 ADD PUSH2 0x3C1 JUMP JUMPDEST PUSH1 0x0 PUSH1 0x3 DUP4 PUSH1 0x40 MLOAD PUSH2 0x4CA SWAP2 SWAP1 PUSH2 0x1611 JUMP JUMPDEST SWAP1 DUP2 MSTORE PUSH1 0x20 ADD PUSH1 0x40 MLOAD DUP1 SWAP2 SUB SWAP1 KECCAK256 SWAP1 POP PUSH1 0x1 PUSH1 0x4 DUP5 PUSH1 0x40 MLOAD PUSH2 0x4EC SWAP2 SWAP1 PUSH2 0x1611 JUMP JUMPDEST SWAP1 DUP2 MSTORE PUSH1 0x20 ADD PUSH1 0x40 MLOAD DUP1 SWAP2 SUB SWAP1 KECCAK256 DUP4 PUSH1 0x40 MLOAD PUSH2 0x508 SWAP2 SWAP1 PUSH2 0x1611 JUMP JUMPDEST SWAP1 DUP2 MSTORE PUSH1 0x40 MLOAD SWAP1 DUP2 SWAP1 SUB PUSH1 0x20 ADD DUP2 KECCAK256 DUP1 SLOAD SWAP3 ISZERO ISZERO PUSH1 0xFF NOT SWAP1 SWAP4 AND SWAP3 SWAP1 SWAP3 OR SWAP1 SWAP2 SSTORE PUSH1 0x2 DUP3 ADD SLOAD SWAP1 PUSH1 0x5 SWAP1 PUSH2 0x53D SWAP1 DUP6 SWAP1 PUSH2 0x1611 JUMP JUMPDEST SWAP1 DUP2 MSTORE PUSH1 0x20 ADD PUSH1 0x40 MLOAD DUP1 SWAP2 SUB SWAP1 KECCAK256 PUSH1 0x0 DUP3 DUP3 SLOAD PUSH2 0x55A SWAP2 SWAP1 PUSH2 0x162D JUMP JUMPDEST SWAP1 SWAP2 SSTORE POP POP PUSH1 0x40 MLOAD PUSH2 0x56D SWAP1 DUP4 SWAP1 PUSH2 0x1611 JUMP JUMPDEST PUSH1 0x40 MLOAD DUP1 SWAP2 SUB SWAP1 KECCAK256 DUP4 PUSH1 0x40 MLOAD PUSH2 0x583 SWAP2 SWAP1 PUSH2 0x1611 JUMP JUMPDEST PUSH1 0x40 MLOAD SWAP1 DUP2 SWAP1 SUB DUP2 KECCAK256 PUSH1 0x2 DUP5 ADD SLOAD DUP3 MSTORE SWAP1 PUSH32 0x68A9A147328B8386F7335122943CB30C598015C517B72DC5D1C04604A062C10D SWAP1 PUSH1 0x20 ADD PUSH1 0x40 MLOAD DUP1 SWAP2 SUB SWAP1 LOG3 POP POP POP JUMP JUMPDEST DUP1 MLOAD PUSH1 0x20 DUP2 DUP4 ADD DUP2 ADD DUP1 MLOAD PUSH1 0x3 DUP3 MSTORE SWAP3 DUP3 ADD SWAP2 SWAP1 SWAP4 ADD KECCAK256 SWAP2 MSTORE DUP1 SLOAD DUP2 SWAP1 PUSH2 0x5EC SWAP1 PUSH2 0x1654 JUMP JUMPDEST DUP1 PUSH1 0x1F ADD PUSH1 0x20 DUP1 SWAP2 DIV MUL PUSH1 0x20 ADD PUSH1 0x40 MLOAD SWAP1 DUP2 ADD PUSH1 0x40 MSTORE DUP1 SWAP3 SWAP2 SWAP1 DUP2 DUP2 MSTORE PUSH1 0x20 ADD DUP3 DUP1 SLOAD PUSH2 0x618 SWAP1 PUSH2 0x1654 JUMP JUMPDEST DUP1 ISZERO PUSH2 0x665 JUMPI DUP1 PUSH1 0x1F LT PUSH2 0x63A JUMPI PUSH2 0x100 DUP1 DUP4 SLOAD DIV MUL DUP4 MSTORE SWAP2 PUSH1 0x20 ADD SWAP2 PUSH2 0x665 JUMP JUMPDEST DUP3 ADD SWAP2 SWAP1 PUSH1 0x0 MSTORE PUSH1 0x20 PUSH1 0x0 KECCAK256 SWAP1 JUMPDEST DUP2 SLOAD DUP2 MSTORE SWAP1 PUSH1 0x1 ADD SWAP1 PUSH1 0x20 ADD DUP1 DUP4 GT PUSH2 0x648 JUMPI DUP3 SWAP1 SUB PUSH1 0x1F AND DUP3 ADD SWAP2 JUMPDEST POP POP POP POP POP SWAP1 DUP1 PUSH1 0x1 ADD DUP1 SLOAD PUSH2 0x67A SWAP1 PUSH2 0x1654 JUMP JUMPDEST DUP1 PUSH1 0x1F ADD PUSH1 0x20 DUP1 SWAP2 DIV MUL PUSH1 0x20 ADD PUSH1 0x40 MLOAD SWAP1 DUP2 ADD PUSH1 0x40 MSTORE DUP1 SWAP3 SWAP2 SWAP1 DUP2 DUP2 MSTORE PUSH1 0x20 ADD DUP3 DUP1 SLOAD PUSH2 0x6A6 SWAP1 PUSH2 0x1654 JUMP JUMPDEST DUP1 ISZERO PUSH2 0x6F3 JUMPI DUP1 PUSH1 0x1F LT PUSH2 0x6C8 JUMPI PUSH2 0x100 DUP1 DUP4 SLOAD DIV MUL DUP4 MSTORE SWAP2 PUSH1 0x20 ADD SWAP2 PUSH2 0x6F3 JUMP JUMPDEST DUP3 ADD SWAP2 SWAP1 PUSH1 0x0 MSTORE PUSH1 0x20 PUSH1 0x0 KECCAK256 SWAP1 JUMPDEST DUP2 SLOAD DUP2 MSTORE SWAP1 PUSH1 0x1 ADD SWAP1 PUSH1 0x20 ADD DUP1 DUP4 GT PUSH2 0x6D6 JUMPI DUP3 SWAP1 SUB PUSH1 0x1F AND DUP3 ADD SWAP2 JUMPDEST POP POP POP POP PUSH1 0x2 DUP4 ADD SLOAD PUSH1 0x3 SWAP1 SWAP4 ADD SLOAD SWAP2 SWAP3 SWAP2 PUSH1 0x1 PUSH1 0x1 PUSH1 0xA0 SHL SUB DUP2 AND SWAP2 POP PUSH1 0x1 PUSH1 0xA0 SHL SWAP1 DIV PUSH1 0xFF AND DUP6 JUMP JUMPDEST PUSH2 0x75B PUSH1 0x40 MLOAD DUP1 PUSH1 0xA0 ADD PUSH1 0x40 MSTORE DUP1 PUSH1 0x60 DUP2 MSTORE PUSH1 0x20 ADD PUSH1 0x60 DUP2 MSTORE PUSH1 0x20 ADD PUSH1 0x0 DUP2 MSTORE PUSH1 0x20 ADD PUSH1 0x0 PUSH1 0x1 PUSH1 0x1 PUSH1 0xA0 SHL SUB AND DUP2 MSTORE PUSH1 0x20 ADD PUSH1 0x0 ISZERO ISZERO DUP2 MSTORE POP SWAP1 JUMP JUMPDEST PUSH1 0x3 DUP3 PUSH1 0x40 MLOAD PUSH2 0x76B SWAP2 SWAP1 PUSH2 0x1611 JUMP JUMPDEST SWAP1 DUP2 MSTORE PUSH1 0x20 ADD PUSH1 0x40 MLOAD DUP1 SWAP2 SUB SWAP1 KECCAK256 PUSH1 0x40 MLOAD DUP1 PUSH1 0xA0 ADD PUSH1 0x40 MSTORE SWAP1 DUP2 PUSH1 0x0 DUP3 ADD DUP1 SLOAD PUSH2 0x794 SWAP1 PUSH2 0x1654 JUMP JUMPDEST DUP1 PUSH1 0x1F ADD PUSH1 0x20 DUP1 SWAP2 DIV MUL PUSH1 0x20 ADD PUSH1 0x40 MLOAD SWAP1 DUP2 ADD PUSH1 0x40 MSTORE DUP1 SWAP3 SWAP2 SWAP1 DUP2 DUP2 MSTORE PUSH1 0x20 ADD DUP3 DUP1 SLOAD PUSH2 0x7C0 SWAP1 PUSH2 0x1654 JUMP JUMPDEST DUP1 ISZERO PUSH2 0x80D JUMPI DUP1 PUSH1 0x1F LT PUSH2 0x7E2 JUMPI PUSH2 0x100 DUP1 DUP4 SLOAD DIV MUL DUP4 MSTORE SWAP2 PUSH1 0x20 ADD SWAP2 PUSH2 0x80D JUMP JUMPDEST DUP3 ADD SWAP2 SWAP1 PUSH1 0x0 MSTORE PUSH1 0x20 PUSH1 0x0 KECCAK256 SWAP1 JUMPDEST DUP2 SLOAD DUP2 MSTORE SWAP1 PUSH1 0x1 ADD SWAP1 PUSH1 0x20 ADD DUP1 DUP4 GT PUSH2 0x7F0 JUMPI DUP3 SWAP1 SUB PUSH1 0x1F AND DUP3 ADD SWAP2 JUMPDEST POP POP POP POP POP DUP2 MSTORE PUSH1 0x20 ADD PUSH1 0x1 DUP3 ADD DUP1 SLOAD PUSH2 0x826 SWAP1 PUSH2 0x1654 JUMP JUMPDEST DUP1 PUSH1 0x1F ADD PUSH1 0x20 DUP1 SWAP2 DIV MUL PUSH1 0x20 ADD PUSH1 0x40 MLOAD SWAP1 DUP2 ADD PUSH1 0x40 MSTORE DUP1 SWAP3 SWAP2 SWAP1 DUP2 DUP2 MSTORE PUSH1 0x20 ADD DUP3 DUP1 SLOAD PUSH2 0x852 SWAP1 PUSH2 0x1654 JUMP JUMPDEST DUP1 ISZERO PUSH2 0x89F JUMPI DUP1 PUSH1 0x1F LT PUSH2 0x874 JUMPI PUSH2 0x100 DUP1 DUP4 SLOAD DIV MUL DUP4 MSTORE SWAP2 PUSH1 0x20 ADD SWAP2 PUSH2 0x89F JUMP JUMPDEST DUP3 ADD SWAP2 SWAP1 PUSH1 0x0 MSTORE PUSH1 0x20 PUSH1 0x0 KECCAK256 SWAP1 JUMPDEST DUP2 SLOAD DUP2 MSTORE SWAP1 PUSH1 0x1 ADD SWAP1 PUSH1 0x20 ADD DUP1 DUP4 GT PUSH2 0x882 JUMPI DUP3 SWAP1 SUB PUSH1 0x1F AND DUP3 ADD SWAP2 JUMPDEST POP POP POP SWAP2 DUP4 MSTORE POP POP PUSH1 0x2 DUP3 ADD SLOAD PUSH1 0x20 DUP3 ADD MSTORE PUSH1 0x3 SWAP1 SWAP2 ADD SLOAD PUSH1 0x1 PUSH1 0x1 PUSH1 0xA0 SHL SUB DUP2 AND PUSH1 0x40 DUP4 ADD MSTORE PUSH1 0x1 PUSH1 0xA0 SHL SWAP1 DIV PUSH1 0xFF AND ISZERO ISZERO PUSH1 0x60 SWAP1 SWAP2 ADD MSTORE SWAP3 SWAP2 POP POP JUMP JUMPDEST PUSH2 0x8E6 PUSH2 0x1149 JUMP JUMPDEST PUSH1 0x1 PUSH1 0x1 PUSH1 0xA0 SHL SUB DUP2 AND PUSH2 0x935 JUMPI PUSH1 0x40 MLOAD PUSH3 0x461BCD PUSH1 0xE5 SHL DUP2 MSTORE PUSH1 0x20 PUSH1 0x4 DUP3 ADD MSTORE PUSH1 0x16 PUSH1 0x24 DUP3 ADD MSTORE PUSH22 0x496E76616C69642077616C6C65742061646472657373 PUSH1 0x50 SHL PUSH1 0x44 DUP3 ADD MSTORE PUSH1 0x64 ADD PUSH2 0x3C1 JUMP JUMPDEST PUSH1 0x0 DUP3 MLOAD GT PUSH2 0x97A JUMPI PUSH1 0x40 MLOAD PUSH3 0x461BCD PUSH1 0xE5 SHL DUP2 MSTORE PUSH1 0x20 PUSH1 0x4 DUP3 ADD MSTORE PUSH1 0x11 PUSH1 0x24 DUP3 ADD MSTORE PUSH17 0x125B9D985B1A5908185C9D1A5CDD081251 PUSH1 0x7A SHL PUSH1 0x44 DUP3 ADD MSTORE PUSH1 0x64 ADD PUSH2 0x3C1 JUMP JUMPDEST PUSH1 0x2 DUP3 PUSH1 0x40 MLOAD PUSH2 0x98A SWAP2 SWAP1 PUSH2 0x1611 JUMP JUMPDEST SWAP1 DUP2 MSTORE PUSH1 0x40 MLOAD SWAP1 DUP2 SWAP1 SUB PUSH1 0x20 ADD SWAP1 KECCAK256 PUSH1 0x1 ADD SLOAD PUSH1 0xFF PUSH1 0x1 PUSH1 0xA0 SHL SWAP1 SWAP2 DIV AND ISZERO PUSH2 0x9F5 JUMPI PUSH1 0x40 MLOAD PUSH3 0x461BCD PUSH1 0xE5 SHL DUP2 MSTORE PUSH1 0x20 PUSH1 0x4 DUP3 ADD MSTORE PUSH1 0x19 PUSH1 0x24 DUP3 ADD MSTORE PUSH32 0x41727469737420616C7265616479207265676973746572656400000000000000 PUSH1 0x44 DUP3 ADD MSTORE PUSH1 0x64 ADD PUSH2 0x3C1 JUMP JUMPDEST PUSH1 0x40 DUP1 MLOAD PUSH1 0x60 DUP2 ADD DUP3 MSTORE DUP4 DUP2 MSTORE PUSH1 0x1 PUSH1 0x1 PUSH1 0xA0 SHL SUB DUP4 AND PUSH1 0x20 DUP3 ADD MSTORE PUSH1 0x1 DUP2 DUP4 ADD MSTORE SWAP1 MLOAD PUSH1 0x2 SWAP1 PUSH2 0xA27 SWAP1 DUP6 SWAP1 PUSH2 0x1611 JUMP JUMPDEST SWAP1 DUP2 MSTORE PUSH1 0x40 MLOAD SWAP1 DUP2 SWAP1 SUB PUSH1 0x20 ADD SWAP1 KECCAK256 DUP2 MLOAD DUP2 SWAP1 PUSH2 0xA44 SWAP1 DUP3 PUSH2 0x16DD JUMP JUMPDEST POP PUSH1 0x20 DUP3 ADD MLOAD PUSH1 0x1 SWAP1 SWAP2 ADD DUP1 SLOAD PUSH1 0x40 SWAP4 DUP5 ADD MLOAD ISZERO ISZERO PUSH1 0x1 PUSH1 0xA0 SHL MUL PUSH1 0x1 PUSH1 0x1 PUSH1 0xA8 SHL SUB NOT SWAP1 SWAP2 AND PUSH1 0x1 PUSH1 0x1 PUSH1 0xA0 SHL SUB SWAP4 DUP5 AND OR OR SWAP1 SSTORE SWAP1 MLOAD SWAP1 DUP3 AND SWAP1 PUSH2 0xA8B SWAP1 DUP5 SWAP1 PUSH2 0x1611 JUMP JUMPDEST PUSH1 0x40 MLOAD SWAP1 DUP2 SWAP1 SUB DUP2 KECCAK256 SWAP1 PUSH32 0x3D29DA7FEF11A3D9E7980C76D39C19E6BD3C33CF9F32C9569F856267BBDEEDFD SWAP1 PUSH1 0x0 SWAP1 LOG3 POP POP JUMP JUMPDEST DUP1 MLOAD PUSH1 0x20 DUP2 DUP4 ADD DUP2 ADD DUP1 MLOAD PUSH1 0x2 DUP3 MSTORE SWAP3 DUP3 ADD SWAP2 SWAP1 SWAP4 ADD KECCAK256 SWAP2 MSTORE DUP1 SLOAD DUP2 SWAP1 PUSH2 0xAE5 SWAP1 PUSH2 0x1654 JUMP JUMPDEST DUP1 PUSH1 0x1F ADD PUSH1 0x20 DUP1 SWAP2 DIV MUL PUSH1 0x20 ADD PUSH1 0x40 MLOAD SWAP1 DUP2 ADD PUSH1 0x40 MSTORE DUP1 SWAP3 SWAP2 SWAP1 DUP2 DUP2 MSTORE PUSH1 0x20 ADD DUP3 DUP1 SLOAD PUSH2 0xB11 SWAP1 PUSH2 0x1654 JUMP JUMPDEST DUP1 ISZERO PUSH2 0xB5E JUMPI DUP1 PUSH1 0x1F LT PUSH2 0xB33 JUMPI PUSH2 0x100 DUP1 DUP4 SLOAD DIV MUL DUP4 MSTORE SWAP2 PUSH1 0x20 ADD SWAP2 PUSH2 0xB5E JUMP JUMPDEST DUP3 ADD SWAP2 SWAP1 PUSH1 0x0 MSTORE PUSH1 0x20 PUSH1 0x0 KECCAK256 SWAP1 JUMPDEST DUP2 SLOAD DUP2 MSTORE SWAP1 PUSH1 0x1 ADD SWAP1 PUSH1 0x20 ADD DUP1 DUP4 GT PUSH2 0xB41 JUMPI DUP3 SWAP1 SUB PUSH1 0x1F AND DUP3 ADD SWAP2 JUMPDEST POP POP POP PUSH1 0x1 SWAP1 SWAP4 ADD SLOAD SWAP2 SWAP3 POP POP PUSH1 0x1 PUSH1 0x1 PUSH1 0xA0 SHL SUB DUP2 AND SWAP1 PUSH1 0xFF PUSH1 0x1 PUSH1 0xA0 SHL SWAP1 SWAP2 DIV AND DUP4 JUMP JUMPDEST PUSH2 0xB8C PUSH2 0x1149 JUMP JUMPDEST PUSH2 0xB96 PUSH1 0x0 PUSH2 0x11A3 JUMP JUMPDEST JUMP JUMPDEST PUSH1 0x0 PUSH1 0x5 DUP3 PUSH1 0x40 MLOAD PUSH2 0xBAA SWAP2 SWAP1 PUSH2 0x1611 JUMP JUMPDEST SWAP1 DUP2 MSTORE PUSH1 0x20 ADD PUSH1 0x40 MLOAD DUP1 SWAP2 SUB SWAP1 KECCAK256 SLOAD SWAP1 POP SWAP2 SWAP1 POP JUMP JUMPDEST PUSH1 0x40 DUP1 MLOAD PUSH1 0x60 DUP1 DUP3 ADD DUP4 MSTORE DUP2 MSTORE PUSH1 0x0 PUSH1 0x20 DUP3 ADD DUP2 SWAP1 MSTORE DUP2 DUP4 ADD MSTORE SWAP1 MLOAD PUSH1 0x2 SWAP1 PUSH2 0xBEA SWAP1 DUP5 SWAP1 PUSH2 0x1611 JUMP JUMPDEST SWAP1 DUP2 MSTORE PUSH1 0x20 ADD PUSH1 0x40 MLOAD DUP1 SWAP2 SUB SWAP1 KECCAK256 PUSH1 0x40 MLOAD DUP1 PUSH1 0x60 ADD PUSH1 0x40 MSTORE SWAP1 DUP2 PUSH1 0x0 DUP3 ADD DUP1 SLOAD PUSH2 0xC13 SWAP1 PUSH2 0x1654 JUMP JUMPDEST DUP1 PUSH1 0x1F ADD PUSH1 0x20 DUP1 SWAP2 DIV MUL PUSH1 0x20 ADD PUSH1 0x40 MLOAD SWAP1 DUP2 ADD PUSH1 0x40 MSTORE DUP1 SWAP3 SWAP2 SWAP1 DUP2 DUP2 MSTORE PUSH1 0x20 ADD DUP3 DUP1 SLOAD PUSH2 0xC3F SWAP1 PUSH2 0x1654 JUMP JUMPDEST DUP1 ISZERO PUSH2 0xC8C JUMPI DUP1 PUSH1 0x1F LT PUSH2 0xC61 JUMPI PUSH2 0x100 DUP1 DUP4 SLOAD DIV MUL DUP4 MSTORE SWAP2 PUSH1 0x20 ADD SWAP2 PUSH2 0xC8C JUMP JUMPDEST DUP3 ADD SWAP2 SWAP1 PUSH1 0x0 MSTORE PUSH1 0x20 PUSH1 0x0 KECCAK256 SWAP1 JUMPDEST DUP2 SLOAD DUP2 MSTORE SWAP1 PUSH1 0x1 ADD SWAP1 PUSH1 0x20 ADD DUP1 DUP4 GT PUSH2 0xC6F JUMPI DUP3 SWAP1 SUB PUSH1 0x1F AND DUP3 ADD SWAP2 JUMPDEST POP POP POP SWAP2 DUP4 MSTORE POP POP PUSH1 0x1 SWAP2 SWAP1 SWAP2 ADD SLOAD PUSH1 0x1 PUSH1 0x1 PUSH1 0xA0 SHL SUB DUP2 AND PUSH1 0x20 DUP4 ADD MSTORE PUSH1 0x1 PUSH1 0xA0 SHL SWAP1 DIV PUSH1 0xFF AND ISZERO ISZERO PUSH1 0x40 SWAP1 SWAP2 ADD MSTORE SWAP3 SWAP2 POP POP JUMP JUMPDEST PUSH2 0xCCA PUSH2 0x11F3 JUMP JUMPDEST PUSH1 0x0 PUSH1 0x2 DUP3 PUSH1 0x40 MLOAD PUSH2 0xCDC SWAP2 SWAP1 PUSH2 0x1611 JUMP JUMPDEST SWAP1 DUP2 MSTORE PUSH1 0x40 MLOAD SWAP1 DUP2 SWAP1 SUB PUSH1 0x20 ADD SWAP1 KECCAK256 PUSH1 0x1 DUP2 ADD SLOAD SWAP1 SWAP2 POP PUSH1 0xFF PUSH1 0x1 PUSH1 0xA0 SHL SWAP1 SWAP2 DIV AND PUSH2 0xD40 JUMPI PUSH1 0x40 MLOAD PUSH3 0x461BCD PUSH1 0xE5 SHL DUP2 MSTORE PUSH1 0x20 PUSH1 0x4 DUP3 ADD MSTORE PUSH1 0x13 PUSH1 0x24 DUP3 ADD MSTORE PUSH19 0x105C9D1A5CDD081B9BDD081D995C9A599A5959 PUSH1 0x6A SHL PUSH1 0x44 DUP3 ADD MSTORE PUSH1 0x64 ADD PUSH2 0x3C1 JUMP JUMPDEST PUSH1 0x0 PUSH1 0x5 DUP4 PUSH1 0x40 MLOAD PUSH2 0xD52 SWAP2 SWAP1 PUSH2 0x1611 JUMP JUMPDEST SWAP1 DUP2 MSTORE PUSH1 0x20 ADD PUSH1 0x40 MLOAD DUP1 SWAP2 SUB SWAP1 KECCAK256 SLOAD SWAP1 POP PUSH1 0x0 DUP2 GT PUSH2 0xDAC JUMPI PUSH1 0x40 MLOAD PUSH3 0x461BCD PUSH1 0xE5 SHL DUP2 MSTORE PUSH1 0x20 PUSH1 0x4 DUP3 ADD MSTORE PUSH1 0x16 PUSH1 0x24 DUP3 ADD MSTORE PUSH22 0x4E6F2066756E647320746F2064697374726962757465 PUSH1 0x50 SHL PUSH1 0x44 DUP3 ADD MSTORE PUSH1 0x64 ADD PUSH2 0x3C1 JUMP JUMPDEST PUSH1 0x0 PUSH1 0x5 DUP5 PUSH1 0x40 MLOAD PUSH2 0xDBE SWAP2 SWAP1 PUSH2 0x1611 JUMP JUMPDEST SWAP1 DUP2 MSTORE PUSH1 0x40 MLOAD SWAP1 DUP2 SWAP1 SUB PUSH1 0x20 ADD DUP2 KECCAK256 SWAP2 SWAP1 SWAP2 SSTORE PUSH1 0x1 DUP4 ADD SLOAD PUSH1 0x0 SWAP2 PUSH1 0x1 PUSH1 0x1 PUSH1 0xA0 SHL SUB SWAP1 SWAP2 AND SWAP1 DUP4 SWAP1 PUSH1 0x0 PUSH1 0x40 MLOAD DUP1 DUP4 SUB DUP2 DUP6 DUP8 GAS CALL SWAP3 POP POP POP RETURNDATASIZE DUP1 PUSH1 0x0 DUP2 EQ PUSH2 0xE24 JUMPI PUSH1 0x40 MLOAD SWAP2 POP PUSH1 0x1F NOT PUSH1 0x3F RETURNDATASIZE ADD AND DUP3 ADD PUSH1 0x40 MSTORE RETURNDATASIZE DUP3 MSTORE RETURNDATASIZE PUSH1 0x0 PUSH1 0x20 DUP5 ADD RETURNDATACOPY PUSH2 0xE29 JUMP JUMPDEST PUSH1 0x60 SWAP2 POP JUMPDEST POP POP SWAP1 POP DUP1 PUSH2 0xE6C JUMPI PUSH1 0x40 MLOAD PUSH3 0x461BCD PUSH1 0xE5 SHL DUP2 MSTORE PUSH1 0x20 PUSH1 0x4 DUP3 ADD MSTORE PUSH1 0xF PUSH1 0x24 DUP3 ADD MSTORE PUSH15 0x151C985B9CD9995C8819985A5B1959 PUSH1 0x8A SHL PUSH1 0x44 DUP3 ADD MSTORE PUSH1 0x64 ADD PUSH2 0x3C1 JUMP JUMPDEST PUSH1 0x1 DUP4 ADD SLOAD PUSH1 0x40 MLOAD PUSH1 0x1 PUSH1 0x1 PUSH1 0xA0 SHL SUB SWAP1 SWAP2 AND SWAP1 PUSH2 0xE8B SWAP1 DUP7 SWAP1 PUSH2 0x1611 JUMP JUMPDEST PUSH1 0x40 MLOAD SWAP1 DUP2 SWAP1 SUB DUP2 KECCAK256 DUP5 DUP3 MSTORE SWAP1 PUSH32 0x54D53368C7F57909410721809ACF5632411D3C372442C62B3F30EBFE5405C65 SWAP1 PUSH1 0x20 ADD PUSH1 0x40 MLOAD DUP1 SWAP2 SUB SWAP1 LOG3 POP POP POP PUSH2 0xED1 PUSH1 0x1 DUP1 SSTORE JUMP JUMPDEST POP JUMP JUMPDEST DUP1 CALLVALUE EQ PUSH2 0xF1B JUMPI PUSH1 0x40 MLOAD PUSH3 0x461BCD PUSH1 0xE5 SHL DUP2 MSTORE PUSH1 0x20 PUSH1 0x4 DUP3 ADD MSTORE PUSH1 0x15 PUSH1 0x24 DUP3 ADD MSTORE PUSH21 0x125B98DBDC9C9958DD08199D5B9908185B5BDD5B9D PUSH1 0x5A SHL PUSH1 0x44 DUP3 ADD MSTORE PUSH1 0x64 ADD PUSH2 0x3C1 JUMP JUMPDEST PUSH1 0x0 DUP4 MLOAD GT PUSH2 0xF5F JUMPI PUSH1 0x40 MLOAD PUSH3 0x461BCD PUSH1 0xE5 SHL DUP2 MSTORE PUSH1 0x20 PUSH1 0x4 DUP3 ADD MSTORE PUSH1 0x10 PUSH1 0x24 DUP3 ADD MSTORE PUSH16 0x125B9D985B1A590819DC985B9D081251 PUSH1 0x82 SHL PUSH1 0x44 DUP3 ADD MSTORE PUSH1 0x64 ADD PUSH2 0x3C1 JUMP JUMPDEST PUSH1 0x3 DUP4 PUSH1 0x40 MLOAD PUSH2 0xF6F SWAP2 SWAP1 PUSH2 0x1611 JUMP JUMPDEST SWAP1 DUP2 MSTORE PUSH1 0x40 MLOAD SWAP1 DUP2 SWAP1 SUB PUSH1 0x20 ADD SWAP1 KECCAK256 PUSH1 0x3 ADD SLOAD PUSH1 0xFF PUSH1 0x1 PUSH1 0xA0 SHL SWAP1 SWAP2 DIV AND ISZERO PUSH2 0xFD1 JUMPI PUSH1 0x40 MLOAD PUSH3 0x461BCD PUSH1 0xE5 SHL DUP2 MSTORE PUSH1 0x20 PUSH1 0x4 DUP3 ADD MSTORE PUSH1 0x14 PUSH1 0x24 DUP3 ADD MSTORE PUSH20 0x4772616E7420616C726561647920657869737473 PUSH1 0x60 SHL PUSH1 0x44 DUP3 ADD MSTORE PUSH1 0x64 ADD PUSH2 0x3C1 JUMP JUMPDEST PUSH1 0x40 DUP1 MLOAD PUSH1 0xA0 DUP2 ADD DUP3 MSTORE DUP5 DUP2 MSTORE PUSH1 0x20 DUP2 ADD DUP5 SWAP1 MSTORE DUP1 DUP3 ADD DUP4 SWAP1 MSTORE CALLER PUSH1 0x60 DUP3 ADD MSTORE PUSH1 0x1 PUSH1 0x80 DUP3 ADD MSTORE SWAP1 MLOAD PUSH1 0x3 SWAP1 PUSH2 0x1008 SWAP1 DUP7 SWAP1 PUSH2 0x1611 JUMP JUMPDEST SWAP1 DUP2 MSTORE PUSH1 0x40 MLOAD SWAP1 DUP2 SWAP1 SUB PUSH1 0x20 ADD SWAP1 KECCAK256 DUP2 MLOAD DUP2 SWAP1 PUSH2 0x1025 SWAP1 DUP3 PUSH2 0x16DD JUMP JUMPDEST POP PUSH1 0x20 DUP3 ADD MLOAD PUSH1 0x1 DUP3 ADD SWAP1 PUSH2 0x103A SWAP1 DUP3 PUSH2 0x16DD JUMP JUMPDEST POP PUSH1 0x40 DUP3 DUP2 ADD MLOAD PUSH1 0x2 DUP4 ADD SSTORE PUSH1 0x60 DUP4 ADD MLOAD PUSH1 0x3 SWAP1 SWAP3 ADD DUP1 SLOAD PUSH1 0x80 SWAP1 SWAP5 ADD MLOAD ISZERO ISZERO PUSH1 0x1 PUSH1 0xA0 SHL MUL PUSH1 0x1 PUSH1 0x1 PUSH1 0xA8 SHL SUB NOT SWAP1 SWAP5 AND PUSH1 0x1 PUSH1 0x1 PUSH1 0xA0 SHL SUB SWAP1 SWAP4 AND SWAP3 SWAP1 SWAP3 OR SWAP3 SWAP1 SWAP3 OR SWAP1 SSTORE MLOAD PUSH2 0x108D SWAP1 DUP5 SWAP1 PUSH2 0x1611 JUMP JUMPDEST PUSH1 0x40 MLOAD DUP1 SWAP2 SUB SWAP1 KECCAK256 PUSH32 0x70A5093558DB26A78BEC3BDD867FD0E08A00F34272282654C4A483E02F494FA2 DUP4 DUP4 PUSH1 0x40 MLOAD PUSH2 0x10C6 SWAP3 SWAP2 SWAP1 PUSH2 0x179D JUMP JUMPDEST PUSH1 0x40 MLOAD DUP1 SWAP2 SUB SWAP1 LOG2 POP POP POP JUMP JUMPDEST PUSH2 0x10DB PUSH2 0x1149 JUMP JUMPDEST PUSH1 0x1 PUSH1 0x1 PUSH1 0xA0 SHL SUB DUP2 AND PUSH2 0x1140 JUMPI PUSH1 0x40 MLOAD PUSH3 0x461BCD PUSH1 0xE5 SHL DUP2 MSTORE PUSH1 0x20 PUSH1 0x4 DUP3 ADD MSTORE PUSH1 0x26 PUSH1 0x24 DUP3 ADD MSTORE PUSH32 0x4F776E61626C653A206E6577206F776E657220697320746865207A65726F2061 PUSH1 0x44 DUP3 ADD MSTORE PUSH6 0x646472657373 PUSH1 0xD0 SHL PUSH1 0x64 DUP3 ADD MSTORE PUSH1 0x84 ADD PUSH2 0x3C1 JUMP JUMPDEST PUSH2 0xED1 DUP2 PUSH2 0x11A3 JUMP JUMPDEST PUSH1 0x0 SLOAD PUSH1 0x1 PUSH1 0x1 PUSH1 0xA0 SHL SUB AND CALLER EQ PUSH2 0xB96 JUMPI PUSH1 0x40 MLOAD PUSH3 0x461BCD PUSH1 0xE5 SHL DUP2 MSTORE PUSH1 0x20 PUSH1 0x4 DUP3 ADD DUP2 SWAP1 MSTORE PUSH1 0x24 DUP3 ADD MSTORE PUSH32 0x4F776E61626C653A2063616C6C6572206973206E6F7420746865206F776E6572 PUSH1 0x44 DUP3 ADD MSTORE PUSH1 0x64 ADD PUSH2 0x3C1 JUMP JUMPDEST PUSH1 0x0 DUP1 SLOAD PUSH1 0x1 PUSH1 0x1 PUSH1 0xA0 SHL SUB DUP4 DUP2 AND PUSH1 0x1 PUSH1 0x1 PUSH1 0xA0 SHL SUB NOT DUP4 AND DUP2 OR DUP5 SSTORE PUSH1 0x40 MLOAD SWAP2 SWAP1 SWAP3 AND SWAP3 DUP4 SWAP2 PUSH32 0x8BE0079C531659141344CD1FD0A4F28419497F9722A3DAAFE3B4186F6B6457E0 SWAP2 SWAP1 LOG3 POP POP JUMP JUMPDEST PUSH1 0x2 PUSH1 0x1 SLOAD SUB PUSH2 0x1245 JUMPI PUSH1 0x40 MLOAD PUSH3 0x461BCD PUSH1 0xE5 SHL DUP2 MSTORE PUSH1 0x20 PUSH1 0x4 DUP3 ADD MSTORE PUSH1 0x1F PUSH1 0x24 DUP3 ADD MSTORE PUSH32 0x5265656E7472616E637947756172643A207265656E7472616E742063616C6C00 PUSH1 0x44 DUP3 ADD MSTORE PUSH1 0x64 ADD PUSH2 0x3C1 JUMP JUMPDEST PUSH1 0x2 PUSH1 0x1 SSTORE JUMP JUMPDEST PUSH4 0x4E487B71 PUSH1 0xE0 SHL PUSH1 0x0 MSTORE PUSH1 0x41 PUSH1 0x4 MSTORE PUSH1 0x24 PUSH1 0x0 REVERT JUMPDEST PUSH1 0x0 DUP3 PUSH1 0x1F DUP4 ADD SLT PUSH2 0x1273 JUMPI PUSH1 0x0 DUP1 REVERT JUMPDEST DUP2 CALLDATALOAD PUSH8 0xFFFFFFFFFFFFFFFF DUP1 DUP3 GT ISZERO PUSH2 0x128E JUMPI PUSH2 0x128E PUSH2 0x124C JUMP JUMPDEST PUSH1 0x40 MLOAD PUSH1 0x1F DUP4 ADD PUSH1 0x1F NOT SWAP1 DUP2 AND PUSH1 0x3F ADD AND DUP2 ADD SWAP1 DUP3 DUP3 GT DUP2 DUP4 LT OR ISZERO PUSH2 0x12B6 JUMPI PUSH2 0x12B6 PUSH2 0x124C JUMP JUMPDEST DUP2 PUSH1 0x40 MSTORE DUP4 DUP2 MSTORE DUP7 PUSH1 0x20 DUP6 DUP9 ADD ADD GT ISZERO PUSH2 0x12CF JUMPI PUSH1 0x0 DUP1 REVERT JUMPDEST DUP4 PUSH1 0x20 DUP8 ADD PUSH1 0x20 DUP4 ADD CALLDATACOPY PUSH1 0x0 PUSH1 0x20 DUP6 DUP4 ADD ADD MSTORE DUP1 SWAP5 POP POP POP POP POP SWAP3 SWAP2 POP POP JUMP JUMPDEST PUSH1 0x0 DUP1 PUSH1 0x40 DUP4 DUP6 SUB SLT ISZERO PUSH2 0x1302 JUMPI PUSH1 0x0 DUP1 REVERT JUMPDEST DUP3 CALLDATALOAD PUSH8 0xFFFFFFFFFFFFFFFF DUP1 DUP3 GT ISZERO PUSH2 0x131A JUMPI PUSH1 0x0 DUP1 REVERT JUMPDEST PUSH2 0x1326 DUP7 DUP4 DUP8 ADD PUSH2 0x1262 JUMP JUMPDEST SWAP4 POP PUSH1 0x20 DUP6 ADD CALLDATALOAD SWAP2 POP DUP1 DUP3 GT ISZERO PUSH2 0x133C JUMPI PUSH1 0x0 DUP1 REVERT JUMPDEST POP PUSH2 0x1349 DUP6 DUP3 DUP7 ADD PUSH2 0x1262 JUMP JUMPDEST SWAP2 POP POP SWAP3 POP SWAP3 SWAP1 POP JUMP JUMPDEST PUSH1 0x0 PUSH1 0x20 DUP3 DUP5 SUB SLT ISZERO PUSH2 0x1365 JUMPI PUSH1 0x0 DUP1 REVERT JUMPDEST DUP2 CALLDATALOAD PUSH8 0xFFFFFFFFFFFFFFFF DUP2 GT ISZERO PUSH2 0x137C JUMPI PUSH1 0x0 DUP1 REVERT JUMPDEST PUSH2 0x1388 DUP5 DUP3 DUP6 ADD PUSH2 0x1262 JUMP JUMPDEST SWAP5 SWAP4 POP POP POP POP JUMP JUMPDEST PUSH1 0x0 JUMPDEST DUP4 DUP2 LT ISZERO PUSH2 0x13AB JUMPI DUP2 DUP2 ADD MLOAD DUP4 DUP3 ADD MSTORE PUSH1 0x20 ADD PUSH2 0x1393 JUMP JUMPDEST POP POP PUSH1 0x0 SWAP2 ADD MSTORE JUMP JUMPDEST PUSH1 0x0 DUP2 MLOAD DUP1 DUP5 MSTORE PUSH2 0x13CC DUP2 PUSH1 0x20 DUP7 ADD PUSH1 0x20 DUP7 ADD PUSH2 0x1390 JUMP JUMPDEST PUSH1 0x1F ADD PUSH1 0x1F NOT AND SWAP3 SWAP1 SWAP3 ADD PUSH1 0x20 ADD SWAP3 SWAP2 POP POP JUMP JUMPDEST PUSH1 0xA0 DUP2 MSTORE PUSH1 0x0 PUSH2 0x13F3 PUSH1 0xA0 DUP4 ADD DUP9 PUSH2 0x13B4 JUMP JUMPDEST DUP3 DUP2 SUB PUSH1 0x20 DUP5 ADD MSTORE PUSH2 0x1405 DUP2 DUP9 PUSH2 0x13B4 JUMP JUMPDEST PUSH1 0x40 DUP5 ADD SWAP7 SWAP1 SWAP7 MSTORE POP POP PUSH1 0x1 PUSH1 0x1 PUSH1 0xA0 SHL SUB SWAP3 SWAP1 SWAP3 AND PUSH1 0x60 DUP4 ADD MSTORE ISZERO ISZERO PUSH1 0x80 SWAP1 SWAP2 ADD MSTORE SWAP3 SWAP2 POP POP JUMP JUMPDEST PUSH1 0x20 DUP2 MSTORE PUSH1 0x0 DUP3 MLOAD PUSH1 0xA0 PUSH1 0x20 DUP5 ADD MSTORE PUSH2 0x144A PUSH1 0xC0 DUP5 ADD DUP3 PUSH2 0x13B4 JUMP JUMPDEST SWAP1 POP PUSH1 0x20 DUP5 ADD MLOAD PUSH1 0x1F NOT DUP5 DUP4 SUB ADD PUSH1 0x40 DUP6 ADD MSTORE PUSH2 0x1467 DUP3 DUP3 PUSH2 0x13B4 JUMP JUMPDEST SWAP2 POP POP PUSH1 0x40 DUP5 ADD MLOAD PUSH1 0x60 DUP5 ADD MSTORE PUSH1 0x1 DUP1 PUSH1 0xA0 SHL SUB PUSH1 0x60 DUP6 ADD MLOAD AND PUSH1 0x80 DUP5 ADD MSTORE PUSH1 0x80 DUP5 ADD MLOAD ISZERO ISZERO PUSH1 0xA0 DUP5 ADD MSTORE DUP1 SWAP2 POP POP SWAP3 SWAP2 POP POP JUMP JUMPDEST DUP1 CALLDATALOAD PUSH1 0x1 PUSH1 0x1 PUSH1 0xA0 SHL SUB DUP2 AND DUP2 EQ PUSH2 0x14B3 JUMPI PUSH1 0x0 DUP1 REVERT JUMPDEST SWAP2 SWAP1 POP JUMP JUMPDEST PUSH1 0x0 DUP1 PUSH1 0x40 DUP4 DUP6 SUB SLT ISZERO PUSH2 0x14CB JUMPI PUSH1 0x0 DUP1 REVERT JUMPDEST DUP3 CALLDATALOAD PUSH8 0xFFFFFFFFFFFFFFFF DUP2 GT ISZERO PUSH2 0x14E2 JUMPI PUSH1 0x0 DUP1 REVERT JUMPDEST PUSH2 0x14EE DUP6 DUP3 DUP7 ADD PUSH2 0x1262 JUMP JUMPDEST SWAP3 POP POP PUSH2 0x14FD PUSH1 0x20 DUP5 ADD PUSH2 0x149C JUMP JUMPDEST SWAP1 POP SWAP3 POP SWAP3 SWAP1 POP JUMP JUMPDEST PUSH1 0x60 DUP2 MSTORE PUSH1 0x0 PUSH2 0x1519 PUSH1 0x60 DUP4 ADD DUP7 PUSH2 0x13B4 JUMP JUMPDEST PUSH1 0x1 PUSH1 0x1 PUSH1 0xA0 SHL SUB SWAP5 SWAP1 SWAP5 AND PUSH1 0x20 DUP4 ADD MSTORE POP SWAP1 ISZERO ISZERO PUSH1 0x40 SWAP1 SWAP2 ADD MSTORE SWAP2 SWAP1 POP JUMP JUMPDEST PUSH1 0x20 DUP2 MSTORE PUSH1 0x0 DUP3 MLOAD PUSH1 0x60 PUSH1 0x20 DUP5 ADD MSTORE PUSH2 0x1555 PUSH1 0x80 DUP5 ADD DUP3 PUSH2 0x13B4 JUMP JUMPDEST PUSH1 0x20 DUP6 ADD MLOAD PUSH1 0x1 PUSH1 0x1 PUSH1 0xA0 SHL SUB AND PUSH1 0x40 DUP6 DUP2 ADD SWAP2 SWAP1 SWAP2 MSTORE SWAP1 SWAP5 ADD MLOAD ISZERO ISZERO PUSH1 0x60 SWAP1 SWAP4 ADD SWAP3 SWAP1 SWAP3 MSTORE POP SWAP1 SWAP2 SWAP1 POP JUMP JUMPDEST PUSH1 0x0 DUP1 PUSH1 0x0 PUSH1 0x60 DUP5 DUP7 SUB SLT ISZERO PUSH2 0x1597 JUMPI PUSH1 0x0 DUP1 REVERT JUMPDEST DUP4 CALLDATALOAD PUSH8 0xFFFFFFFFFFFFFFFF DUP1 DUP3 GT ISZERO PUSH2 0x15AF JUMPI PUSH1 0x0 DUP1 REVERT JUMPDEST PUSH2 0x15BB DUP8 DUP4 DUP9 ADD PUSH2 0x1262 JUMP JUMPDEST SWAP5 POP PUSH1 0x20 DUP7 ADD CALLDATALOAD SWAP2 POP DUP1 DUP3 GT ISZERO PUSH2 0x15D1 JUMPI PUSH1 0x0 DUP1 REVERT JUMPDEST POP PUSH2 0x15DE DUP7 DUP3 DUP8 ADD PUSH2 0x1262 JUMP JUMPDEST SWAP3 POP POP PUSH1 0x40 DUP5 ADD CALLDATALOAD SWAP1 POP SWAP3 POP SWAP3 POP SWAP3 JUMP JUMPDEST PUSH1 0x0 PUSH1 0x20 DUP3 DUP5 SUB SLT ISZERO PUSH2 0x1601 JUMPI PUSH1 0x0 DUP1 REVERT JUMPDEST PUSH2 0x160A DUP3 PUSH2 0x149C JUMP JUMPDEST SWAP4 SWAP3 POP POP POP JUMP JUMPDEST PUSH1 0x0 DUP3 MLOAD PUSH2 0x1623 DUP2 DUP5 PUSH1 0x20 DUP8 ADD PUSH2 0x1390 JUMP JUMPDEST SWAP2 SWAP1 SWAP2 ADD SWAP3 SWAP2 POP POP JUMP JUMPDEST DUP1 DUP3 ADD DUP1 DUP3 GT ISZERO PUSH2 0x164E JUMPI PUSH4 0x4E487B71 PUSH1 0xE0 SHL PUSH1 0x0 MSTORE PUSH1 0x11 PUSH1 0x4 MSTORE PUSH1 0x24 PUSH1 0x0 REVERT JUMPDEST SWAP3 SWAP2 POP POP JUMP JUMPDEST PUSH1 0x1 DUP2 DUP2 SHR SWAP1 DUP3 AND DUP1 PUSH2 0x1668 JUMPI PUSH1 0x7F DUP3 AND SWAP2 POP JUMPDEST PUSH1 0x20 DUP3 LT DUP2 SUB PUSH2 0x1688 JUMPI PUSH4 0x4E487B71 PUSH1 0xE0 SHL PUSH1 0x0 MSTORE PUSH1 0x22 PUSH1 0x4 MSTORE PUSH1 0x24 PUSH1 0x0 REVERT JUMPDEST POP SWAP2 SWAP1 POP JUMP JUMPDEST PUSH1 0x1F DUP3 GT ISZERO PUSH2 0x16D8 JUMPI PUSH1 0x0 DUP2 DUP2 MSTORE PUSH1 0x20 DUP2 KECCAK256 PUSH1 0x1F DUP6 ADD PUSH1 0x5 SHR DUP2 ADD PUSH1 0x20 DUP7 LT ISZERO PUSH2 0x16B5 JUMPI POP DUP1 JUMPDEST PUSH1 0x1F DUP6 ADD PUSH1 0x5 SHR DUP3 ADD SWAP2 POP JUMPDEST DUP2 DUP2 LT ISZERO PUSH2 0x16D4 JUMPI DUP3 DUP2 SSTORE PUSH1 0x1 ADD PUSH2 0x16C1 JUMP JUMPDEST POP POP POP JUMPDEST POP POP POP JUMP JUMPDEST DUP2 MLOAD PUSH8 0xFFFFFFFFFFFFFFFF DUP2 GT ISZERO PUSH2 0x16F7 JUMPI PUSH2 0x16F7 PUSH2 0x124C JUMP JUMPDEST PUSH2 0x170B DUP2 PUSH2 0x1705 DUP5 SLOAD PUSH2 0x1654 JUMP JUMPDEST DUP5 PUSH2 0x168E JUMP JUMPDEST PUSH1 0x20 DUP1 PUSH1 0x1F DUP4 GT PUSH1 0x1 DUP2 EQ PUSH2 0x1740 JUMPI PUSH1 0x0 DUP5 ISZERO PUSH2 0x1728 JUMPI POP DUP6 DUP4 ADD MLOAD JUMPDEST PUSH1 0x0 NOT PUSH1 0x3 DUP7 SWAP1 SHL SHR NOT AND PUSH1 0x1 DUP6 SWAP1 SHL OR DUP6 SSTORE PUSH2 0x16D4 JUMP JUMPDEST PUSH1 0x0 DUP6 DUP2 MSTORE PUSH1 0x20 DUP2 KECCAK256 PUSH1 0x1F NOT DUP7 AND SWAP2 JUMPDEST DUP3 DUP2 LT ISZERO PUSH2 0x176F JUMPI DUP9 DUP7 ADD MLOAD DUP3 SSTORE SWAP5 DUP5 ADD SWAP5 PUSH1 0x1 SWAP1 SWAP2 ADD SWAP1 DUP5 ADD PUSH2 0x1750 JUMP JUMPDEST POP DUP6 DUP3 LT ISZERO PUSH2 0x178D JUMPI DUP8 DUP6 ADD MLOAD PUSH1 0x0 NOT PUSH1 0x3 DUP9 SWAP1 SHL PUSH1 0xF8 AND SHR NOT AND DUP2 SSTORE JUMPDEST POP POP POP POP POP PUSH1 0x1 SWAP1 DUP2 SHL ADD SWAP1 SSTORE POP JUMP JUMPDEST PUSH1 0x40 DUP2 MSTORE PUSH1 0x0 PUSH2 0x17B0 PUSH1 0x40 DUP4 ADD DUP6 PUSH2 0x13B4 JUMP JUMPDEST SWAP1 POP DUP3 PUSH1 0x20 DUP4 ADD MSTORE SWAP4 SWAP3 POP POP POP JUMP INVALID LOG2 PUSH5 0x6970667358 0x22 SLT KECCAK256 0xAB 0xB5 LOG3 0xE8 PUSH18 0x2979FE27737D91C38734265504755938DF29 GT SWAP2 0xFB 0xCC 0xBF GASLIMIT PUSH15 0xD87364736F6C634300081400330000 "},"methodIdentifiers":{"artists(string)":"6b9b94ac","awardGrant(string,string)":"14df98b3","createGrant(string,string,uint256)":"c8f79e7a","distributeFunds(string)":"b2b37d3c","getArtist(string)":"a2498ab3","getGrant(string)":"4b531c05","getPendingFunds(string)":"a0f320c5","grantApplications(string,string)":"35a9cfdb","grants(string)":"33aec12a","owner()":"8da5cb5b","pendingFunds(string)":"dac343b2","registerArtist(string,address)":"5755b9bc","renounceOwnership()":"715018a6","transferOwnership(address)":"f2fde38b"}}}}}