{"src/contracts/ZkSyncArtistManager.sol":{"ZkSyncArtistManager":{"abi":[{"inputs":[],"stateMutability":"nonpayable","type":"constructor"},{"anonymous":false,"inputs":[{"indexed":false,"internalType":"string","name":"artistId","type":"string"},{"indexed":false,"internalType":"address","name":"walletAddress","type":"address"}],"name":"ArtistRegistered","type":"event"},{"anonymous":false,"inputs":[{"indexed":false,"internalType":"string","name":"artistId","type":"string"},{"indexed":false,"internalType":"address","name":"wallet","type":"address"},{"indexed":false,"internalType":"uint256","name":"amount","type":"uint256"}],"name":"FundsDistributed","type":"event"},{"anonymous":false,"inputs":[{"indexed":false,"internalType":"string","name":"opportunityId","type":"string"},{"indexed":false,"internalType":"string","name":"artistId","type":"string"},{"indexed":false,"internalType":"uint256","name":"amount","type":"uint256"}],"name":"FundsReceived","type":"event"},{"anonymous":false,"inputs":[{"indexed":false,"internalType":"string","name":"artistId","type":"string"},{"indexed":false,"internalType":"address","name":"sessionKey","type":"address"}],"name":"SessionKeyAdded","type":"event"},{"anonymous":false,"inputs":[{"indexed":false,"internalType":"string","name":"artistId","type":"string"},{"indexed":false,"internalType":"address","name":"sessionKey","type":"address"}],"name":"SessionKeyRemoved","type":"event"},{"inputs":[{"internalType":"string","name":"artistId","type":"string"},{"internalType":"address","name":"sessionKey","type":"address"}],"name":"addSessionKey","outputs":[],"stateMutability":"nonpayable","type":"function"},{"inputs":[{"internalType":"string","name":"","type":"string"},{"internalType":"uint256","name":"","type":"uint256"}],"name":"artistSessionKeys","outputs":[{"internalType":"address","name":"","type":"address"}],"stateMutability":"view","type":"function"},{"inputs":[{"internalType":"string","name":"","type":"string"}],"name":"artistWallets","outputs":[{"internalType":"address","name":"","type":"address"}],"stateMutability":"view","type":"function"},{"inputs":[{"internalType":"string","name":"artistId","type":"string"}],"name":"distributeFunds","outputs":[],"stateMutability":"nonpayable","type":"function"},{"inputs":[{"internalType":"string","name":"artistId","type":"string"}],"name":"getPendingFunds","outputs":[{"internalType":"uint256","name":"","type":"uint256"}],"stateMutability":"view","type":"function"},{"inputs":[{"internalType":"string","name":"artistId","type":"string"}],"name":"getSessionKeys","outputs":[{"internalType":"address[]","name":"","type":"address[]"}],"stateMutability":"view","type":"function"},{"inputs":[{"internalType":"string","name":"artistId","type":"string"},{"internalType":"address","name":"sessionKey","type":"address"}],"name":"isValidSessionKey","outputs":[{"internalType":"bool","name":"","type":"bool"}],"stateMutability":"view","type":"function"},{"inputs":[],"name":"owner","outputs":[{"internalType":"address","name":"","type":"address"}],"stateMutability":"view","type":"function"},{"inputs":[{"internalType":"string","name":"","type":"string"}],"name":"pendingFunds","outputs":[{"internalType":"uint256","name":"","type":"uint256"}],"stateMutability":"view","type":"function"},{"inputs":[{"internalType":"string","name":"opportunityId","type":"string"},{"internalType":"string","name":"artistId","type":"string"}],"name":"receiveFunds","outputs":[],"stateMutability":"payable","type":"function"},{"inputs":[{"internalType":"string","name":"artistId","type":"string"},{"internalType":"address","name":"walletAddress","type":"address"}],"name":"registerArtist","outputs":[],"stateMutability":"nonpayable","type":"function"},{"inputs":[{"internalType":"string","name":"artistId","type":"string"},{"internalType":"address","name":"sessionKey","type":"address"}],"name":"removeSessionKey","outputs":[],"stateMutability":"nonpayable","type":"function"}],"evm":{"bytecode":{"linkReferences":{},"object":"608060405234801561001057600080fd5b50600080546001600160a01b0319163317905561118f806100326000396000f3fe6080604052600436106100a75760003560e01c80638da5cb5b116100645780638da5cb5b1461018e578063930a1518146101ae578063a0f320c5146101db578063b2b37d3c14610209578063d3fb99d514610229578063dac343b21461026a57600080fd5b806307ed2aed146100ac57806311eeb4ce146100c1578063336da284146100f65780635755b9bc14610116578063645f3187146101365780637dcd0e3f1461016e575b600080fd5b6100bf6100ba366004610df6565b6102a2565b005b3480156100cd57600080fd5b506100e16100dc366004610e5a565b6103bb565b60405190151581526020015b60405180910390f35b34801561010257600080fd5b506100bf610111366004610e5a565b610499565b34801561012257600080fd5b506100bf610131366004610e5a565b610689565b34801561014257600080fd5b50610156610151366004610eb8565b610772565b6040516001600160a01b0390911681526020016100ed565b34801561017a57600080fd5b506100bf610189366004610e5a565b6107b9565b34801561019a57600080fd5b50600054610156906001600160a01b031681565b3480156101ba57600080fd5b506101ce6101c9366004610efd565b6109db565b6040516100ed9190610f3a565b3480156101e757600080fd5b506101fb6101f6366004610efd565b610a55565b6040519081526020016100ed565b34801561021557600080fd5b506100bf610224366004610efd565b610a7d565b34801561023557600080fd5b50610156610244366004610efd565b80516020818301810180516001825292820191909301209152546001600160a01b031681565b34801561027657600080fd5b506101fb610285366004610efd565b805160208183018101805160028252928201919093012091525481565b600034116102f75760405162461bcd60e51b815260206004820152601d60248201527f416d6f756e74206d7573742062652067726561746572207468616e203000000060448201526064015b60405180910390fd5b60006001600160a01b03166001826040516103129190610fab565b908152604051908190036020019020546001600160a01b0316036103485760405162461bcd60e51b81526004016102ee90610fc7565b346002826040516103599190610fab565b90815260200160405180910390206000828254610376919061100c565b90915550506040517f928128c28fa832bad2a3ecb781785a19dde4f19a417d6d3a1a28f9391811e544906103af9084908490349061104b565b60405180910390a15050565b6000806003846040516103ce9190610fab565b908152604080519182900360209081018320805480830285018301909352828452919083018282801561042a57602002820191906000526020600020905b81546001600160a01b0316815260019091019060200180831161040c575b5050505050905060005b815181101561048c57836001600160a01b031682828151811061045957610459611081565b60200260200101516001600160a01b03160361047a57600192505050610493565b8061048481611097565b915050610434565b5060009150505b92915050565b6000546001600160a01b031633146104c35760405162461bcd60e51b81526004016102ee906110b0565b6001600160a01b03811661050f5760405162461bcd60e51b8152602060048201526013602482015272496e76616c69642073657373696f6e206b657960681b60448201526064016102ee565b60006001600160a01b031660018360405161052a9190610fab565b908152604051908190036020019020546001600160a01b0316036105605760405162461bcd60e51b81526004016102ee90610fc7565b60006003836040516105729190610fab565b9081526020016040518091039020905060005b815481101561061e57826001600160a01b03168282815481106105aa576105aa611081565b6000918252602090912001546001600160a01b03160361060c5760405162461bcd60e51b815260206004820152601a60248201527f53657373696f6e206b657920616c72656164792065786973747300000000000060448201526064016102ee565b8061061681611097565b915050610585565b5080546001810182556000828152602090200180546001600160a01b0319166001600160a01b0384161790556040517f4ff861a85f25e80d0296e9e41321688bf498d3337acd76e3c80e9b457aa7a20e9061067c90859085906110d8565b60405180910390a1505050565b6000546001600160a01b031633146106b35760405162461bcd60e51b81526004016102ee906110b0565b6001600160a01b0381166107025760405162461bcd60e51b8152602060048201526016602482015275496e76616c69642077616c6c6574206164647265737360501b60448201526064016102ee565b806001836040516107139190610fab565b90815260405190819003602001812080546001600160a01b03939093166001600160a01b0319909316929092179091557f3d29da7fef11a3d9e7980c76d39c19e6bd3c33cf9f32c9569f856267bbdeedfd906103af90849084906110d8565b8151602081840181018051600382529282019185019190912091905280548290811061079d57600080fd5b6000918252602090912001546001600160a01b03169150829050565b6000546001600160a01b031633146107e35760405162461bcd60e51b81526004016102ee906110b0565b60006001600160a01b03166001836040516107fe9190610fab565b908152604051908190036020019020546001600160a01b0316036108345760405162461bcd60e51b81526004016102ee90610fc7565b60006003836040516108469190610fab565b9081526020016040518091039020905060005b815481101561099a57826001600160a01b031682828154811061087e5761087e611081565b6000918252602090912001546001600160a01b03160361098857815482906108a890600190611102565b815481106108b8576108b8611081565b9060005260206000200160009054906101000a90046001600160a01b03168282815481106108e8576108e8611081565b9060005260206000200160006101000a8154816001600160a01b0302191690836001600160a01b031602179055508180548061092657610926611115565b600082815260209020810160001990810180546001600160a01b03191690550190556040517ff04aead0ff8f79f2307f9b921ea2210ef4fd003b96befe92c2a8b262ceee64de9061097a90869086906110d8565b60405180910390a150505050565b8061099281611097565b915050610859565b5060405162461bcd60e51b815260206004820152601560248201527414d95cdcda5bdb881ad95e481b9bdd08199bdd5b99605a1b60448201526064016102ee565b60606003826040516109ed9190610fab565b9081526040805191829003602090810183208054808302850183019093528284529190830182828015610a4957602002820191906000526020600020905b81546001600160a01b03168152600190910190602001808311610a2b575b50505050509050919050565b6000600282604051610a679190610fab565b9081526020016040518091039020549050919050565b806000600182604051610a909190610fab565b908152604051908190036020019020546001600160a01b03163303610ab757506001610b88565b6000600383604051610ac99190610fab565b9081526040805191829003602090810183208054808302850183019093528284529190830182828015610b2557602002820191906000526020600020905b81546001600160a01b03168152600190910190602001808311610b07575b5050505050905060005b8151811015610b8557818181518110610b4a57610b4a611081565b60200260200101516001600160a01b0316336001600160a01b031603610b735760019250610b85565b80610b7d81611097565b915050610b2f565b50505b80610ba55760405162461bcd60e51b81526004016102ee906110b0565b6000600184604051610bb79190610fab565b908152604051908190036020019020546001600160a01b0316905080610bef5760405162461bcd60e51b81526004016102ee90610fc7565b6000600285604051610c019190610fab565b908152602001604051809103902054905060008111610c5b5760405162461bcd60e51b81526020600482015260166024820152754e6f2066756e647320746f206469737472696275746560501b60448201526064016102ee565b6000600286604051610c6d9190610fab565b908152604051908190036020018120919091556000906001600160a01b0384169083908381818185875af1925050503d8060008114610cc8576040519150601f19603f3d011682016040523d82523d6000602084013e610ccd565b606091505b5050905080610d105760405162461bcd60e51b815260206004820152600f60248201526e151c985b9cd9995c8819985a5b1959608a1b60448201526064016102ee565b7f054d53368c7f57909410721809acf5632411d3c372442c62b3f30ebfe5405c65868484604051610d439392919061112b565b60405180910390a1505050505050565b634e487b7160e01b600052604160045260246000fd5b600082601f830112610d7a57600080fd5b813567ffffffffffffffff80821115610d9557610d95610d53565b604051601f8301601f19908116603f01168101908282118183101715610dbd57610dbd610d53565b81604052838152866020858801011115610dd657600080fd5b836020870160208301376000602085830101528094505050505092915050565b60008060408385031215610e0957600080fd5b823567ffffffffffffffff80821115610e2157600080fd5b610e2d86838701610d69565b93506020850135915080821115610e4357600080fd5b50610e5085828601610d69565b9150509250929050565b60008060408385031215610e6d57600080fd5b823567ffffffffffffffff811115610e8457600080fd5b610e9085828601610d69565b92505060208301356001600160a01b0381168114610ead57600080fd5b809150509250929050565b60008060408385031215610ecb57600080fd5b823567ffffffffffffffff811115610ee257600080fd5b610eee85828601610d69565b95602094909401359450505050565b600060208284031215610f0f57600080fd5b813567ffffffffffffffff811115610f2657600080fd5b610f3284828501610d69565b949350505050565b6020808252825182820181905260009190848201906040850190845b81811015610f7b5783516001600160a01b031683529284019291840191600101610f56565b50909695505050505050565b60005b83811015610fa2578181015183820152602001610f8a565b50506000910152565b60008251610fbd818460208701610f87565b9190910192915050565b602080825260159082015274105c9d1a5cdd081b9bdd081c9959da5cdd195c9959605a1b604082015260600190565b634e487b7160e01b600052601160045260246000fd5b8082018082111561049357610493610ff6565b60008151808452611037816020860160208601610f87565b601f01601f19169290920160200192915050565b60608152600061105e606083018661101f565b8281036020840152611070818661101f565b915050826040830152949350505050565b634e487b7160e01b600052603260045260246000fd5b6000600182016110a9576110a9610ff6565b5060010190565b6020808252600e908201526d139bdd08185d5d1a1bdc9a5e995960921b604082015260600190565b6040815260006110eb604083018561101f565b905060018060a01b03831660208301529392505050565b8181038181111561049357610493610ff6565b634e487b7160e01b600052603160045260246000fd5b60608152600061113e606083018661101f565b6001600160a01b03949094166020830152506040015291905056fea26469706673582212207d3544a9ba2892dfc3e6dead8548d42abb0cfc388f5954e354a34817a0bc252864736f6c63430008140033","opcodes":"PUSH1 0x80 PUSH1 0x40 MSTORE CALLVALUE DUP1 ISZERO PUSH2 0x10 JUMPI PUSH1 0x0 DUP1 REVERT JUMPDEST POP PUSH1 0x0 DUP1 SLOAD PUSH1 0x1 PUSH1 0x1 PUSH1 0xA0 SHL SUB NOT AND CALLER OR SWAP1 SSTORE PUSH2 0x118F DUP1 PUSH2 0x32 PUSH1 0x0 CODECOPY PUSH1 0x0 RETURN INVALID PUSH1 0x80 PUSH1 0x40 MSTORE PUSH1 0x4 CALLDATASIZE LT PUSH2 0xA7 JUMPI PUSH1 0x0 CALLDATALOAD PUSH1 0xE0 SHR DUP1 PUSH4 0x8DA5CB5B GT PUSH2 0x64 JUMPI DUP1 PUSH4 0x8DA5CB5B EQ PUSH2 0x18E JUMPI DUP1 PUSH4 0x930A1518 EQ PUSH2 0x1AE JUMPI DUP1 PUSH4 0xA0F320C5 EQ PUSH2 0x1DB JUMPI DUP1 PUSH4 0xB2B37D3C EQ PUSH2 0x209 JUMPI DUP1 PUSH4 0xD3FB99D5 EQ PUSH2 0x229 JUMPI DUP1 PUSH4 0xDAC343B2 EQ PUSH2 0x26A JUMPI PUSH1 0x0 DUP1 REVERT JUMPDEST DUP1 PUSH4 0x7ED2AED EQ PUSH2 0xAC JUMPI DUP1 PUSH4 0x11EEB4CE EQ PUSH2 0xC1 JUMPI DUP1 PUSH4 0x336DA284 EQ PUSH2 0xF6 JUMPI DUP1 PUSH4 0x5755B9BC EQ PUSH2 0x116 JUMPI DUP1 PUSH4 0x645F3187 EQ PUSH2 0x136 JUMPI DUP1 PUSH4 0x7DCD0E3F EQ PUSH2 0x16E JUMPI JUMPDEST PUSH1 0x0 DUP1 REVERT JUMPDEST PUSH2 0xBF PUSH2 0xBA CALLDATASIZE PUSH1 0x4 PUSH2 0xDF6 JUMP JUMPDEST PUSH2 0x2A2 JUMP JUMPDEST STOP JUMPDEST CALLVALUE DUP1 ISZERO PUSH2 0xCD JUMPI PUSH1 0x0 DUP1 REVERT JUMPDEST POP PUSH2 0xE1 PUSH2 0xDC CALLDATASIZE PUSH1 0x4 PUSH2 0xE5A JUMP JUMPDEST PUSH2 0x3BB JUMP JUMPDEST PUSH1 0x40 MLOAD SWAP1 ISZERO ISZERO DUP2 MSTORE PUSH1 0x20 ADD JUMPDEST PUSH1 0x40 MLOAD DUP1 SWAP2 SUB SWAP1 RETURN JUMPDEST CALLVALUE DUP1 ISZERO PUSH2 0x102 JUMPI PUSH1 0x0 DUP1 REVERT JUMPDEST POP PUSH2 0xBF PUSH2 0x111 CALLDATASIZE PUSH1 0x4 PUSH2 0xE5A JUMP JUMPDEST PUSH2 0x499 JUMP JUMPDEST CALLVALUE DUP1 ISZERO PUSH2 0x122 JUMPI PUSH1 0x0 DUP1 REVERT JUMPDEST POP PUSH2 0xBF PUSH2 0x131 CALLDATASIZE PUSH1 0x4 PUSH2 0xE5A JUMP JUMPDEST PUSH2 0x689 JUMP JUMPDEST CALLVALUE DUP1 ISZERO PUSH2 0x142 JUMPI PUSH1 0x0 DUP1 REVERT JUMPDEST POP PUSH2 0x156 PUSH2 0x151 CALLDATASIZE PUSH1 0x4 PUSH2 0xEB8 JUMP JUMPDEST PUSH2 0x772 JUMP JUMPDEST PUSH1 0x40 MLOAD PUSH1 0x1 PUSH1 0x1 PUSH1 0xA0 SHL SUB SWAP1 SWAP2 AND DUP2 MSTORE PUSH1 0x20 ADD PUSH2 0xED JUMP JUMPDEST CALLVALUE DUP1 ISZERO PUSH2 0x17A JUMPI PUSH1 0x0 DUP1 REVERT JUMPDEST POP PUSH2 0xBF PUSH2 0x189 CALLDATASIZE PUSH1 0x4 PUSH2 0xE5A JUMP JUMPDEST PUSH2 0x7B9 JUMP JUMPDEST CALLVALUE DUP1 ISZERO PUSH2 0x19A JUMPI PUSH1 0x0 DUP1 REVERT JUMPDEST POP PUSH1 0x0 SLOAD PUSH2 0x156 SWAP1 PUSH1 0x1 PUSH1 0x1 PUSH1 0xA0 SHL SUB AND DUP2 JUMP JUMPDEST CALLVALUE DUP1 ISZERO PUSH2 0x1BA JUMPI PUSH1 0x0 DUP1 REVERT JUMPDEST POP PUSH2 0x1CE PUSH2 0x1C9 CALLDATASIZE PUSH1 0x4 PUSH2 0xEFD JUMP JUMPDEST PUSH2 0x9DB JUMP JUMPDEST PUSH1 0x40 MLOAD PUSH2 0xED SWAP2 SWAP1 PUSH2 0xF3A JUMP JUMPDEST CALLVALUE DUP1 ISZERO PUSH2 0x1E7 JUMPI PUSH1 0x0 DUP1 REVERT JUMPDEST POP PUSH2 0x1FB PUSH2 0x1F6 CALLDATASIZE PUSH1 0x4 PUSH2 0xEFD JUMP JUMPDEST PUSH2 0xA55 JUMP JUMPDEST PUSH1 0x40 MLOAD SWAP1 DUP2 MSTORE PUSH1 0x20 ADD PUSH2 0xED JUMP JUMPDEST CALLVALUE DUP1 ISZERO PUSH2 0x215 JUMPI PUSH1 0x0 DUP1 REVERT JUMPDEST POP PUSH2 0xBF PUSH2 0x224 CALLDATASIZE PUSH1 0x4 PUSH2 0xEFD JUMP JUMPDEST PUSH2 0xA7D JUMP JUMPDEST CALLVALUE DUP1 ISZERO PUSH2 0x235 JUMPI PUSH1 0x0 DUP1 REVERT JUMPDEST POP PUSH2 0x156 PUSH2 0x244 CALLDATASIZE PUSH1 0x4 PUSH2 0xEFD JUMP JUMPDEST DUP1 MLOAD PUSH1 0x20 DUP2 DUP4 ADD DUP2 ADD DUP1 MLOAD PUSH1 0x1 DUP3 MSTORE SWAP3 DUP3 ADD SWAP2 SWAP1 SWAP4 ADD KECCAK256 SWAP2 MSTORE SLOAD PUSH1 0x1 PUSH1 0x1 PUSH1 0xA0 SHL SUB AND DUP2 JUMP JUMPDEST CALLVALUE DUP1 ISZERO PUSH2 0x276 JUMPI PUSH1 0x0 DUP1 REVERT JUMPDEST POP PUSH2 0x1FB PUSH2 0x285 CALLDATASIZE PUSH1 0x4 PUSH2 0xEFD JUMP JUMPDEST DUP1 MLOAD PUSH1 0x20 DUP2 DUP4 ADD DUP2 ADD DUP1 MLOAD PUSH1 0x2 DUP3 MSTORE SWAP3 DUP3 ADD SWAP2 SWAP1 SWAP4 ADD KECCAK256 SWAP2 MSTORE SLOAD DUP2 JUMP JUMPDEST PUSH1 0x0 CALLVALUE GT PUSH2 0x2F7 JUMPI PUSH1 0x40 MLOAD PUSH3 0x461BCD PUSH1 0xE5 SHL DUP2 MSTORE PUSH1 0x20 PUSH1 0x4 DUP3 ADD MSTORE PUSH1 0x1D PUSH1 0x24 DUP3 ADD MSTORE PUSH32 0x416D6F756E74206D7573742062652067726561746572207468616E2030000000 PUSH1 0x44 DUP3 ADD MSTORE PUSH1 0x64 ADD JUMPDEST PUSH1 0x40 MLOAD DUP1 SWAP2 SUB SWAP1 REVERT JUMPDEST PUSH1 0x0 PUSH1 0x1 PUSH1 0x1 PUSH1 0xA0 SHL SUB AND PUSH1 0x1 DUP3 PUSH1 0x40 MLOAD PUSH2 0x312 SWAP2 SWAP1 PUSH2 0xFAB JUMP JUMPDEST SWAP1 DUP2 MSTORE PUSH1 0x40 MLOAD SWAP1 DUP2 SWAP1 SUB PUSH1 0x20 ADD SWAP1 KECCAK256 SLOAD PUSH1 0x1 PUSH1 0x1 PUSH1 0xA0 SHL SUB AND SUB PUSH2 0x348 JUMPI PUSH1 0x40 MLOAD PUSH3 0x461BCD PUSH1 0xE5 SHL DUP2 MSTORE PUSH1 0x4 ADD PUSH2 0x2EE SWAP1 PUSH2 0xFC7 JUMP JUMPDEST CALLVALUE PUSH1 0x2 DUP3 PUSH1 0x40 MLOAD PUSH2 0x359 SWAP2 SWAP1 PUSH2 0xFAB JUMP JUMPDEST SWAP1 DUP2 MSTORE PUSH1 0x20 ADD PUSH1 0x40 MLOAD DUP1 SWAP2 SUB SWAP1 KECCAK256 PUSH1 0x0 DUP3 DUP3 SLOAD PUSH2 0x376 SWAP2 SWAP1 PUSH2 0x100C JUMP JUMPDEST SWAP1 SWAP2 SSTORE POP POP PUSH1 0x40 MLOAD PUSH32 0x928128C28FA832BAD2A3ECB781785A19DDE4F19A417D6D3A1A28F9391811E544 SWAP1 PUSH2 0x3AF SWAP1 DUP5 SWAP1 DUP5 SWAP1 CALLVALUE SWAP1 PUSH2 0x104B JUMP JUMPDEST PUSH1 0x40 MLOAD DUP1 SWAP2 SUB SWAP1 LOG1 POP POP JUMP JUMPDEST PUSH1 0x0 DUP1 PUSH1 0x3 DUP5 PUSH1 0x40 MLOAD PUSH2 0x3CE SWAP2 SWAP1 PUSH2 0xFAB JUMP JUMPDEST SWAP1 DUP2 MSTORE PUSH1 0x40 DUP1 MLOAD SWAP2 DUP3 SWAP1 SUB PUSH1 0x20 SWAP1 DUP2 ADD DUP4 KECCAK256 DUP1 SLOAD DUP1 DUP4 MUL DUP6 ADD DUP4 ADD SWAP1 SWAP4 MSTORE DUP3 DUP5 MSTORE SWAP2 SWAP1 DUP4 ADD DUP3 DUP3 DUP1 ISZERO PUSH2 0x42A JUMPI PUSH1 0x20 MUL DUP3 ADD SWAP2 SWAP1 PUSH1 0x0 MSTORE PUSH1 0x20 PUSH1 0x0 KECCAK256 SWAP1 JUMPDEST DUP2 SLOAD PUSH1 0x1 PUSH1 0x1 PUSH1 0xA0 SHL SUB AND DUP2 MSTORE PUSH1 0x1 SWAP1 SWAP2 ADD SWAP1 PUSH1 0x20 ADD DUP1 DUP4 GT PUSH2 0x40C JUMPI JUMPDEST POP POP POP POP POP SWAP1 POP PUSH1 0x0 JUMPDEST DUP2 MLOAD DUP2 LT ISZERO PUSH2 0x48C JUMPI DUP4 PUSH1 0x1 PUSH1 0x1 PUSH1 0xA0 SHL SUB AND DUP3 DUP3 DUP2 MLOAD DUP2 LT PUSH2 0x459 JUMPI PUSH2 0x459 PUSH2 0x1081 JUMP JUMPDEST PUSH1 0x20 MUL PUSH1 0x20 ADD ADD MLOAD PUSH1 0x1 PUSH1 0x1 PUSH1 0xA0 SHL SUB AND SUB PUSH2 0x47A JUMPI PUSH1 0x1 SWAP3 POP POP POP PUSH2 0x493 JUMP JUMPDEST DUP1 PUSH2 0x484 DUP2 PUSH2 0x1097 JUMP JUMPDEST SWAP2 POP POP PUSH2 0x434 JUMP JUMPDEST POP PUSH1 0x0 SWAP2 POP POP JUMPDEST SWAP3 SWAP2 POP POP JUMP JUMPDEST PUSH1 0x0 SLOAD PUSH1 0x1 PUSH1 0x1 PUSH1 0xA0 SHL SUB AND CALLER EQ PUSH2 0x4C3 JUMPI PUSH1 0x40 MLOAD PUSH3 0x461BCD PUSH1 0xE5 SHL DUP2 MSTORE PUSH1 0x4 ADD PUSH2 0x2EE SWAP1 PUSH2 0x10B0 JUMP JUMPDEST PUSH1 0x1 PUSH1 0x1 PUSH1 0xA0 SHL SUB DUP2 AND PUSH2 0x50F JUMPI PUSH1 0x40 MLOAD PUSH3 0x461BCD PUSH1 0xE5 SHL DUP2 MSTORE PUSH1 0x20 PUSH1 0x4 DUP3 ADD MSTORE PUSH1 0x13 PUSH1 0x24 DUP3 ADD MSTORE PUSH19 0x496E76616C69642073657373696F6E206B6579 PUSH1 0x68 SHL PUSH1 0x44 DUP3 ADD MSTORE PUSH1 0x64 ADD PUSH2 0x2EE JUMP JUMPDEST PUSH1 0x0 PUSH1 0x1 PUSH1 0x1 PUSH1 0xA0 SHL SUB AND PUSH1 0x1 DUP4 PUSH1 0x40 MLOAD PUSH2 0x52A SWAP2 SWAP1 PUSH2 0xFAB JUMP JUMPDEST SWAP1 DUP2 MSTORE PUSH1 0x40 MLOAD SWAP1 DUP2 SWAP1 SUB PUSH1 0x20 ADD SWAP1 KECCAK256 SLOAD PUSH1 0x1 PUSH1 0x1 PUSH1 0xA0 SHL SUB AND SUB PUSH2 0x560 JUMPI PUSH1 0x40 MLOAD PUSH3 0x461BCD PUSH1 0xE5 SHL DUP2 MSTORE PUSH1 0x4 ADD PUSH2 0x2EE SWAP1 PUSH2 0xFC7 JUMP JUMPDEST PUSH1 0x0 PUSH1 0x3 DUP4 PUSH1 0x40 MLOAD PUSH2 0x572 SWAP2 SWAP1 PUSH2 0xFAB JUMP JUMPDEST SWAP1 DUP2 MSTORE PUSH1 0x20 ADD PUSH1 0x40 MLOAD DUP1 SWAP2 SUB SWAP1 KECCAK256 SWAP1 POP PUSH1 0x0 JUMPDEST DUP2 SLOAD DUP2 LT ISZERO PUSH2 0x61E JUMPI DUP3 PUSH1 0x1 PUSH1 0x1 PUSH1 0xA0 SHL SUB AND DUP3 DUP3 DUP2 SLOAD DUP2 LT PUSH2 0x5AA JUMPI PUSH2 0x5AA PUSH2 0x1081 JUMP JUMPDEST PUSH1 0x0 SWAP2 DUP3 MSTORE PUSH1 0x20 SWAP1 SWAP2 KECCAK256 ADD SLOAD PUSH1 0x1 PUSH1 0x1 PUSH1 0xA0 SHL SUB AND SUB PUSH2 0x60C JUMPI PUSH1 0x40 MLOAD PUSH3 0x461BCD PUSH1 0xE5 SHL DUP2 MSTORE PUSH1 0x20 PUSH1 0x4 DUP3 ADD MSTORE PUSH1 0x1A PUSH1 0x24 DUP3 ADD MSTORE PUSH32 0x53657373696F6E206B657920616C726561647920657869737473000000000000 PUSH1 0x44 DUP3 ADD MSTORE PUSH1 0x64 ADD PUSH2 0x2EE JUMP JUMPDEST DUP1 PUSH2 0x616 DUP2 PUSH2 0x1097 JUMP JUMPDEST SWAP2 POP POP PUSH2 0x585 JUMP JUMPDEST POP DUP1 SLOAD PUSH1 0x1 DUP2 ADD DUP3 SSTORE PUSH1 0x0 DUP3 DUP2 MSTORE PUSH1 0x20 SWAP1 KECCAK256 ADD DUP1 SLOAD PUSH1 0x1 PUSH1 0x1 PUSH1 0xA0 SHL SUB NOT AND PUSH1 0x1 PUSH1 0x1 PUSH1 0xA0 SHL SUB DUP5 AND OR SWAP1 SSTORE PUSH1 0x40 MLOAD PUSH32 0x4FF861A85F25E80D0296E9E41321688BF498D3337ACD76E3C80E9B457AA7A20E SWAP1 PUSH2 0x67C SWAP1 DUP6 SWAP1 DUP6 SWAP1 PUSH2 0x10D8 JUMP JUMPDEST PUSH1 0x40 MLOAD DUP1 SWAP2 SUB SWAP1 LOG1 POP POP POP JUMP JUMPDEST PUSH1 0x0 SLOAD PUSH1 0x1 PUSH1 0x1 PUSH1 0xA0 SHL SUB AND CALLER EQ PUSH2 0x6B3 JUMPI PUSH1 0x40 MLOAD PUSH3 0x461BCD PUSH1 0xE5 SHL DUP2 MSTORE PUSH1 0x4 ADD PUSH2 0x2EE SWAP1 PUSH2 0x10B0 JUMP JUMPDEST PUSH1 0x1 PUSH1 0x1 PUSH1 0xA0 SHL SUB DUP2 AND PUSH2 0x702 JUMPI PUSH1 0x40 MLOAD PUSH3 0x461BCD PUSH1 0xE5 SHL DUP2 MSTORE PUSH1 0x20 PUSH1 0x4 DUP3 ADD MSTORE PUSH1 0x16 PUSH1 0x24 DUP3 ADD MSTORE PUSH22 0x496E76616C69642077616C6C65742061646472657373 PUSH1 0x50 SHL PUSH1 0x44 DUP3 ADD MSTORE PUSH1 0x64 ADD PUSH2 0x2EE JUMP JUMPDEST DUP1 PUSH1 0x1 DUP4 PUSH1 0x40 MLOAD PUSH2 0x713 SWAP2 SWAP1 PUSH2 0xFAB JUMP JUMPDEST SWAP1 DUP2 MSTORE PUSH1 0x40 MLOAD SWAP1 DUP2 SWAP1 SUB PUSH1 0x20 ADD DUP2 KECCAK256 DUP1 SLOAD PUSH1 0x1 PUSH1 0x1 PUSH1 0xA0 SHL SUB SWAP4 SWAP1 SWAP4 AND PUSH1 0x1 PUSH1 0x1 PUSH1 0xA0 SHL SUB NOT SWAP1 SWAP4 AND SWAP3 SWAP1 SWAP3 OR SWAP1 SWAP2 SSTORE PUSH32 0x3D29DA7FEF11A3D9E7980C76D39C19E6BD3C33CF9F32C9569F856267BBDEEDFD SWAP1 PUSH2 0x3AF SWAP1 DUP5 SWAP1 DUP5 SWAP1 PUSH2 0x10D8 JUMP JUMPDEST DUP2 MLOAD PUSH1 0x20 DUP2 DUP5 ADD DUP2 ADD DUP1 MLOAD PUSH1 0x3 DUP3 MSTORE SWAP3 DUP3 ADD SWAP2 DUP6 ADD SWAP2 SWAP1 SWAP2 KECCAK256 SWAP2 SWAP1 MSTORE DUP1 SLOAD DUP3 SWAP1 DUP2 LT PUSH2 0x79D JUMPI PUSH1 0x0 DUP1 REVERT JUMPDEST PUSH1 0x0 SWAP2 DUP3 MSTORE PUSH1 0x20 SWAP1 SWAP2 KECCAK256 ADD SLOAD PUSH1 0x1 PUSH1 0x1 PUSH1 0xA0 SHL SUB AND SWAP2 POP DUP3 SWAP1 POP JUMP JUMPDEST PUSH1 0x0 SLOAD PUSH1 0x1 PUSH1 0x1 PUSH1 0xA0 SHL SUB AND CALLER EQ PUSH2 0x7E3 JUMPI PUSH1 0x40 MLOAD PUSH3 0x461BCD PUSH1 0xE5 SHL DUP2 MSTORE PUSH1 0x4 ADD PUSH2 0x2EE SWAP1 PUSH2 0x10B0 JUMP JUMPDEST PUSH1 0x0 PUSH1 0x1 PUSH1 0x1 PUSH1 0xA0 SHL SUB AND PUSH1 0x1 DUP4 PUSH1 0x40 MLOAD PUSH2 0x7FE SWAP2 SWAP1 PUSH2 0xFAB JUMP JUMPDEST SWAP1 DUP2 MSTORE PUSH1 0x40 MLOAD SWAP1 DUP2 SWAP1 SUB PUSH1 0x20 ADD SWAP1 KECCAK256 SLOAD PUSH1 0x1 PUSH1 0x1 PUSH1 0xA0 SHL SUB AND SUB PUSH2 0x834 JUMPI PUSH1 0x40 MLOAD PUSH3 0x461BCD PUSH1 0xE5 SHL DUP2 MSTORE PUSH1 0x4 ADD PUSH2 0x2EE SWAP1 PUSH2 0xFC7 JUMP JUMPDEST PUSH1 0x0 PUSH1 0x3 DUP4 PUSH1 0x40 MLOAD PUSH2 0x846 SWAP2 SWAP1 PUSH2 0xFAB JUMP JUMPDEST SWAP1 DUP2 MSTORE PUSH1 0x20 ADD PUSH1 0x40 MLOAD DUP1 SWAP2 SUB SWAP1 KECCAK256 SWAP1 POP PUSH1 0x0 JUMPDEST DUP2 SLOAD DUP2 LT ISZERO PUSH2 0x99A JUMPI DUP3 PUSH1 0x1 PUSH1 0x1 PUSH1 0xA0 SHL SUB AND DUP3 DUP3 DUP2 SLOAD DUP2 LT PUSH2 0x87E JUMPI PUSH2 0x87E PUSH2 0x1081 JUMP JUMPDEST PUSH1 0x0 SWAP2 DUP3 MSTORE PUSH1 0x20 SWAP1 SWAP2 KECCAK256 ADD SLOAD PUSH1 0x1 PUSH1 0x1 PUSH1 0xA0 SHL SUB AND SUB PUSH2 0x988 JUMPI DUP2 SLOAD DUP3 SWAP1 PUSH2 0x8A8 SWAP1 PUSH1 0x1 SWAP1 PUSH2 0x1102 JUMP JUMPDEST DUP2 SLOAD DUP2 LT PUSH2 0x8B8 JUMPI PUSH2 0x8B8 PUSH2 0x1081 JUMP JUMPDEST SWAP1 PUSH1 0x0 MSTORE PUSH1 0x20 PUSH1 0x0 KECCAK256 ADD PUSH1 0x0 SWAP1 SLOAD SWAP1 PUSH2 0x100 EXP SWAP1 DIV PUSH1 0x1 PUSH1 0x1 PUSH1 0xA0 SHL SUB AND DUP3 DUP3 DUP2 SLOAD DUP2 LT PUSH2 0x8E8 JUMPI PUSH2 0x8E8 PUSH2 0x1081 JUMP JUMPDEST SWAP1 PUSH1 0x0 MSTORE PUSH1 0x20 PUSH1 0x0 KECCAK256 ADD PUSH1 0x0 PUSH2 0x100 EXP DUP2 SLOAD DUP2 PUSH1 0x1 PUSH1 0x1 PUSH1 0xA0 SHL SUB MUL NOT AND SWAP1 DUP4 PUSH1 0x1 PUSH1 0x1 PUSH1 0xA0 SHL SUB AND MUL OR SWAP1 SSTORE POP DUP2 DUP1 SLOAD DUP1 PUSH2 0x926 JUMPI PUSH2 0x926 PUSH2 0x1115 JUMP JUMPDEST PUSH1 0x0 DUP3 DUP2 MSTORE PUSH1 0x20 SWAP1 KECCAK256 DUP2 ADD PUSH1 0x0 NOT SWAP1 DUP2 ADD DUP1 SLOAD PUSH1 0x1 PUSH1 0x1 PUSH1 0xA0 SHL SUB NOT AND SWAP1 SSTORE ADD SWAP1 SSTORE PUSH1 0x40 MLOAD PUSH32 0xF04AEAD0FF8F79F2307F9B921EA2210EF4FD003B96BEFE92C2A8B262CEEE64DE SWAP1 PUSH2 0x97A SWAP1 DUP7 SWAP1 DUP7 SWAP1 PUSH2 0x10D8 JUMP JUMPDEST PUSH1 0x40 MLOAD DUP1 SWAP2 SUB SWAP1 LOG1 POP POP POP POP JUMP JUMPDEST DUP1 PUSH2 0x992 DUP2 PUSH2 0x1097 JUMP JUMPDEST SWAP2 POP POP PUSH2 0x859 JUMP JUMPDEST POP PUSH1 0x40 MLOAD PUSH3 0x461BCD PUSH1 0xE5 SHL DUP2 MSTORE PUSH1 0x20 PUSH1 0x4 DUP3 ADD MSTORE PUSH1 0x15 PUSH1 0x24 DUP3 ADD MSTORE PUSH21 0x14D95CDCDA5BDB881AD95E481B9BDD08199BDD5B99 PUSH1 0x5A SHL PUSH1 0x44 DUP3 ADD MSTORE PUSH1 0x64 ADD PUSH2 0x2EE JUMP JUMPDEST PUSH1 0x60 PUSH1 0x3 DUP3 PUSH1 0x40 MLOAD PUSH2 0x9ED SWAP2 SWAP1 PUSH2 0xFAB JUMP JUMPDEST SWAP1 DUP2 MSTORE PUSH1 0x40 DUP1 MLOAD SWAP2 DUP3 SWAP1 SUB PUSH1 0x20 SWAP1 DUP2 ADD DUP4 KECCAK256 DUP1 SLOAD DUP1 DUP4 MUL DUP6 ADD DUP4 ADD SWAP1 SWAP4 MSTORE DUP3 DUP5 MSTORE SWAP2 SWAP1 DUP4 ADD DUP3 DUP3 DUP1 ISZERO PUSH2 0xA49 JUMPI PUSH1 0x20 MUL DUP3 ADD SWAP2 SWAP1 PUSH1 0x0 MSTORE PUSH1 0x20 PUSH1 0x0 KECCAK256 SWAP1 JUMPDEST DUP2 SLOAD PUSH1 0x1 PUSH1 0x1 PUSH1 0xA0 SHL SUB AND DUP2 MSTORE PUSH1 0x1 SWAP1 SWAP2 ADD SWAP1 PUSH1 0x20 ADD DUP1 DUP4 GT PUSH2 0xA2B JUMPI JUMPDEST POP POP POP POP POP SWAP1 POP SWAP2 SWAP1 POP JUMP JUMPDEST PUSH1 0x0 PUSH1 0x2 DUP3 PUSH1 0x40 MLOAD PUSH2 0xA67 SWAP2 SWAP1 PUSH2 0xFAB JUMP JUMPDEST SWAP1 DUP2 MSTORE PUSH1 0x20 ADD PUSH1 0x40 MLOAD DUP1 SWAP2 SUB SWAP1 KECCAK256 SLOAD SWAP1 POP SWAP2 SWAP1 POP JUMP JUMPDEST DUP1 PUSH1 0x0 PUSH1 0x1 DUP3 PUSH1 0x40 MLOAD PUSH2 0xA90 SWAP2 SWAP1 PUSH2 0xFAB JUMP JUMPDEST SWAP1 DUP2 MSTORE PUSH1 0x40 MLOAD SWAP1 DUP2 SWAP1 SUB PUSH1 0x20 ADD SWAP1 KECCAK256 SLOAD PUSH1 0x1 PUSH1 0x1 PUSH1 0xA0 SHL SUB AND CALLER SUB PUSH2 0xAB7 JUMPI POP PUSH1 0x1 PUSH2 0xB88 JUMP JUMPDEST PUSH1 0x0 PUSH1 0x3 DUP4 PUSH1 0x40 MLOAD PUSH2 0xAC9 SWAP2 SWAP1 PUSH2 0xFAB JUMP JUMPDEST SWAP1 DUP2 MSTORE PUSH1 0x40 DUP1 MLOAD SWAP2 DUP3 SWAP1 SUB PUSH1 0x20 SWAP1 DUP2 ADD DUP4 KECCAK256 DUP1 SLOAD DUP1 DUP4 MUL DUP6 ADD DUP4 ADD SWAP1 SWAP4 MSTORE DUP3 DUP5 MSTORE SWAP2 SWAP1 DUP4 ADD DUP3 DUP3 DUP1 ISZERO PUSH2 0xB25 JUMPI PUSH1 0x20 MUL DUP3 ADD SWAP2 SWAP1 PUSH1 0x0 MSTORE PUSH1 0x20 PUSH1 0x0 KECCAK256 SWAP1 JUMPDEST DUP2 SLOAD PUSH1 0x1 PUSH1 0x1 PUSH1 0xA0 SHL SUB AND DUP2 MSTORE PUSH1 0x1 SWAP1 SWAP2 ADD SWAP1 PUSH1 0x20 ADD DUP1 DUP4 GT PUSH2 0xB07 JUMPI JUMPDEST POP POP POP POP POP SWAP1 POP PUSH1 0x0 JUMPDEST DUP2 MLOAD DUP2 LT ISZERO PUSH2 0xB85 JUMPI DUP2 DUP2 DUP2 MLOAD DUP2 LT PUSH2 0xB4A JUMPI PUSH2 0xB4A PUSH2 0x1081 JUMP JUMPDEST PUSH1 0x20 MUL PUSH1 0x20 ADD ADD MLOAD PUSH1 0x1 PUSH1 0x1 PUSH1 0xA0 SHL SUB AND CALLER PUSH1 0x1 PUSH1 0x1 PUSH1 0xA0 SHL SUB AND SUB PUSH2 0xB73 JUMPI PUSH1 0x1 SWAP3 POP PUSH2 0xB85 JUMP JUMPDEST DUP1 PUSH2 0xB7D DUP2 PUSH2 0x1097 JUMP JUMPDEST SWAP2 POP POP PUSH2 0xB2F JUMP JUMPDEST POP POP JUMPDEST DUP1 PUSH2 0xBA5 JUMPI PUSH1 0x40 MLOAD PUSH3 0x461BCD PUSH1 0xE5 SHL DUP2 MSTORE PUSH1 0x4 ADD PUSH2 0x2EE SWAP1 PUSH2 0x10B0 JUMP JUMPDEST PUSH1 0x0 PUSH1 0x1 DUP5 PUSH1 0x40 MLOAD PUSH2 0xBB7 SWAP2 SWAP1 PUSH2 0xFAB JUMP JUMPDEST SWAP1 DUP2 MSTORE PUSH1 0x40 MLOAD SWAP1 DUP2 SWAP1 SUB PUSH1 0x20 ADD SWAP1 KECCAK256 SLOAD PUSH1 0x1 PUSH1 0x1 PUSH1 0xA0 SHL SUB AND SWAP1 POP DUP1 PUSH2 0xBEF JUMPI PUSH1 0x40 MLOAD PUSH3 0x461BCD PUSH1 0xE5 SHL DUP2 MSTORE PUSH1 0x4 ADD PUSH2 0x2EE SWAP1 PUSH2 0xFC7 JUMP JUMPDEST PUSH1 0x0 PUSH1 0x2 DUP6 PUSH1 0x40 MLOAD PUSH2 0xC01 SWAP2 SWAP1 PUSH2 0xFAB JUMP JUMPDEST SWAP1 DUP2 MSTORE PUSH1 0x20 ADD PUSH1 0x40 MLOAD DUP1 SWAP2 SUB SWAP1 KECCAK256 SLOAD SWAP1 POP PUSH1 0x0 DUP2 GT PUSH2 0xC5B JUMPI PUSH1 0x40 MLOAD PUSH3 0x461BCD PUSH1 0xE5 SHL DUP2 MSTORE PUSH1 0x20 PUSH1 0x4 DUP3 ADD MSTORE PUSH1 0x16 PUSH1 0x24 DUP3 ADD MSTORE PUSH22 0x4E6F2066756E647320746F2064697374726962757465 PUSH1 0x50 SHL PUSH1 0x44 DUP3 ADD MSTORE PUSH1 0x64 ADD PUSH2 0x2EE JUMP JUMPDEST PUSH1 0x0 PUSH1 0x2 DUP7 PUSH1 0x40 MLOAD PUSH2 0xC6D SWAP2 SWAP1 PUSH2 0xFAB JUMP JUMPDEST SWAP1 DUP2 MSTORE PUSH1 0x40 MLOAD SWAP1 DUP2 SWAP1 SUB PUSH1 0x20 ADD DUP2 KECCAK256 SWAP2 SWAP1 SWAP2 SSTORE PUSH1 0x0 SWAP1 PUSH1 0x1 PUSH1 0x1 PUSH1 0xA0 SHL SUB DUP5 AND SWAP1 DUP4 SWAP1 DUP4 DUP2 DUP2 DUP2 DUP6 DUP8 GAS CALL SWAP3 POP POP POP RETURNDATASIZE DUP1 PUSH1 0x0 DUP2 EQ PUSH2 0xCC8 JUMPI PUSH1 0x40 MLOAD SWAP2 POP PUSH1 0x1F NOT PUSH1 0x3F RETURNDATASIZE ADD AND DUP3 ADD PUSH1 0x40 MSTORE RETURNDATASIZE DUP3 MSTORE RETURNDATASIZE PUSH1 0x0 PUSH1 0x20 DUP5 ADD RETURNDATACOPY PUSH2 0xCCD JUMP JUMPDEST PUSH1 0x60 SWAP2 POP JUMPDEST POP POP SWAP1 POP DUP1 PUSH2 0xD10 JUMPI PUSH1 0x40 MLOAD PUSH3 0x461BCD PUSH1 0xE5 SHL DUP2 MSTORE PUSH1 0x20 PUSH1 0x4 DUP3 ADD MSTORE PUSH1 0xF PUSH1 0x24 DUP3 ADD MSTORE PUSH15 0x151C985B9CD9995C8819985A5B1959 PUSH1 0x8A SHL PUSH1 0x44 DUP3 ADD MSTORE PUSH1 0x64 ADD PUSH2 0x2EE JUMP JUMPDEST PUSH32 0x54D53368C7F57909410721809ACF5632411D3C372442C62B3F30EBFE5405C65 DUP7 DUP5 DUP5 PUSH1 0x40 MLOAD PUSH2 0xD43 SWAP4 SWAP3 SWAP2 SWAP1 PUSH2 0x112B JUMP JUMPDEST PUSH1 0x40 MLOAD DUP1 SWAP2 SUB SWAP1 LOG1 POP POP POP POP POP POP JUMP JUMPDEST PUSH4 0x4E487B71 PUSH1 0xE0 SHL PUSH1 0x0 MSTORE PUSH1 0x41 PUSH1 0x4 MSTORE PUSH1 0x24 PUSH1 0x0 REVERT JUMPDEST PUSH1 0x0 DUP3 PUSH1 0x1F DUP4 ADD SLT PUSH2 0xD7A JUMPI PUSH1 0x0 DUP1 REVERT JUMPDEST DUP2 CALLDATALOAD PUSH8 0xFFFFFFFFFFFFFFFF DUP1 DUP3 GT ISZERO PUSH2 0xD95 JUMPI PUSH2 0xD95 PUSH2 0xD53 JUMP JUMPDEST PUSH1 0x40 MLOAD PUSH1 0x1F DUP4 ADD PUSH1 0x1F NOT SWAP1 DUP2 AND PUSH1 0x3F ADD AND DUP2 ADD SWAP1 DUP3 DUP3 GT DUP2 DUP4 LT OR ISZERO PUSH2 0xDBD JUMPI PUSH2 0xDBD PUSH2 0xD53 JUMP JUMPDEST DUP2 PUSH1 0x40 MSTORE DUP4 DUP2 MSTORE DUP7 PUSH1 0x20 DUP6 DUP9 ADD ADD GT ISZERO PUSH2 0xDD6 JUMPI PUSH1 0x0 DUP1 REVERT JUMPDEST DUP4 PUSH1 0x20 DUP8 ADD PUSH1 0x20 DUP4 ADD CALLDATACOPY PUSH1 0x0 PUSH1 0x20 DUP6 DUP4 ADD ADD MSTORE DUP1 SWAP5 POP POP POP POP POP SWAP3 SWAP2 POP POP JUMP JUMPDEST PUSH1 0x0 DUP1 PUSH1 0x40 DUP4 DUP6 SUB SLT ISZERO PUSH2 0xE09 JUMPI PUSH1 0x0 DUP1 REVERT JUMPDEST DUP3 CALLDATALOAD PUSH8 0xFFFFFFFFFFFFFFFF DUP1 DUP3 GT ISZERO PUSH2 0xE21 JUMPI PUSH1 0x0 DUP1 REVERT JUMPDEST PUSH2 0xE2D DUP7 DUP4 DUP8 ADD PUSH2 0xD69 JUMP JUMPDEST SWAP4 POP PUSH1 0x20 DUP6 ADD CALLDATALOAD SWAP2 POP DUP1 DUP3 GT ISZERO PUSH2 0xE43 JUMPI PUSH1 0x0 DUP1 REVERT JUMPDEST POP PUSH2 0xE50 DUP6 DUP3 DUP7 ADD PUSH2 0xD69 JUMP JUMPDEST SWAP2 POP POP SWAP3 POP SWAP3 SWAP1 POP JUMP JUMPDEST PUSH1 0x0 DUP1 PUSH1 0x40 DUP4 DUP6 SUB SLT ISZERO PUSH2 0xE6D JUMPI PUSH1 0x0 DUP1 REVERT JUMPDEST DUP3 CALLDATALOAD PUSH8 0xFFFFFFFFFFFFFFFF DUP2 GT ISZERO PUSH2 0xE84 JUMPI PUSH1 0x0 DUP1 REVERT JUMPDEST PUSH2 0xE90 DUP6 DUP3 DUP7 ADD PUSH2 0xD69 JUMP JUMPDEST SWAP3 POP POP PUSH1 0x20 DUP4 ADD CALLDATALOAD PUSH1 0x1 PUSH1 0x1 PUSH1 0xA0 SHL SUB DUP2 AND DUP2 EQ PUSH2 0xEAD JUMPI PUSH1 0x0 DUP1 REVERT JUMPDEST DUP1 SWAP2 POP POP SWAP3 POP SWAP3 SWAP1 POP JUMP JUMPDEST PUSH1 0x0 DUP1 PUSH1 0x40 DUP4 DUP6 SUB SLT ISZERO PUSH2 0xECB JUMPI PUSH1 0x0 DUP1 REVERT JUMPDEST DUP3 CALLDATALOAD PUSH8 0xFFFFFFFFFFFFFFFF DUP2 GT ISZERO PUSH2 0xEE2 JUMPI PUSH1 0x0 DUP1 REVERT JUMPDEST PUSH2 0xEEE DUP6 DUP3 DUP7 ADD PUSH2 0xD69 JUMP JUMPDEST SWAP6 PUSH1 0x20 SWAP5 SWAP1 SWAP5 ADD CALLDATALOAD SWAP5 POP POP POP POP JUMP JUMPDEST PUSH1 0x0 PUSH1 0x20 DUP3 DUP5 SUB SLT ISZERO PUSH2 0xF0F JUMPI PUSH1 0x0 DUP1 REVERT JUMPDEST DUP2 CALLDATALOAD PUSH8 0xFFFFFFFFFFFFFFFF DUP2 GT ISZERO PUSH2 0xF26 JUMPI PUSH1 0x0 DUP1 REVERT JUMPDEST PUSH2 0xF32 DUP5 DUP3 DUP6 ADD PUSH2 0xD69 JUMP JUMPDEST SWAP5 SWAP4 POP POP POP POP JUMP JUMPDEST PUSH1 0x20 DUP1 DUP3 MSTORE DUP3 MLOAD DUP3 DUP3 ADD DUP2 SWAP1 MSTORE PUSH1 0x0 SWAP2 SWAP1 DUP5 DUP3 ADD SWAP1 PUSH1 0x40 DUP6 ADD SWAP1 DUP5 JUMPDEST DUP2 DUP2 LT ISZERO PUSH2 0xF7B JUMPI DUP4 MLOAD PUSH1 0x1 PUSH1 0x1 PUSH1 0xA0 SHL SUB AND DUP4 MSTORE SWAP3 DUP5 ADD SWAP3 SWAP2 DUP5 ADD SWAP2 PUSH1 0x1 ADD PUSH2 0xF56 JUMP JUMPDEST POP SWAP1 SWAP7 SWAP6 POP POP POP POP POP POP JUMP JUMPDEST PUSH1 0x0 JUMPDEST DUP4 DUP2 LT ISZERO PUSH2 0xFA2 JUMPI DUP2 DUP2 ADD MLOAD DUP4 DUP3 ADD MSTORE PUSH1 0x20 ADD PUSH2 0xF8A JUMP JUMPDEST POP POP PUSH1 0x0 SWAP2 ADD MSTORE JUMP JUMPDEST PUSH1 0x0 DUP3 MLOAD PUSH2 0xFBD DUP2 DUP5 PUSH1 0x20 DUP8 ADD PUSH2 0xF87 JUMP JUMPDEST SWAP2 SWAP1 SWAP2 ADD SWAP3 SWAP2 POP POP JUMP JUMPDEST PUSH1 0x20 DUP1 DUP3 MSTORE PUSH1 0x15 SWAP1 DUP3 ADD MSTORE PUSH21 0x105C9D1A5CDD081B9BDD081C9959DA5CDD195C9959 PUSH1 0x5A SHL PUSH1 0x40 DUP3 ADD MSTORE PUSH1 0x60 ADD SWAP1 JUMP JUMPDEST PUSH4 0x4E487B71 PUSH1 0xE0 SHL PUSH1 0x0 MSTORE PUSH1 0x11 PUSH1 0x4 MSTORE PUSH1 0x24 PUSH1 0x0 REVERT JUMPDEST DUP1 DUP3 ADD DUP1 DUP3 GT ISZERO PUSH2 0x493 JUMPI PUSH2 0x493 PUSH2 0xFF6 JUMP JUMPDEST PUSH1 0x0 DUP2 MLOAD DUP1 DUP5 MSTORE PUSH2 0x1037 DUP2 PUSH1 0x20 DUP7 ADD PUSH1 0x20 DUP7 ADD PUSH2 0xF87 JUMP JUMPDEST PUSH1 0x1F ADD PUSH1 0x1F NOT AND SWAP3 SWAP1 SWAP3 ADD PUSH1 0x20 ADD SWAP3 SWAP2 POP POP JUMP JUMPDEST PUSH1 0x60 DUP2 MSTORE PUSH1 0x0 PUSH2 0x105E PUSH1 0x60 DUP4 ADD DUP7 PUSH2 0x101F JUMP JUMPDEST DUP3 DUP2 SUB PUSH1 0x20 DUP5 ADD MSTORE PUSH2 0x1070 DUP2 DUP7 PUSH2 0x101F JUMP JUMPDEST SWAP2 POP POP DUP3 PUSH1 0x40 DUP4 ADD MSTORE SWAP5 SWAP4 POP POP POP POP JUMP JUMPDEST PUSH4 0x4E487B71 PUSH1 0xE0 SHL PUSH1 0x0 MSTORE PUSH1 0x32 PUSH1 0x4 MSTORE PUSH1 0x24 PUSH1 0x0 REVERT JUMPDEST PUSH1 0x0 PUSH1 0x1 DUP3 ADD PUSH2 0x10A9 JUMPI PUSH2 0x10A9 PUSH2 0xFF6 JUMP JUMPDEST POP PUSH1 0x1 ADD SWAP1 JUMP JUMPDEST PUSH1 0x20 DUP1 DUP3 MSTORE PUSH1 0xE SWAP1 DUP3 ADD MSTORE PUSH14 0x139BDD08185D5D1A1BDC9A5E9959 PUSH1 0x92 SHL PUSH1 0x40 DUP3 ADD MSTORE PUSH1 0x60 ADD SWAP1 JUMP JUMPDEST PUSH1 0x40 DUP2 MSTORE PUSH1 0x0 PUSH2 0x10EB PUSH1 0x40 DUP4 ADD DUP6 PUSH2 0x101F JUMP JUMPDEST SWAP1 POP PUSH1 0x1 DUP1 PUSH1 0xA0 SHL SUB DUP4 AND PUSH1 0x20 DUP4 ADD MSTORE SWAP4 SWAP3 POP POP POP JUMP JUMPDEST DUP2 DUP2 SUB DUP2 DUP2 GT ISZERO PUSH2 0x493 JUMPI PUSH2 0x493 PUSH2 0xFF6 JUMP JUMPDEST PUSH4 0x4E487B71 PUSH1 0xE0 SHL PUSH1 0x0 MSTORE PUSH1 0x31 PUSH1 0x4 MSTORE PUSH1 0x24 PUSH1 0x0 REVERT JUMPDEST PUSH1 0x60 DUP2 MSTORE PUSH1 0x0 PUSH2 0x113E PUSH1 0x60 DUP4 ADD DUP7 PUSH2 0x101F JUMP JUMPDEST PUSH1 0x1 PUSH1 0x1 PUSH1 0xA0 SHL SUB SWAP5 SWAP1 SWAP5 AND PUSH1 0x20 DUP4 ADD MSTORE POP PUSH1 0x40 ADD MSTORE SWAP2 SWAP1 POP JUMP INVALID LOG2 PUSH5 0x6970667358 0x22 SLT KECCAK256 PUSH30 0x3544A9BA2892DFC3E6DEAD8548D42ABB0CFC388F5954E354A34817A0BC25 0x28 PUSH5 0x736F6C6343 STOP ADDMOD EQ STOP CALLER "},"methodIdentifiers":{"addSessionKey(string,address)":"336da284","artistSessionKeys(string,uint256)":"645f3187","artistWallets(string)":"d3fb99d5","distributeFunds(string)":"b2b37d3c","getPendingFunds(string)":"a0f320c5","getSessionKeys(string)":"930a1518","isValidSessionKey(string,address)":"11eeb4ce","owner()":"8da5cb5b","pendingFunds(string)":"dac343b2","receiveFunds(string,string)":"07ed2aed","registerArtist(string,address)":"5755b9bc","removeSessionKey(string,address)":"7dcd0e3f"}}}}}