{
  "_format": "hh-sol-artifact-1",
  "contractName": "ArtistFundManager",
  "sourceName": "src/contracts/base/ArtistFundManager.sol",
  "abi": [
    {
      "inputs": [],
      "stateMutability": "nonpayable",
      "type": "constructor"
    },
    {
      "anonymous": false,
      "inputs": [
        {
          "indexed": true,
          "internalType": "string",
          "name": "artistId",
          "type": "string"
        },
        {
          "indexed": true,
          "internalType": "address",
          "name": "wallet",
          "type": "address"
        }
      ],
      "name": "ArtistRegistered",
      "type": "event"
    },
    {
      "anonymous": false,
      "inputs": [
        {
          "indexed": true,
          "internalType": "string",
          "name": "artistId",
          "type": "string"
        },
        {
          "indexed": true,
          "internalType": "address",
          "name": "wallet",
          "type": "address"
        },
        {
          "indexed": false,
          "internalType": "uint256",
          "name": "amount",
          "type": "uint256"
        }
      ],
      "name": "FundsDistributed",
      "type": "event"
    },
    {
      "anonymous": false,
      "inputs": [
        {
          "indexed": true,
          "internalType": "string",
          "name": "grantId",
          "type": "string"
        },
        {
          "indexed": true,
          "internalType": "string",
          "name": "artistId",
          "type": "string"
        },
        {
          "indexed": false,
          "internalType": "uint256",
          "name": "amount",
          "type": "uint256"
        }
      ],
      "name": "GrantAwarded",
      "type": "event"
    },
    {
      "anonymous": false,
      "inputs": [
        {
          "indexed": true,
          "internalType": "string",
          "name": "grantId",
          "type": "string"
        },
        {
          "indexed": false,
          "internalType": "string",
          "name": "title",
          "type": "string"
        },
        {
          "indexed": false,
          "internalType": "uint256",
          "name": "amount",
          "type": "uint256"
        }
      ],
      "name": "GrantCreated",
      "type": "event"
    },
    {
      "anonymous": false,
      "inputs": [
        {
          "indexed": true,
          "internalType": "address",
          "name": "previousOwner",
          "type": "address"
        },
        {
          "indexed": true,
          "internalType": "address",
          "name": "newOwner",
          "type": "address"
        }
      ],
      "name": "OwnershipTransferred",
      "type": "event"
    },
    {
      "inputs": [
        {
          "internalType": "string",
          "name": "",
          "type": "string"
        }
      ],
      "name": "artists",
      "outputs": [
        {
          "internalType": "string",
          "name": "id",
          "type": "string"
        },
        {
          "internalType": "address",
          "name": "wallet",
          "type": "address"
        },
        {
          "internalType": "bool",
          "name": "verified",
          "type": "bool"
        }
      ],
      "stateMutability": "view",
      "type": "function"
    },
    {
      "inputs": [
        {
          "internalType": "string",
          "name": "grantId",
          "type": "string"
        },
        {
          "internalType": "string",
          "name": "artistId",
          "type": "string"
        }
      ],
      "name": "awardGrant",
      "outputs": [],
      "stateMutability": "nonpayable",
      "type": "function"
    },
    {
      "inputs": [
        {
          "internalType": "string",
          "name": "grantId",
          "type": "string"
        },
        {
          "internalType": "string",
          "name": "title",
          "type": "string"
        },
        {
          "internalType": "uint256",
          "name": "amount",
          "type": "uint256"
        }
      ],
      "name": "createGrant",
      "outputs": [],
      "stateMutability": "payable",
      "type": "function"
    },
    {
      "inputs": [
        {
          "internalType": "string",
          "name": "artistId",
          "type": "string"
        }
      ],
      "name": "distributeFunds",
      "outputs": [],
      "stateMutability": "nonpayable",
      "type": "function"
    },
    {
      "inputs": [
        {
          "internalType": "string",
          "name": "artistId",
          "type": "string"
        }
      ],
      "name": "getArtist",
      "outputs": [
        {
          "components": [
            {
              "internalType": "string",
              "name": "id",
              "type": "string"
            },
            {
              "internalType": "address",
              "name": "wallet",
              "type": "address"
            },
            {
              "internalType": "bool",
              "name": "verified",
              "type": "bool"
            }
          ],
          "internalType": "struct ArtistFundManager.Artist",
          "name": "",
          "type": "tuple"
        }
      ],
      "stateMutability": "view",
      "type": "function"
    },
    {
      "inputs": [
        {
          "internalType": "string",
          "name": "grantId",
          "type": "string"
        }
      ],
      "name": "getGrant",
      "outputs": [
        {
          "components": [
            {
              "internalType": "string",
              "name": "id",
              "type": "string"
            },
            {
              "internalType": "string",
              "name": "title",
              "type": "string"
            },
            {
              "internalType": "uint256",
              "name": "amount",
              "type": "uint256"
            },
            {
              "internalType": "address",
              "name": "funder",
              "type": "address"
            },
            {
              "internalType": "bool",
              "name": "active",
              "type": "bool"
            }
          ],
          "internalType": "struct ArtistFundManager.Grant",
          "name": "",
          "type": "tuple"
        }
      ],
      "stateMutability": "view",
      "type": "function"
    },
    {
      "inputs": [
        {
          "internalType": "string",
          "name": "artistId",
          "type": "string"
        }
      ],
      "name": "getPendingFunds",
      "outputs": [
        {
          "internalType": "uint256",
          "name": "",
          "type": "uint256"
        }
      ],
      "stateMutability": "view",
      "type": "function"
    },
    {
      "inputs": [
        {
          "internalType": "string",
          "name": "",
          "type": "string"
        },
        {
          "internalType": "string",
          "name": "",
          "type": "string"
        }
      ],
      "name": "grantApplications",
      "outputs": [
        {
          "internalType": "bool",
          "name": "",
          "type": "bool"
        }
      ],
      "stateMutability": "view",
      "type": "function"
    },
    {
      "inputs": [
        {
          "internalType": "string",
          "name": "",
          "type": "string"
        }
      ],
      "name": "grants",
      "outputs": [
        {
          "internalType": "string",
          "name": "id",
          "type": "string"
        },
        {
          "internalType": "string",
          "name": "title",
          "type": "string"
        },
        {
          "internalType": "uint256",
          "name": "amount",
          "type": "uint256"
        },
        {
          "internalType": "address",
          "name": "funder",
          "type": "address"
        },
        {
          "internalType": "bool",
          "name": "active",
          "type": "bool"
        }
      ],
      "stateMutability": "view",
      "type": "function"
    },
    {
      "inputs": [],
      "name": "owner",
      "outputs": [
        {
          "internalType": "address",
          "name": "",
          "type": "address"
        }
      ],
      "stateMutability": "view",
      "type": "function"
    },
    {
      "inputs": [
        {
          "internalType": "string",
          "name": "",
          "type": "string"
        }
      ],
      "name": "pendingFunds",
      "outputs": [
        {
          "internalType": "uint256",
          "name": "",
          "type": "uint256"
        }
      ],
      "stateMutability": "view",
      "type": "function"
    },
    {
      "inputs": [
        {
          "internalType": "string",
          "name": "artistId",
          "type": "string"
        },
        {
          "internalType": "address",
          "name": "wallet",
          "type": "address"
        }
      ],
      "name": "registerArtist",
      "outputs": [],
      "stateMutability": "nonpayable",
      "type": "function"
    },
    {
      "inputs": [],
      "name": "renounceOwnership",
      "outputs": [],
      "stateMutability": "nonpayable",
      "type": "function"
    },
    {
      "inputs": [
        {
          "internalType": "address",
          "name": "newOwner",
          "type": "address"
        }
      ],
      "name": "transferOwnership",
      "outputs": [],
      "stateMutability": "nonpayable",
      "type": "function"
    },
    {
      "stateMutability": "payable",
      "type": "receive"
    }
  ],
  "bytecode": "0x608060405234801561001057600080fd5b5061001a33610023565b60018055610073565b600080546001600160a01b038381166001600160a01b0319831681178455604051919092169283917f8be0079c531659141344cd1fd0a4f28419497f9722a3daafe3b4186f6b6457e09190a35050565b6117f5806100826000396000f3fe6080604052600436106100e15760003560e01c80638da5cb5b1161007f578063b2b37d3c11610059578063b2b37d3c146102c5578063c8f79e7a146102e5578063dac343b2146102f8578063f2fde38b1461033057600080fd5b80638da5cb5b14610242578063a0f320c51461026a578063a2498ab31461029857600080fd5b80634b531c05116100bb5780634b531c05146101b15780635755b9bc146101de5780636b9b94ac146101fe578063715018a61461022d57600080fd5b806314df98b3146100ed57806333aec12a1461010f57806335a9cfdb1461014957600080fd5b366100e857005b600080fd5b3480156100f957600080fd5b5061010d6101083660046112ef565b610350565b005b34801561011b57600080fd5b5061012f61012a366004611353565b6105c6565b6040516101409594939291906113e0565b60405180910390f35b34801561015557600080fd5b506101a16101643660046112ef565b8151602081840181018051600482529282019482019490942091909352815180830184018051928152908401929093019190912091525460ff1681565b6040519015158152602001610140565b3480156101bd57600080fd5b506101d16101cc366004611353565b61071e565b604051610140919061142e565b3480156101ea57600080fd5b5061010d6101f93660046114b8565b6108de565b34801561020a57600080fd5b5061021e610219366004611353565b610abf565b60405161014093929190611506565b34801561023957600080fd5b5061010d610b84565b34801561024e57600080fd5b506000546040516001600160a01b039091168152602001610140565b34801561027657600080fd5b5061028a610285366004611353565b610b98565b604051908152602001610140565b3480156102a457600080fd5b506102b86102b3366004611353565b610bc0565b6040516101409190611539565b3480156102d157600080fd5b5061010d6102e0366004611353565b610cc2565b61010d6102f3366004611582565b610ed4565b34801561030457600080fd5b5061028a610313366004611353565b805160208183018101805160058252928201919093012091525481565b34801561033c57600080fd5b5061010d61034b3660046115ef565b6110d3565b610358611149565b6003826040516103689190611611565b9081526040519081900360200190206003015460ff600160a01b909104166103ca5760405162461bcd60e51b815260206004820152601060248201526f4772616e74206e6f742061637469766560801b60448201526064015b60405180910390fd5b6002816040516103da9190611611565b9081526040519081900360200190206001015460ff600160a01b9091041661043a5760405162461bcd60e51b8152602060048201526013602482015272105c9d1a5cdd081b9bdd081d995c9a599a5959606a1b60448201526064016103c1565b60048260405161044a9190611611565b9081526020016040518091039020816040516104669190611611565b9081526040519081900360200190205460ff16156104b85760405162461bcd60e51b815260206004820152600f60248201526e105b1c9958591e48185dd85c991959608a1b60448201526064016103c1565b60006003836040516104ca9190611611565b9081526020016040518091039020905060016004846040516104ec9190611611565b9081526020016040518091039020836040516105089190611611565b908152604051908190036020018120805492151560ff199093169290921790915560028201549060059061053d908590611611565b9081526020016040518091039020600082825461055a919061162d565b909155505060405161056d908390611611565b6040518091039020836040516105839190611611565b60405190819003812060028401548252907f68a9a147328b8386f7335122943cb30c598015c517b72dc5d1c04604a062c10d9060200160405180910390a3505050565b80516020818301810180516003825292820191909301209152805481906105ec90611654565b80601f016020809104026020016040519081016040528092919081815260200182805461061890611654565b80156106655780601f1061063a57610100808354040283529160200191610665565b820191906000526020600020905b81548152906001019060200180831161064857829003601f168201915b50505050509080600101805461067a90611654565b80601f01602080910402602001604051908101604052809291908181526020018280546106a690611654565b80156106f35780601f106106c8576101008083540402835291602001916106f3565b820191906000526020600020905b8154815290600101906020018083116106d657829003601f168201915b5050505060028301546003909301549192916001600160a01b0381169150600160a01b900460ff1685565b61075b6040518060a0016040528060608152602001606081526020016000815260200160006001600160a01b031681526020016000151581525090565b60038260405161076b9190611611565b90815260200160405180910390206040518060a001604052908160008201805461079490611654565b80601f01602080910402602001604051908101604052809291908181526020018280546107c090611654565b801561080d5780601f106107e25761010080835404028352916020019161080d565b820191906000526020600020905b8154815290600101906020018083116107f057829003601f168201915b5050505050815260200160018201805461082690611654565b80601f016020809104026020016040519081016040528092919081815260200182805461085290611654565b801561089f5780601f106108745761010080835404028352916020019161089f565b820191906000526020600020905b81548152906001019060200180831161088257829003601f168201915b5050509183525050600282015460208201526003909101546001600160a01b0381166040830152600160a01b900460ff16151560609091015292915050565b6108e6611149565b6001600160a01b0381166109355760405162461bcd60e51b8152602060048201526016602482015275496e76616c69642077616c6c6574206164647265737360501b60448201526064016103c1565b600082511161097a5760405162461bcd60e51b8152602060048201526011602482015270125b9d985b1a5908185c9d1a5cdd081251607a1b60448201526064016103c1565b60028260405161098a9190611611565b9081526040519081900360200190206001015460ff600160a01b90910416156109f55760405162461bcd60e51b815260206004820152601960248201527f41727469737420616c726561647920726567697374657265640000000000000060448201526064016103c1565b604080516060810182528381526001600160a01b03831660208201526001818301529051600290610a27908590611611565b90815260405190819003602001902081518190610a4490826116dd565b506020820151600190910180546040938401511515600160a01b026001600160a81b03199091166001600160a01b0393841617179055905190821690610a8b908490611611565b604051908190038120907f3d29da7fef11a3d9e7980c76d39c19e6bd3c33cf9f32c9569f856267bbdeedfd90600090a35050565b8051602081830181018051600282529282019190930120915280548190610ae590611654565b80601f0160208091040260200160405190810160405280929190818152602001828054610b1190611654565b8015610b5e5780601f10610b3357610100808354040283529160200191610b5e565b820191906000526020600020905b815481529060010190602001808311610b4157829003601f168201915b505050600190930154919250506001600160a01b0381169060ff600160a01b9091041683565b610b8c611149565b610b9660006111a3565b565b6000600582604051610baa9190611611565b9081526020016040518091039020549050919050565b60408051606080820183528152600060208201819052818301529051600290610bea908490611611565b9081526020016040518091039020604051806060016040529081600082018054610c1390611654565b80601f0160208091040260200160405190810160405280929190818152602001828054610c3f90611654565b8015610c8c5780601f10610c6157610100808354040283529160200191610c8c565b820191906000526020600020905b815481529060010190602001808311610c6f57829003601f168201915b5050509183525050600191909101546001600160a01b0381166020830152600160a01b900460ff16151560409091015292915050565b610cca6111f3565b6000600282604051610cdc9190611611565b908152604051908190036020019020600181015490915060ff600160a01b90910416610d405760405162461bcd60e51b8152602060048201526013602482015272105c9d1a5cdd081b9bdd081d995c9a599a5959606a1b60448201526064016103c1565b6000600583604051610d529190611611565b908152602001604051809103902054905060008111610dac5760405162461bcd60e51b81526020600482015260166024820152754e6f2066756e647320746f206469737472696275746560501b60448201526064016103c1565b6000600584604051610dbe9190611611565b9081526040519081900360200181209190915560018301546000916001600160a01b0390911690839060006040518083038185875af1925050503d8060008114610e24576040519150601f19603f3d011682016040523d82523d6000602084013e610e29565b606091505b5050905080610e6c5760405162461bcd60e51b815260206004820152600f60248201526e151c985b9cd9995c8819985a5b1959608a1b60448201526064016103c1565b60018301546040516001600160a01b0390911690610e8b908690611611565b604051908190038120848252907f054d53368c7f57909410721809acf5632411d3c372442c62b3f30ebfe5405c659060200160405180910390a3505050610ed160018055565b50565b803414610f1b5760405162461bcd60e51b8152602060048201526015602482015274125b98dbdc9c9958dd08199d5b9908185b5bdd5b9d605a1b60448201526064016103c1565b6000835111610f5f5760405162461bcd60e51b815260206004820152601060248201526f125b9d985b1a590819dc985b9d08125160821b60448201526064016103c1565b600383604051610f6f9190611611565b9081526040519081900360200190206003015460ff600160a01b9091041615610fd15760405162461bcd60e51b81526020600482015260146024820152734772616e7420616c72656164792065786973747360601b60448201526064016103c1565b6040805160a08101825284815260208101849052808201839052336060820152600160808201529051600390611008908690611611565b9081526040519081900360200190208151819061102590826116dd565b506020820151600182019061103a90826116dd565b5060408281015160028301556060830151600390920180546080909401511515600160a01b026001600160a81b03199094166001600160a01b03909316929092179290921790555161108d908490611611565b60405180910390207f70a5093558db26a78bec3bdd867fd0e08a00f34272282654c4a483e02f494fa283836040516110c692919061179d565b60405180910390a2505050565b6110db611149565b6001600160a01b0381166111405760405162461bcd60e51b815260206004820152602660248201527f4f776e61626c653a206e6577206f776e657220697320746865207a65726f206160448201526564647265737360d01b60648201526084016103c1565b610ed1816111a3565b6000546001600160a01b03163314610b965760405162461bcd60e51b815260206004820181905260248201527f4f776e61626c653a2063616c6c6572206973206e6f7420746865206f776e657260448201526064016103c1565b600080546001600160a01b038381166001600160a01b0319831681178455604051919092169283917f8be0079c531659141344cd1fd0a4f28419497f9722a3daafe3b4186f6b6457e09190a35050565b6002600154036112455760405162461bcd60e51b815260206004820152601f60248201527f5265656e7472616e637947756172643a207265656e7472616e742063616c6c0060448201526064016103c1565b6002600155565b634e487b7160e01b600052604160045260246000fd5b600082601f83011261127357600080fd5b813567ffffffffffffffff8082111561128e5761128e61124c565b604051601f8301601f19908116603f011681019082821181831017156112b6576112b661124c565b816040528381528660208588010111156112cf57600080fd5b836020870160208301376000602085830101528094505050505092915050565b6000806040838503121561130257600080fd5b823567ffffffffffffffff8082111561131a57600080fd5b61132686838701611262565b9350602085013591508082111561133c57600080fd5b5061134985828601611262565b9150509250929050565b60006020828403121561136557600080fd5b813567ffffffffffffffff81111561137c57600080fd5b61138884828501611262565b949350505050565b60005b838110156113ab578181015183820152602001611393565b50506000910152565b600081518084526113cc816020860160208601611390565b601f01601f19169290920160200192915050565b60a0815260006113f360a08301886113b4565b828103602084015261140581886113b4565b604084019690965250506001600160a01b03929092166060830152151560809091015292915050565b602081526000825160a0602084015261144a60c08401826113b4565b90506020840151601f1984830301604085015261146782826113b4565b9150506040840151606084015260018060a01b0360608501511660808401526080840151151560a08401528091505092915050565b80356001600160a01b03811681146114b357600080fd5b919050565b600080604083850312156114cb57600080fd5b823567ffffffffffffffff8111156114e257600080fd5b6114ee85828601611262565b9250506114fd6020840161149c565b90509250929050565b60608152600061151960608301866113b4565b6001600160a01b0394909416602083015250901515604090910152919050565b60208152600082516060602084015261155560808401826113b4565b60208501516001600160a01b03166040858101919091529094015115156060909301929092525090919050565b60008060006060848603121561159757600080fd5b833567ffffffffffffffff808211156115af57600080fd5b6115bb87838801611262565b945060208601359150808211156115d157600080fd5b506115de86828701611262565b925050604084013590509250925092565b60006020828403121561160157600080fd5b61160a8261149c565b9392505050565b60008251611623818460208701611390565b9190910192915050565b8082018082111561164e57634e487b7160e01b600052601160045260246000fd5b92915050565b600181811c9082168061166857607f821691505b60208210810361168857634e487b7160e01b600052602260045260246000fd5b50919050565b601f8211156116d857600081815260208120601f850160051c810160208610156116b55750805b601f850160051c820191505b818110156116d4578281556001016116c1565b5050505b505050565b815167ffffffffffffffff8111156116f7576116f761124c565b61170b816117058454611654565b8461168e565b602080601f83116001811461174057600084156117285750858301515b600019600386901b1c1916600185901b1785556116d4565b600085815260208120601f198616915b8281101561176f57888601518255948401946001909101908401611750565b508582101561178d5787850151600019600388901b60f8161c191681555b5050505050600190811b01905550565b6040815260006117b060408301856113b4565b9050826020830152939250505056fea26469706673582212208999c8c4229d33c41278dae840becc9bc7ba2390ea7f5380e451f76e0a96823e64736f6c63430008110033",
  "linkReferences": {},
  "deployedLinkReferences": {}
}