{
  "_format": "hh-sol-artifact-1",
  "contractName": "ArtistFundManager",
  "sourceName": "src/contracts/base/ArtistFundManager.sol",
  "abi": [
    {
      "inputs": [],
      "stateMutability": "nonpayable",
      "type": "constructor"
    },
    {
      "anonymous": false,
      "inputs": [
        {
          "indexed": true,
          "internalType": "string",
          "name": "artistId",
          "type": "string"
        },
        {
          "indexed": true,
          "internalType": "address",
          "name": "wallet",
          "type": "address"
        },
        {
          "indexed": false,
          "internalType": "address",
          "name": "optimismAddress",
          "type": "address"
        }
      ],
      "name": "ArtistRegistered",
      "type": "event"
    },
    {
      "anonymous": false,
      "inputs": [
        {
          "indexed": true,
          "internalType": "uint256",
          "name": "txId",
          "type": "uint256"
        },
        {
          "indexed": true,
          "internalType": "string",
          "name": "artistId",
          "type": "string"
        },
        {
          "indexed": false,
          "internalType": "uint256",
          "name": "amount",
          "type": "uint256"
        },
        {
          "indexed": false,
          "internalType": "string",
          "name": "targetChain",
          "type": "string"
        },
        {
          "indexed": false,
          "internalType": "address",
          "name": "targetAddress",
          "type": "address"
        }
      ],
      "name": "CrossChainTransactionInitiated",
      "type": "event"
    },
    {
      "anonymous": false,
      "inputs": [
        {
          "indexed": true,
          "internalType": "uint256",
          "name": "txId",
          "type": "uint256"
        },
        {
          "indexed": false,
          "internalType": "string",
          "name": "status",
          "type": "string"
        }
      ],
      "name": "CrossChainTransactionUpdated",
      "type": "event"
    },
    {
      "anonymous": false,
      "inputs": [
        {
          "indexed": true,
          "internalType": "string",
          "name": "artistId",
          "type": "string"
        },
        {
          "indexed": true,
          "internalType": "address",
          "name": "wallet",
          "type": "address"
        },
        {
          "indexed": false,
          "internalType": "uint256",
          "name": "amount",
          "type": "uint256"
        }
      ],
      "name": "FundsDistributed",
      "type": "event"
    },
    {
      "anonymous": false,
      "inputs": [
        {
          "indexed": true,
          "internalType": "string",
          "name": "grantId",
          "type": "string"
        },
        {
          "indexed": true,
          "internalType": "string",
          "name": "artistId",
          "type": "string"
        },
        {
          "indexed": false,
          "internalType": "uint256",
          "name": "amount",
          "type": "uint256"
        }
      ],
      "name": "GrantAwarded",
      "type": "event"
    },
    {
      "anonymous": false,
      "inputs": [
        {
          "indexed": true,
          "internalType": "string",
          "name": "grantId",
          "type": "string"
        },
        {
          "indexed": false,
          "internalType": "string",
          "name": "title",
          "type": "string"
        },
        {
          "indexed": false,
          "internalType": "uint256",
          "name": "amount",
          "type": "uint256"
        }
      ],
      "name": "GrantCreated",
      "type": "event"
    },
    {
      "anonymous": false,
      "inputs": [
        {
          "indexed": true,
          "internalType": "address",
          "name": "previousOwner",
          "type": "address"
        },
        {
          "indexed": true,
          "internalType": "address",
          "name": "newOwner",
          "type": "address"
        }
      ],
      "name": "OwnershipTransferred",
      "type": "event"
    },
    {
      "inputs": [
        {
          "internalType": "string",
          "name": "",
          "type": "string"
        }
      ],
      "name": "artists",
      "outputs": [
        {
          "internalType": "string",
          "name": "id",
          "type": "string"
        },
        {
          "internalType": "address",
          "name": "wallet",
          "type": "address"
        },
        {
          "internalType": "address",
          "name": "optimismAddress",
          "type": "address"
        },
        {
          "internalType": "bool",
          "name": "verified",
          "type": "bool"
        }
      ],
      "stateMutability": "view",
      "type": "function"
    },
    {
      "inputs": [
        {
          "internalType": "string",
          "name": "grantId",
          "type": "string"
        },
        {
          "internalType": "string",
          "name": "artistId",
          "type": "string"
        }
      ],
      "name": "awardGrant",
      "outputs": [],
      "stateMutability": "nonpayable",
      "type": "function"
    },
    {
      "inputs": [
        {
          "internalType": "string",
          "name": "grantId",
          "type": "string"
        },
        {
          "internalType": "string",
          "name": "title",
          "type": "string"
        },
        {
          "internalType": "uint256",
          "name": "amount",
          "type": "uint256"
        }
      ],
      "name": "createGrant",
      "outputs": [],
      "stateMutability": "payable",
      "type": "function"
    },
    {
      "inputs": [
        {
          "internalType": "uint256",
          "name": "",
          "type": "uint256"
        }
      ],
      "name": "crossChainTransactions",
      "outputs": [
        {
          "internalType": "uint256",
          "name": "id",
          "type": "uint256"
        },
        {
          "internalType": "string",
          "name": "artistId",
          "type": "string"
        },
        {
          "internalType": "uint256",
          "name": "amount",
          "type": "uint256"
        },
        {
          "internalType": "string",
          "name": "targetChain",
          "type": "string"
        },
        {
          "internalType": "address",
          "name": "targetAddress",
          "type": "address"
        },
        {
          "internalType": "string",
          "name": "status",
          "type": "string"
        },
        {
          "internalType": "uint256",
          "name": "timestamp",
          "type": "uint256"
        }
      ],
      "stateMutability": "view",
      "type": "function"
    },
    {
      "inputs": [
        {
          "internalType": "string",
          "name": "artistId",
          "type": "string"
        }
      ],
      "name": "distributeFunds",
      "outputs": [],
      "stateMutability": "nonpayable",
      "type": "function"
    },
    {
      "inputs": [
        {
          "internalType": "string",
          "name": "artistId",
          "type": "string"
        }
      ],
      "name": "getArtist",
      "outputs": [
        {
          "components": [
            {
              "internalType": "string",
              "name": "id",
              "type": "string"
            },
            {
              "internalType": "address",
              "name": "wallet",
              "type": "address"
            },
            {
              "internalType": "address",
              "name": "optimismAddress",
              "type": "address"
            },
            {
              "internalType": "bool",
              "name": "verified",
              "type": "bool"
            }
          ],
          "internalType": "struct ArtistFundManager.Artist",
          "name": "",
          "type": "tuple"
        }
      ],
      "stateMutability": "view",
      "type": "function"
    },
    {
      "inputs": [
        {
          "internalType": "address",
          "name": "optimismAddress",
          "type": "address"
        }
      ],
      "name": "getArtistByOptimismAddress",
      "outputs": [
        {
          "components": [
            {
              "internalType": "string",
              "name": "id",
              "type": "string"
            },
            {
              "internalType": "address",
              "name": "wallet",
              "type": "address"
            },
            {
              "internalType": "address",
              "name": "optimismAddress",
              "type": "address"
            },
            {
              "internalType": "bool",
              "name": "verified",
              "type": "bool"
            }
          ],
          "internalType": "struct ArtistFundManager.Artist",
          "name": "",
          "type": "tuple"
        }
      ],
      "stateMutability": "view",
      "type": "function"
    },
    {
      "inputs": [
        {
          "internalType": "uint256",
          "name": "txId",
          "type": "uint256"
        }
      ],
      "name": "getCrossChainTransaction",
      "outputs": [
        {
          "components": [
            {
              "internalType": "uint256",
              "name": "id",
              "type": "uint256"
            },
            {
              "internalType": "string",
              "name": "artistId",
              "type": "string"
            },
            {
              "internalType": "uint256",
              "name": "amount",
              "type": "uint256"
            },
            {
              "internalType": "string",
              "name": "targetChain",
              "type": "string"
            },
            {
              "internalType": "address",
              "name": "targetAddress",
              "type": "address"
            },
            {
              "internalType": "string",
              "name": "status",
              "type": "string"
            },
            {
              "internalType": "uint256",
              "name": "timestamp",
              "type": "uint256"
            }
          ],
          "internalType": "struct ArtistFundManager.CrossChainTransaction",
          "name": "",
          "type": "tuple"
        }
      ],
      "stateMutability": "view",
      "type": "function"
    },
    {
      "inputs": [
        {
          "internalType": "string",
          "name": "grantId",
          "type": "string"
        }
      ],
      "name": "getGrant",
      "outputs": [
        {
          "components": [
            {
              "internalType": "string",
              "name": "id",
              "type": "string"
            },
            {
              "internalType": "string",
              "name": "title",
              "type": "string"
            },
            {
              "internalType": "uint256",
              "name": "amount",
              "type": "uint256"
            },
            {
              "internalType": "address",
              "name": "funder",
              "type": "address"
            },
            {
              "internalType": "bool",
              "name": "active",
              "type": "bool"
            }
          ],
          "internalType": "struct ArtistFundManager.Grant",
          "name": "",
          "type": "tuple"
        }
      ],
      "stateMutability": "view",
      "type": "function"
    },
    {
      "inputs": [
        {
          "internalType": "string",
          "name": "artistId",
          "type": "string"
        }
      ],
      "name": "getPendingFunds",
      "outputs": [
        {
          "internalType": "uint256",
          "name": "",
          "type": "uint256"
        }
      ],
      "stateMutability": "view",
      "type": "function"
    },
    {
      "inputs": [
        {
          "internalType": "string",
          "name": "",
          "type": "string"
        },
        {
          "internalType": "string",
          "name": "",
          "type": "string"
        }
      ],
      "name": "grantApplications",
      "outputs": [
        {
          "internalType": "bool",
          "name": "",
          "type": "bool"
        }
      ],
      "stateMutability": "view",
      "type": "function"
    },
    {
      "inputs": [
        {
          "internalType": "string",
          "name": "",
          "type": "string"
        }
      ],
      "name": "grants",
      "outputs": [
        {
          "internalType": "string",
          "name": "id",
          "type": "string"
        },
        {
          "internalType": "string",
          "name": "title",
          "type": "string"
        },
        {
          "internalType": "uint256",
          "name": "amount",
          "type": "uint256"
        },
        {
          "internalType": "address",
          "name": "funder",
          "type": "address"
        },
        {
          "internalType": "bool",
          "name": "active",
          "type": "bool"
        }
      ],
      "stateMutability": "view",
      "type": "function"
    },
    {
      "inputs": [
        {
          "internalType": "string",
          "name": "artistId",
          "type": "string"
        },
        {
          "internalType": "uint256",
          "name": "amount",
          "type": "uint256"
        },
        {
          "internalType": "string",
          "name": "targetChain",
          "type": "string"
        },
        {
          "internalType": "address",
          "name": "targetAddress",
          "type": "address"
        }
      ],
      "name": "initiateCrossChainTransaction",
      "outputs": [
        {
          "internalType": "uint256",
          "name": "",
          "type": "uint256"
        }
      ],
      "stateMutability": "nonpayable",
      "type": "function"
    },
    {
      "inputs": [
        {
          "internalType": "address",
          "name": "",
          "type": "address"
        }
      ],
      "name": "optimismAddressToArtistId",
      "outputs": [
        {
          "internalType": "string",
          "name": "",
          "type": "string"
        }
      ],
      "stateMutability": "view",
      "type": "function"
    },
    {
      "inputs": [],
      "name": "owner",
      "outputs": [
        {
          "internalType": "address",
          "name": "",
          "type": "address"
        }
      ],
      "stateMutability": "view",
      "type": "function"
    },
    {
      "inputs": [
        {
          "internalType": "string",
          "name": "",
          "type": "string"
        }
      ],
      "name": "pendingFunds",
      "outputs": [
        {
          "internalType": "uint256",
          "name": "",
          "type": "uint256"
        }
      ],
      "stateMutability": "view",
      "type": "function"
    },
    {
      "inputs": [
        {
          "internalType": "string",
          "name": "artistId",
          "type": "string"
        },
        {
          "internalType": "address",
          "name": "wallet",
          "type": "address"
        },
        {
          "internalType": "address",
          "name": "optimismAddress",
          "type": "address"
        }
      ],
      "name": "registerArtist",
      "outputs": [],
      "stateMutability": "nonpayable",
      "type": "function"
    },
    {
      "inputs": [
        {
          "internalType": "string",
          "name": "artistId",
          "type": "string"
        },
        {
          "internalType": "address",
          "name": "wallet",
          "type": "address"
        }
      ],
      "name": "registerArtistSimple",
      "outputs": [],
      "stateMutability": "nonpayable",
      "type": "function"
    },
    {
      "inputs": [],
      "name": "renounceOwnership",
      "outputs": [],
      "stateMutability": "nonpayable",
      "type": "function"
    },
    {
      "inputs": [
        {
          "internalType": "address",
          "name": "newOwner",
          "type": "address"
        }
      ],
      "name": "transferOwnership",
      "outputs": [],
      "stateMutability": "nonpayable",
      "type": "function"
    },
    {
      "inputs": [
        {
          "internalType": "uint256",
          "name": "txId",
          "type": "uint256"
        },
        {
          "internalType": "string",
          "name": "status",
          "type": "string"
        }
      ],
      "name": "updateCrossChainTransactionStatus",
      "outputs": [],
      "stateMutability": "nonpayable",
      "type": "function"
    },
    {
      "stateMutability": "payable",
      "type": "receive"
    }
  ],
  "bytecode": "0x608060405234801561001057600080fd5b5061001a33610023565b60018055610073565b600080546001600160a01b038381166001600160a01b0319831681178455604051919092169283917f8be0079c531659141344cd1fd0a4f28419497f9722a3daafe3b4186f6b6457e09190a35050565b6129e5806100826000396000f3fe60806040526004361061012d5760003560e01c806397823c17116100ab578063c8f79e7a1161006f578063c8f79e7a146103d2578063d0daaf3d146103e5578063da1800c314610405578063dac343b214610425578063ed7d7e4f1461045d578063f2fde38b1461048a57600080fd5b806397823c171461031757806398bf375214610344578063a0f320c514610372578063a2498ab314610392578063b2b37d3c146103b257600080fd5b80634b531c05116100f25780634b531c05146102505780636985629f1461027d5780636b9b94ac146102aa578063715018a6146102da5780638da5cb5b146102ef57600080fd5b8062e9bc541461013957806314df98b31461015b57806333aec12a1461017b57806335a9cfdb146101b55780633f6017ac1461021d57600080fd5b3661013457005b600080fd5b34801561014557600080fd5b5061015961015436600461222c565b6104aa565b005b34801561016757600080fd5b5061015961017636600461228a565b6106fe565b34801561018757600080fd5b5061019b6101963660046122ee565b610941565b6040516101ac959493929190612373565b60405180910390f35b3480156101c157600080fd5b5061020d6101d036600461228a565b8151602081840181018051600482529282019482019490942091909352815180830184018051928152908401929093019190912091525460ff1681565b60405190151581526020016101ac565b34801561022957600080fd5b5061023d6102383660046123c1565b610a99565b6040516101ac97969594939291906123da565b34801561025c57600080fd5b5061027061026b3660046122ee565b610c7b565b6040516101ac9190612443565b34801561028957600080fd5b5061029d6102983660046124b1565b610e3b565b6040516101ac91906124d3565b3480156102b657600080fd5b506102ca6102c53660046122ee565b61103d565b6040516101ac949392919061252b565b3480156102e657600080fd5b5061015961110b565b3480156102fb57600080fd5b506000546040516001600160a01b0390911681526020016101ac565b34801561032357600080fd5b506103376103323660046123c1565b61111f565b6040516101ac9190612566565b34801561035057600080fd5b5061036461035f3660046125ff565b6113d5565b6040519081526020016101ac565b34801561037e57600080fd5b5061036461038d3660046122ee565b61162b565b34801561039e57600080fd5b5061029d6103ad3660046122ee565b611653565b3480156103be57600080fd5b506101596103cd3660046122ee565b61176b565b6101596103e036600461267d565b611957565b3480156103f157600080fd5b506101596104003660046126ea565b611b56565b34801561041157600080fd5b50610159610420366004612727565b611d46565b34801561043157600080fd5b506103646104403660046122ee565b805160208183018101805160058252928201919093012091525481565b34801561046957600080fd5b5061047d6104783660046124b1565b611f5a565b6040516101ac9190612775565b34801561049657600080fd5b506101596104a53660046124b1565b611ff4565b6104b261206a565b6001600160a01b0382166105065760405162461bcd60e51b8152602060048201526016602482015275496e76616c69642077616c6c6574206164647265737360501b60448201526064015b60405180910390fd5b600083511161054b5760405162461bcd60e51b8152602060048201526011602482015270125b9d985b1a5908185c9d1a5cdd081251607a1b60448201526064016104fd565b60028360405161055b9190612788565b9081526040519081900360200190206002015460ff600160a01b90910416156105c25760405162461bcd60e51b8152602060048201526019602482015278105c9d1a5cdd08185b1c9958591e481c9959da5cdd195c9959603a1b60448201526064016104fd565b604080516080810182528481526001600160a01b0380851660208301528316818301526001606082015290516002906105fc908690612788565b90815260405190819003602001902081518190610619908261282d565b5060208201516001820180546001600160a01b039283166001600160a01b03199091161790556040830151600290920180546060909401511515600160a01b026001600160a81b03199094169282169290921792909217905581161561069d576001600160a01b038116600090815260076020526040902061069b848261282d565b505b816001600160a01b0316836040516106b59190612788565b6040519081900381206001600160a01b0384168252907f94e68bbf4dde11c6eb6880dc2d974331b56348988426553e1480bedce9fb6004906020015b60405180910390a3505050565b61070661206a565b6003826040516107169190612788565b9081526040519081900360200190206003015460ff600160a01b909104166107735760405162461bcd60e51b815260206004820152601060248201526f4772616e74206e6f742061637469766560801b60448201526064016104fd565b6002816040516107839190612788565b9081526040519081900360200190206002015460ff600160a01b909104166107bd5760405162461bcd60e51b81526004016104fd906128ed565b6004826040516107cd9190612788565b9081526020016040518091039020816040516107e99190612788565b9081526040519081900360200190205460ff161561083b5760405162461bcd60e51b815260206004820152600f60248201526e105b1c9958591e48185dd85c991959608a1b60448201526064016104fd565b600060038360405161084d9190612788565b90815260200160405180910390209050600160048460405161086f9190612788565b90815260200160405180910390208360405161088b9190612788565b908152604051908190036020018120805492151560ff19909316929092179091556002820154906005906108c0908590612788565b908152602001604051809103902060008282546108dd9190612930565b90915550506040516108f0908390612788565b6040518091039020836040516109069190612788565b60405190819003812060028401548252907f68a9a147328b8386f7335122943cb30c598015c517b72dc5d1c04604a062c10d906020016106f1565b8051602081830181018051600382529282019190930120915280548190610967906127a4565b80601f0160208091040260200160405190810160405280929190818152602001828054610993906127a4565b80156109e05780601f106109b5576101008083540402835291602001916109e0565b820191906000526020600020905b8154815290600101906020018083116109c357829003601f168201915b5050505050908060010180546109f5906127a4565b80601f0160208091040260200160405190810160405280929190818152602001828054610a21906127a4565b8015610a6e5780601f10610a4357610100808354040283529160200191610a6e565b820191906000526020600020905b815481529060010190602001808311610a5157829003601f168201915b5050505060028301546003909301549192916001600160a01b0381169150600160a01b900460ff1685565b60066020526000908152604090208054600182018054919291610abb906127a4565b80601f0160208091040260200160405190810160405280929190818152602001828054610ae7906127a4565b8015610b345780601f10610b0957610100808354040283529160200191610b34565b820191906000526020600020905b815481529060010190602001808311610b1757829003601f168201915b505050505090806002015490806003018054610b4f906127a4565b80601f0160208091040260200160405190810160405280929190818152602001828054610b7b906127a4565b8015610bc85780601f10610b9d57610100808354040283529160200191610bc8565b820191906000526020600020905b815481529060010190602001808311610bab57829003601f168201915b505050600484015460058501805494956001600160a01b03909216949193509150610bf2906127a4565b80601f0160208091040260200160405190810160405280929190818152602001828054610c1e906127a4565b8015610c6b5780601f10610c4057610100808354040283529160200191610c6b565b820191906000526020600020905b815481529060010190602001808311610c4e57829003601f168201915b5050505050908060060154905087565b610cb86040518060a0016040528060608152602001606081526020016000815260200160006001600160a01b031681526020016000151581525090565b600382604051610cc89190612788565b90815260200160405180910390206040518060a0016040529081600082018054610cf1906127a4565b80601f0160208091040260200160405190810160405280929190818152602001828054610d1d906127a4565b8015610d6a5780601f10610d3f57610100808354040283529160200191610d6a565b820191906000526020600020905b815481529060010190602001808311610d4d57829003601f168201915b50505050508152602001600182018054610d83906127a4565b80601f0160208091040260200160405190810160405280929190818152602001828054610daf906127a4565b8015610dfc5780601f10610dd157610100808354040283529160200191610dfc565b820191906000526020600020905b815481529060010190602001808311610ddf57829003601f168201915b5050509183525050600282015460208201526003909101546001600160a01b0381166040830152600160a01b900460ff16151560609091015292915050565b6040805160808101825260608082526000602083018190529282018390528101919091526001600160a01b03821660009081526007602052604081208054610e82906127a4565b80601f0160208091040260200160405190810160405280929190818152602001828054610eae906127a4565b8015610efb5780601f10610ed057610100808354040283529160200191610efb565b820191906000526020600020905b815481529060010190602001808311610ede57829003601f168201915b505050505090506000815111610f465760405162461bcd60e51b815260206004820152601060248201526f105c9d1a5cdd081b9bdd08199bdd5b9960821b60448201526064016104fd565b600281604051610f569190612788565b9081526020016040518091039020604051806080016040529081600082018054610f7f906127a4565b80601f0160208091040260200160405190810160405280929190818152602001828054610fab906127a4565b8015610ff85780601f10610fcd57610100808354040283529160200191610ff8565b820191906000526020600020905b815481529060010190602001808311610fdb57829003601f168201915b505050918352505060018201546001600160a01b0390811660208301526002909201549182166040820152600160a01b90910460ff1615156060909101529392505050565b8051602081830181018051600282529282019190930120915280548190611063906127a4565b80601f016020809104026020016040519081016040528092919081815260200182805461108f906127a4565b80156110dc5780601f106110b1576101008083540402835291602001916110dc565b820191906000526020600020905b8154815290600101906020018083116110bf57829003601f168201915b50505050600183015460029093015491926001600160a01b03908116929081169150600160a01b900460ff1684565b61111361206a565b61111d60006120c4565b565b6111686040518060e001604052806000815260200160608152602001600081526020016060815260200160006001600160a01b0316815260200160608152602001600081525090565b60008281526006602052604090205482146111c55760405162461bcd60e51b815260206004820152601a60248201527f5472616e73616374696f6e20646f6573206e6f7420657869737400000000000060448201526064016104fd565b600660008381526020019081526020016000206040518060e0016040529081600082015481526020016001820180546111fd906127a4565b80601f0160208091040260200160405190810160405280929190818152602001828054611229906127a4565b80156112765780601f1061124b57610100808354040283529160200191611276565b820191906000526020600020905b81548152906001019060200180831161125957829003601f168201915b5050505050815260200160028201548152602001600382018054611299906127a4565b80601f01602080910402602001604051908101604052809291908181526020018280546112c5906127a4565b80156113125780601f106112e757610100808354040283529160200191611312565b820191906000526020600020905b8154815290600101906020018083116112f557829003601f168201915b505050918352505060048201546001600160a01b03166020820152600582018054604090920191611342906127a4565b80601f016020809104026020016040519081016040528092919081815260200182805461136e906127a4565b80156113bb5780601f10611390576101008083540402835291602001916113bb565b820191906000526020600020905b81548152906001019060200180831161139e57829003601f168201915b505050505081526020016006820154815250509050919050565b60006113df61206a565b6113e7612114565b60006002866040516113f99190612788565b908152604051908190036020019020600281015490915060ff600160a01b909104166114375760405162461bcd60e51b81526004016104fd906128ed565b846005876040516114489190612788565b908152602001604051809103902054101561149a5760405162461bcd60e51b8152602060048201526012602482015271496e73756666696369656e742066756e647360701b60448201526064016104fd565b846005876040516114ab9190612788565b908152602001604051809103902060008282546114c89190612949565b909155505060088054600101905560006114e160085490565b6040805160e08101825282815260208082018b81528284018b9052606083018a90526001600160a01b038916608084015283518085018552600781526670656e64696e6760c81b8184015260a08401524260c08401526000858152600690925292902081518155915192935091600182019061155d908261282d565b50604082015160028201556060820151600382019061157c908261282d565b5060808201516004820180546001600160a01b0319166001600160a01b0390921691909117905560a082015160058201906115b7908261282d565b5060c08201518160060155905050866040516115d39190612788565b6040518091039020817ff6808f653ef7d46db0570134abf7ae3f5d04ba40c49bbc5de2b2f841bee9274188888860405161160f9392919061295c565b60405180910390a391505061162360018055565b949350505050565b600060058260405161163d9190612788565b9081526020016040518091039020549050919050565b604080516080810182526060808252600060208301819052828401819052908201529051600290611685908490612788565b90815260200160405180910390206040518060800160405290816000820180546116ae906127a4565b80601f01602080910402602001604051908101604052809291908181526020018280546116da906127a4565b80156117275780601f106116fc57610100808354040283529160200191611727565b820191906000526020600020905b81548152906001019060200180831161170a57829003601f168201915b505050918352505060018201546001600160a01b0390811660208301526002909201549182166040820152600160a01b90910460ff16151560609091015292915050565b611773612114565b60006002826040516117859190612788565b908152604051908190036020019020600281015490915060ff600160a01b909104166117c35760405162461bcd60e51b81526004016104fd906128ed565b60006005836040516117d59190612788565b90815260200160405180910390205490506000811161182f5760405162461bcd60e51b81526020600482015260166024820152754e6f2066756e647320746f206469737472696275746560501b60448201526064016104fd565b60006005846040516118419190612788565b9081526040519081900360200181209190915560018301546000916001600160a01b0390911690839060006040518083038185875af1925050503d80600081146118a7576040519150601f19603f3d011682016040523d82523d6000602084013e6118ac565b606091505b50509050806118ef5760405162461bcd60e51b815260206004820152600f60248201526e151c985b9cd9995c8819985a5b1959608a1b60448201526064016104fd565b60018301546040516001600160a01b039091169061190e908690612788565b604051908190038120848252907f054d53368c7f57909410721809acf5632411d3c372442c62b3f30ebfe5405c659060200160405180910390a350505061195460018055565b50565b80341461199e5760405162461bcd60e51b8152602060048201526015602482015274125b98dbdc9c9958dd08199d5b9908185b5bdd5b9d605a1b60448201526064016104fd565b60008351116119e25760405162461bcd60e51b815260206004820152601060248201526f125b9d985b1a590819dc985b9d08125160821b60448201526064016104fd565b6003836040516119f29190612788565b9081526040519081900360200190206003015460ff600160a01b9091041615611a545760405162461bcd60e51b81526020600482015260146024820152734772616e7420616c72656164792065786973747360601b60448201526064016104fd565b6040805160a08101825284815260208101849052808201839052336060820152600160808201529051600390611a8b908690612788565b90815260405190819003602001902081518190611aa8908261282d565b5060208201516001820190611abd908261282d565b5060408281015160028301556060830151600390920180546080909401511515600160a01b026001600160a81b03199094166001600160a01b039093169290921792909217905551611b10908490612788565b60405180910390207f70a5093558db26a78bec3bdd867fd0e08a00f34272282654c4a483e02f494fa28383604051611b4992919061298d565b60405180910390a2505050565b611b5e61206a565b6000828152600660205260409020548214611bbb5760405162461bcd60e51b815260206004820152601a60248201527f5472616e73616374696f6e20646f6573206e6f7420657869737400000000000060448201526064016104fd565b6000828152600660205260409020600501611bd6828261282d565b50817f7df5c9d82741868217808cba3b4a79e7dd0936e5588c736f24adcd4802e9795982604051611c079190612775565b60405180910390a260408051808201909152600681526519985a5b195960d21b6020918201528151908201207f70bb2974e5d9e962cfbadd05d06a556c7267edf29d72e24a8d9edf357b1ac4bd01611d425760008281526006602052604081206001018054611c75906127a4565b80601f0160208091040260200160405190810160405280929190818152602001828054611ca1906127a4565b8015611cee5780601f10611cc357610100808354040283529160200191611cee565b820191906000526020600020905b815481529060010190602001808311611cd157829003601f168201915b505050600086815260066020526040908190206002015490519394509283925060059150611d1d908590612788565b90815260200160405180910390206000828254611d3a9190612930565b909155505050505b5050565b611d4e61206a565b6001600160a01b038116611d9d5760405162461bcd60e51b8152602060048201526016602482015275496e76616c69642077616c6c6574206164647265737360501b60448201526064016104fd565b6000825111611de25760405162461bcd60e51b8152602060048201526011602482015270125b9d985b1a5908185c9d1a5cdd081251607a1b60448201526064016104fd565b600282604051611df29190612788565b9081526040519081900360200190206002015460ff600160a01b9091041615611e595760405162461bcd60e51b8152602060048201526019602482015278105c9d1a5cdd08185b1c9958591e481c9959da5cdd195c9959603a1b60448201526064016104fd565b604080516080810182528381526001600160a01b0383166020820152600081830152600160608201529051600290611e92908590612788565b90815260405190819003602001902081518190611eaf908261282d565b5060208201516001820180546001600160a01b039283166001600160a01b0319909116179055604080840151600290930180546060909501511515600160a01b026001600160a81b03199095169383169390931793909317909155905190821690611f1b908490612788565b60405190819003812060008252907f94e68bbf4dde11c6eb6880dc2d974331b56348988426553e1480bedce9fb60049060200160405180910390a35050565b60076020526000908152604090208054611f73906127a4565b80601f0160208091040260200160405190810160405280929190818152602001828054611f9f906127a4565b8015611fec5780601f10611fc157610100808354040283529160200191611fec565b820191906000526020600020905b815481529060010190602001808311611fcf57829003601f168201915b505050505081565b611ffc61206a565b6001600160a01b0381166120615760405162461bcd60e51b815260206004820152602660248201527f4f776e61626c653a206e6577206f776e657220697320746865207a65726f206160448201526564647265737360d01b60648201526084016104fd565b611954816120c4565b6000546001600160a01b0316331461111d5760405162461bcd60e51b815260206004820181905260248201527f4f776e61626c653a2063616c6c6572206973206e6f7420746865206f776e657260448201526064016104fd565b600080546001600160a01b038381166001600160a01b0319831681178455604051919092169283917f8be0079c531659141344cd1fd0a4f28419497f9722a3daafe3b4186f6b6457e09190a35050565b6002600154036121665760405162461bcd60e51b815260206004820152601f60248201527f5265656e7472616e637947756172643a207265656e7472616e742063616c6c0060448201526064016104fd565b6002600155565b634e487b7160e01b600052604160045260246000fd5b600082601f83011261219457600080fd5b813567ffffffffffffffff808211156121af576121af61216d565b604051601f8301601f19908116603f011681019082821181831017156121d7576121d761216d565b816040528381528660208588010111156121f057600080fd5b836020870160208301376000602085830101528094505050505092915050565b80356001600160a01b038116811461222757600080fd5b919050565b60008060006060848603121561224157600080fd5b833567ffffffffffffffff81111561225857600080fd5b61226486828701612183565b93505061227360208501612210565b915061228160408501612210565b90509250925092565b6000806040838503121561229d57600080fd5b823567ffffffffffffffff808211156122b557600080fd5b6122c186838701612183565b935060208501359150808211156122d757600080fd5b506122e485828601612183565b9150509250929050565b60006020828403121561230057600080fd5b813567ffffffffffffffff81111561231757600080fd5b61162384828501612183565b60005b8381101561233e578181015183820152602001612326565b50506000910152565b6000815180845261235f816020860160208601612323565b601f01601f19169290920160200192915050565b60a08152600061238660a0830188612347565b82810360208401526123988188612347565b604084019690965250506001600160a01b03929092166060830152151560809091015292915050565b6000602082840312156123d357600080fd5b5035919050565b87815260e0602082015260006123f360e0830189612347565b876040840152828103606084015261240b8188612347565b6001600160a01b038716608085015283810360a0850152905061242e8186612347565b9150508260c083015298975050505050505050565b602081526000825160a0602084015261245f60c0840182612347565b90506020840151601f1984830301604085015261247c8282612347565b9150506040840151606084015260018060a01b0360608501511660808401526080840151151560a08401528091505092915050565b6000602082840312156124c357600080fd5b6124cc82612210565b9392505050565b6020815260008251608060208401526124ef60a0840182612347565b60208501516001600160a01b03908116604086810191909152860151166060808601919091529094015115156080909301929092525090919050565b60808152600061253e6080830187612347565b6001600160a01b03958616602084015293909416604082015290151560609091015292915050565b60208152815160208201526000602083015160e0604084015261258d610100840182612347565b9050604084015160608401526060840151601f19808584030160808601526125b58383612347565b60808701516001600160a01b031660a08781019190915287015186820390920160c0870152925090506125e88282612347565b91505060c084015160e08401528091505092915050565b6000806000806080858703121561261557600080fd5b843567ffffffffffffffff8082111561262d57600080fd5b61263988838901612183565b955060208701359450604087013591508082111561265657600080fd5b5061266387828801612183565b92505061267260608601612210565b905092959194509250565b60008060006060848603121561269257600080fd5b833567ffffffffffffffff808211156126aa57600080fd5b6126b687838801612183565b945060208601359150808211156126cc57600080fd5b506126d986828701612183565b925050604084013590509250925092565b600080604083850312156126fd57600080fd5b82359150602083013567ffffffffffffffff81111561271b57600080fd5b6122e485828601612183565b6000806040838503121561273a57600080fd5b823567ffffffffffffffff81111561275157600080fd5b61275d85828601612183565b92505061276c60208401612210565b90509250929050565b6020815260006124cc6020830184612347565b6000825161279a818460208701612323565b9190910192915050565b600181811c908216806127b857607f821691505b6020821081036127d857634e487b7160e01b600052602260045260246000fd5b50919050565b601f82111561282857600081815260208120601f850160051c810160208610156128055750805b601f850160051c820191505b8181101561282457828155600101612811565b5050505b505050565b815167ffffffffffffffff8111156128475761284761216d565b61285b8161285584546127a4565b846127de565b602080601f83116001811461289057600084156128785750858301515b600019600386901b1c1916600185901b178555612824565b600085815260208120601f198616915b828110156128bf578886015182559484019460019091019084016128a0565b50858210156128dd5787850151600019600388901b60f8161c191681555b5050505050600190811b01905550565b602080825260139082015272105c9d1a5cdd081b9bdd081d995c9a599a5959606a1b604082015260600190565b634e487b7160e01b600052601160045260246000fd5b808201808211156129435761294361291a565b92915050565b818103818111156129435761294361291a565b8381526060602082015260006129756060830185612347565b905060018060a01b0383166040830152949350505050565b6040815260006129a06040830185612347565b9050826020830152939250505056fea264697066735822122056119c4d25cbf6a9ee1ef85c566c1d87dc5b1bfe84619c938a52a15d5215c42864736f6c63430008140033",
  "linkReferences": {},
  "deployedLinkReferences": {}
}