{
  "_format": "hh-sol-artifact-1",
  "contractName": "ArtistFundManager",
  "sourceName": "src/contracts/base/ArtistFundManager.sol",
  "abi": [
    {
      "inputs": [],
      "stateMutability": "nonpayable",
      "type": "constructor"
    },
    {
      "anonymous": false,
      "inputs": [
        {
          "indexed": true,
          "internalType": "string",
          "name": "artistId",
          "type": "string"
        },
        {
          "indexed": true,
          "internalType": "address",
          "name": "optimismAddress",
          "type": "address"
        }
      ],
      "name": "ArtistOptimismAddressUpdated",
      "type": "event"
    },
    {
      "anonymous": false,
      "inputs": [
        {
          "indexed": true,
          "internalType": "string",
          "name": "artistId",
          "type": "string"
        },
        {
          "indexed": true,
          "internalType": "address",
          "name": "wallet",
          "type": "address"
        },
        {
          "indexed": false,
          "internalType": "address",
          "name": "optimismAddress",
          "type": "address"
        }
      ],
      "name": "ArtistRegistered",
      "type": "event"
    },
    {
      "anonymous": false,
      "inputs": [
        {
          "indexed": true,
          "internalType": "uint256",
          "name": "txId",
          "type": "uint256"
        },
        {
          "indexed": true,
          "internalType": "string",
          "name": "artistId",
          "type": "string"
        },
        {
          "indexed": false,
          "internalType": "uint256",
          "name": "amount",
          "type": "uint256"
        },
        {
          "indexed": false,
          "internalType": "string",
          "name": "targetChain",
          "type": "string"
        },
        {
          "indexed": false,
          "internalType": "address",
          "name": "targetAddress",
          "type": "address"
        }
      ],
      "name": "CrossChainTransactionInitiated",
      "type": "event"
    },
    {
      "anonymous": false,
      "inputs": [
        {
          "indexed": true,
          "internalType": "uint256",
          "name": "txId",
          "type": "uint256"
        },
        {
          "indexed": false,
          "internalType": "string",
          "name": "status",
          "type": "string"
        }
      ],
      "name": "CrossChainTransactionUpdated",
      "type": "event"
    },
    {
      "anonymous": false,
      "inputs": [
        {
          "indexed": true,
          "internalType": "string",
          "name": "artistId",
          "type": "string"
        },
        {
          "indexed": true,
          "internalType": "address",
          "name": "wallet",
          "type": "address"
        },
        {
          "indexed": false,
          "internalType": "uint256",
          "name": "amount",
          "type": "uint256"
        }
      ],
      "name": "FundsDistributed",
      "type": "event"
    },
    {
      "anonymous": false,
      "inputs": [
        {
          "indexed": true,
          "internalType": "string",
          "name": "grantId",
          "type": "string"
        },
        {
          "indexed": true,
          "internalType": "string",
          "name": "artistId",
          "type": "string"
        },
        {
          "indexed": false,
          "internalType": "uint256",
          "name": "amount",
          "type": "uint256"
        }
      ],
      "name": "GrantAwarded",
      "type": "event"
    },
    {
      "anonymous": false,
      "inputs": [
        {
          "indexed": true,
          "internalType": "string",
          "name": "grantId",
          "type": "string"
        },
        {
          "indexed": false,
          "internalType": "string",
          "name": "title",
          "type": "string"
        },
        {
          "indexed": false,
          "internalType": "uint256",
          "name": "amount",
          "type": "uint256"
        }
      ],
      "name": "GrantCreated",
      "type": "event"
    },
    {
      "anonymous": false,
      "inputs": [
        {
          "indexed": true,
          "internalType": "address",
          "name": "previousOwner",
          "type": "address"
        },
        {
          "indexed": true,
          "internalType": "address",
          "name": "newOwner",
          "type": "address"
        }
      ],
      "name": "OwnershipTransferred",
      "type": "event"
    },
    {
      "inputs": [
        {
          "internalType": "string",
          "name": "",
          "type": "string"
        }
      ],
      "name": "artists",
      "outputs": [
        {
          "internalType": "string",
          "name": "id",
          "type": "string"
        },
        {
          "internalType": "address",
          "name": "wallet",
          "type": "address"
        },
        {
          "internalType": "address",
          "name": "optimismAddress",
          "type": "address"
        },
        {
          "internalType": "bool",
          "name": "verified",
          "type": "bool"
        }
      ],
      "stateMutability": "view",
      "type": "function"
    },
    {
      "inputs": [
        {
          "internalType": "string",
          "name": "grantId",
          "type": "string"
        },
        {
          "internalType": "string",
          "name": "artistId",
          "type": "string"
        }
      ],
      "name": "awardGrant",
      "outputs": [],
      "stateMutability": "nonpayable",
      "type": "function"
    },
    {
      "inputs": [
        {
          "internalType": "string",
          "name": "grantId",
          "type": "string"
        },
        {
          "internalType": "string",
          "name": "title",
          "type": "string"
        },
        {
          "internalType": "uint256",
          "name": "amount",
          "type": "uint256"
        }
      ],
      "name": "createGrant",
      "outputs": [],
      "stateMutability": "payable",
      "type": "function"
    },
    {
      "inputs": [
        {
          "internalType": "uint256",
          "name": "",
          "type": "uint256"
        }
      ],
      "name": "crossChainTransactions",
      "outputs": [
        {
          "internalType": "uint256",
          "name": "id",
          "type": "uint256"
        },
        {
          "internalType": "string",
          "name": "artistId",
          "type": "string"
        },
        {
          "internalType": "uint256",
          "name": "amount",
          "type": "uint256"
        },
        {
          "internalType": "string",
          "name": "targetChain",
          "type": "string"
        },
        {
          "internalType": "address",
          "name": "targetAddress",
          "type": "address"
        },
        {
          "internalType": "string",
          "name": "status",
          "type": "string"
        },
        {
          "internalType": "uint256",
          "name": "timestamp",
          "type": "uint256"
        }
      ],
      "stateMutability": "view",
      "type": "function"
    },
    {
      "inputs": [
        {
          "internalType": "string",
          "name": "artistId",
          "type": "string"
        }
      ],
      "name": "distributeFunds",
      "outputs": [],
      "stateMutability": "nonpayable",
      "type": "function"
    },
    {
      "inputs": [
        {
          "internalType": "string",
          "name": "artistId",
          "type": "string"
        }
      ],
      "name": "getArtist",
      "outputs": [
        {
          "components": [
            {
              "internalType": "string",
              "name": "id",
              "type": "string"
            },
            {
              "internalType": "address",
              "name": "wallet",
              "type": "address"
            },
            {
              "internalType": "address",
              "name": "optimismAddress",
              "type": "address"
            },
            {
              "internalType": "bool",
              "name": "verified",
              "type": "bool"
            }
          ],
          "internalType": "struct ArtistFundManager.Artist",
          "name": "",
          "type": "tuple"
        }
      ],
      "stateMutability": "view",
      "type": "function"
    },
    {
      "inputs": [
        {
          "internalType": "address",
          "name": "optimismAddress",
          "type": "address"
        }
      ],
      "name": "getArtistByOptimismAddress",
      "outputs": [
        {
          "components": [
            {
              "internalType": "string",
              "name": "id",
              "type": "string"
            },
            {
              "internalType": "address",
              "name": "wallet",
              "type": "address"
            },
            {
              "internalType": "address",
              "name": "optimismAddress",
              "type": "address"
            },
            {
              "internalType": "bool",
              "name": "verified",
              "type": "bool"
            }
          ],
          "internalType": "struct ArtistFundManager.Artist",
          "name": "",
          "type": "tuple"
        }
      ],
      "stateMutability": "view",
      "type": "function"
    },
    {
      "inputs": [
        {
          "internalType": "uint256",
          "name": "txId",
          "type": "uint256"
        }
      ],
      "name": "getCrossChainTransaction",
      "outputs": [
        {
          "components": [
            {
              "internalType": "uint256",
              "name": "id",
              "type": "uint256"
            },
            {
              "internalType": "string",
              "name": "artistId",
              "type": "string"
            },
            {
              "internalType": "uint256",
              "name": "amount",
              "type": "uint256"
            },
            {
              "internalType": "string",
              "name": "targetChain",
              "type": "string"
            },
            {
              "internalType": "address",
              "name": "targetAddress",
              "type": "address"
            },
            {
              "internalType": "string",
              "name": "status",
              "type": "string"
            },
            {
              "internalType": "uint256",
              "name": "timestamp",
              "type": "uint256"
            }
          ],
          "internalType": "struct ArtistFundManager.CrossChainTransaction",
          "name": "",
          "type": "tuple"
        }
      ],
      "stateMutability": "view",
      "type": "function"
    },
    {
      "inputs": [
        {
          "internalType": "string",
          "name": "grantId",
          "type": "string"
        }
      ],
      "name": "getGrant",
      "outputs": [
        {
          "components": [
            {
              "internalType": "string",
              "name": "id",
              "type": "string"
            },
            {
              "internalType": "string",
              "name": "title",
              "type": "string"
            },
            {
              "internalType": "uint256",
              "name": "amount",
              "type": "uint256"
            },
            {
              "internalType": "address",
              "name": "funder",
              "type": "address"
            },
            {
              "internalType": "bool",
              "name": "active",
              "type": "bool"
            }
          ],
          "internalType": "struct ArtistFundManager.Grant",
          "name": "",
          "type": "tuple"
        }
      ],
      "stateMutability": "view",
      "type": "function"
    },
    {
      "inputs": [
        {
          "internalType": "string",
          "name": "artistId",
          "type": "string"
        }
      ],
      "name": "getPendingFunds",
      "outputs": [
        {
          "internalType": "uint256",
          "name": "",
          "type": "uint256"
        }
      ],
      "stateMutability": "view",
      "type": "function"
    },
    {
      "inputs": [
        {
          "internalType": "string",
          "name": "",
          "type": "string"
        },
        {
          "internalType": "string",
          "name": "",
          "type": "string"
        }
      ],
      "name": "grantApplications",
      "outputs": [
        {
          "internalType": "bool",
          "name": "",
          "type": "bool"
        }
      ],
      "stateMutability": "view",
      "type": "function"
    },
    {
      "inputs": [
        {
          "internalType": "string",
          "name": "",
          "type": "string"
        }
      ],
      "name": "grants",
      "outputs": [
        {
          "internalType": "string",
          "name": "id",
          "type": "string"
        },
        {
          "internalType": "string",
          "name": "title",
          "type": "string"
        },
        {
          "internalType": "uint256",
          "name": "amount",
          "type": "uint256"
        },
        {
          "internalType": "address",
          "name": "funder",
          "type": "address"
        },
        {
          "internalType": "bool",
          "name": "active",
          "type": "bool"
        }
      ],
      "stateMutability": "view",
      "type": "function"
    },
    {
      "inputs": [
        {
          "internalType": "string",
          "name": "artistId",
          "type": "string"
        },
        {
          "internalType": "uint256",
          "name": "amount",
          "type": "uint256"
        },
        {
          "internalType": "string",
          "name": "targetChain",
          "type": "string"
        },
        {
          "internalType": "address",
          "name": "targetAddress",
          "type": "address"
        }
      ],
      "name": "initiateCrossChainTransaction",
      "outputs": [
        {
          "internalType": "uint256",
          "name": "",
          "type": "uint256"
        }
      ],
      "stateMutability": "nonpayable",
      "type": "function"
    },
    {
      "inputs": [
        {
          "internalType": "address",
          "name": "",
          "type": "address"
        }
      ],
      "name": "optimismAddressToArtistId",
      "outputs": [
        {
          "internalType": "string",
          "name": "",
          "type": "string"
        }
      ],
      "stateMutability": "view",
      "type": "function"
    },
    {
      "inputs": [],
      "name": "owner",
      "outputs": [
        {
          "internalType": "address",
          "name": "",
          "type": "address"
        }
      ],
      "stateMutability": "view",
      "type": "function"
    },
    {
      "inputs": [
        {
          "internalType": "string",
          "name": "",
          "type": "string"
        }
      ],
      "name": "pendingFunds",
      "outputs": [
        {
          "internalType": "uint256",
          "name": "",
          "type": "uint256"
        }
      ],
      "stateMutability": "view",
      "type": "function"
    },
    {
      "inputs": [
        {
          "internalType": "string",
          "name": "artistId",
          "type": "string"
        },
        {
          "internalType": "address",
          "name": "wallet",
          "type": "address"
        },
        {
          "internalType": "address",
          "name": "optimismAddress",
          "type": "address"
        }
      ],
      "name": "registerArtist",
      "outputs": [],
      "stateMutability": "nonpayable",
      "type": "function"
    },
    {
      "inputs": [
        {
          "internalType": "string",
          "name": "artistId",
          "type": "string"
        },
        {
          "internalType": "address",
          "name": "wallet",
          "type": "address"
        }
      ],
      "name": "registerArtistSimple",
      "outputs": [],
      "stateMutability": "nonpayable",
      "type": "function"
    },
    {
      "inputs": [],
      "name": "renounceOwnership",
      "outputs": [],
      "stateMutability": "nonpayable",
      "type": "function"
    },
    {
      "inputs": [
        {
          "internalType": "address",
          "name": "newOwner",
          "type": "address"
        }
      ],
      "name": "transferOwnership",
      "outputs": [],
      "stateMutability": "nonpayable",
      "type": "function"
    },
    {
      "inputs": [
        {
          "internalType": "string",
          "name": "artistId",
          "type": "string"
        },
        {
          "internalType": "address",
          "name": "optimismAddress",
          "type": "address"
        }
      ],
      "name": "updateArtistOptimismAddress",
      "outputs": [],
      "stateMutability": "nonpayable",
      "type": "function"
    },
    {
      "inputs": [
        {
          "internalType": "uint256",
          "name": "txId",
          "type": "uint256"
        },
        {
          "internalType": "string",
          "name": "status",
          "type": "string"
        }
      ],
      "name": "updateCrossChainTransactionStatus",
      "outputs": [],
      "stateMutability": "nonpayable",
      "type": "function"
    },
    {
      "stateMutability": "payable",
      "type": "receive"
    }
  ],
  "bytecode": "0x608060405234801561001057600080fd5b5061001a33610023565b60018055610073565b600080546001600160a01b038381166001600160a01b0319831681178455604051919092169283917f8be0079c531659141344cd1fd0a4f28419497f9722a3daafe3b4186f6b6457e09190a35050565b612b8480620000836000396000f3fe6080604052600436106101385760003560e01c806398bf3752116100ab578063c8f79e7a1161006f578063c8f79e7a146103fd578063d0daaf3d14610410578063da1800c314610430578063dac343b214610450578063ed7d7e4f14610488578063f2fde38b146104b557600080fd5b806398bf37521461034f578063a0f320c51461037d578063a2498ab31461039d578063ac961bcf146103bd578063b2b37d3c146103dd57600080fd5b80634b531c05116100fd5780634b531c051461025b5780636985629f146102885780636b9b94ac146102b5578063715018a6146102e55780638da5cb5b146102fa57806397823c171461032257600080fd5b8062e9bc541461014457806314df98b31461016657806333aec12a1461018657806335a9cfdb146101c05780633f6017ac1461022857600080fd5b3661013f57005b600080fd5b34801561015057600080fd5b5061016461015f3660046123cb565b6104d5565b005b34801561017257600080fd5b50610164610181366004612429565b610729565b34801561019257600080fd5b506101a66101a136600461248d565b61096c565b6040516101b7959493929190612512565b60405180910390f35b3480156101cc57600080fd5b506102186101db366004612429565b8151602081840181018051600482529282019482019490942091909352815180830184018051928152908401929093019190912091525460ff1681565b60405190151581526020016101b7565b34801561023457600080fd5b50610248610243366004612560565b610ac4565b6040516101b79796959493929190612579565b34801561026757600080fd5b5061027b61027636600461248d565b610ca6565b6040516101b791906125e2565b34801561029457600080fd5b506102a86102a3366004612650565b610e66565b6040516101b79190612672565b3480156102c157600080fd5b506102d56102d036600461248d565b611068565b6040516101b794939291906126ca565b3480156102f157600080fd5b50610164611136565b34801561030657600080fd5b506000546040516001600160a01b0390911681526020016101b7565b34801561032e57600080fd5b5061034261033d366004612560565b61114a565b6040516101b79190612705565b34801561035b57600080fd5b5061036f61036a36600461279e565b611400565b6040519081526020016101b7565b34801561038957600080fd5b5061036f61039836600461248d565b611656565b3480156103a957600080fd5b506102a86103b836600461248d565b61167e565b3480156103c957600080fd5b506101646103d836600461281c565b611796565b3480156103e957600080fd5b506101646103f836600461248d565b61190a565b61016461040b36600461286a565b611af6565b34801561041c57600080fd5b5061016461042b3660046128d7565b611cf5565b34801561043c57600080fd5b5061016461044b36600461281c565b611ee5565b34801561045c57600080fd5b5061036f61046b36600461248d565b805160208183018101805160058252928201919093012091525481565b34801561049457600080fd5b506104a86104a3366004612650565b6120f9565b6040516101b79190612914565b3480156104c157600080fd5b506101646104d0366004612650565b612193565b6104dd612209565b6001600160a01b0382166105315760405162461bcd60e51b8152602060048201526016602482015275496e76616c69642077616c6c6574206164647265737360501b60448201526064015b60405180910390fd5b60008351116105765760405162461bcd60e51b8152602060048201526011602482015270125b9d985b1a5908185c9d1a5cdd081251607a1b6044820152606401610528565b6002836040516105869190612927565b9081526040519081900360200190206002015460ff600160a01b90910416156105ed5760405162461bcd60e51b8152602060048201526019602482015278105c9d1a5cdd08185b1c9958591e481c9959da5cdd195c9959603a1b6044820152606401610528565b604080516080810182528481526001600160a01b038085166020830152831681830152600160608201529051600290610627908690612927565b9081526040519081900360200190208151819061064490826129cc565b5060208201516001820180546001600160a01b039283166001600160a01b03199091161790556040830151600290920180546060909401511515600160a01b026001600160a81b0319909416928216929092179290921790558116156106c8576001600160a01b03811660009081526007602052604090206106c684826129cc565b505b816001600160a01b0316836040516106e09190612927565b6040519081900381206001600160a01b0384168252907f94e68bbf4dde11c6eb6880dc2d974331b56348988426553e1480bedce9fb6004906020015b60405180910390a3505050565b610731612209565b6003826040516107419190612927565b9081526040519081900360200190206003015460ff600160a01b9091041661079e5760405162461bcd60e51b815260206004820152601060248201526f4772616e74206e6f742061637469766560801b6044820152606401610528565b6002816040516107ae9190612927565b9081526040519081900360200190206002015460ff600160a01b909104166107e85760405162461bcd60e51b815260040161052890612a8c565b6004826040516107f89190612927565b9081526020016040518091039020816040516108149190612927565b9081526040519081900360200190205460ff16156108665760405162461bcd60e51b815260206004820152600f60248201526e105b1c9958591e48185dd85c991959608a1b6044820152606401610528565b60006003836040516108789190612927565b90815260200160405180910390209050600160048460405161089a9190612927565b9081526020016040518091039020836040516108b69190612927565b908152604051908190036020018120805492151560ff19909316929092179091556002820154906005906108eb908590612927565b908152602001604051809103902060008282546109089190612acf565b909155505060405161091b908390612927565b6040518091039020836040516109319190612927565b60405190819003812060028401548252907f68a9a147328b8386f7335122943cb30c598015c517b72dc5d1c04604a062c10d9060200161071c565b805160208183018101805160038252928201919093012091528054819061099290612943565b80601f01602080910402602001604051908101604052809291908181526020018280546109be90612943565b8015610a0b5780601f106109e057610100808354040283529160200191610a0b565b820191906000526020600020905b8154815290600101906020018083116109ee57829003601f168201915b505050505090806001018054610a2090612943565b80601f0160208091040260200160405190810160405280929190818152602001828054610a4c90612943565b8015610a995780601f10610a6e57610100808354040283529160200191610a99565b820191906000526020600020905b815481529060010190602001808311610a7c57829003601f168201915b5050505060028301546003909301549192916001600160a01b0381169150600160a01b900460ff1685565b60066020526000908152604090208054600182018054919291610ae690612943565b80601f0160208091040260200160405190810160405280929190818152602001828054610b1290612943565b8015610b5f5780601f10610b3457610100808354040283529160200191610b5f565b820191906000526020600020905b815481529060010190602001808311610b4257829003601f168201915b505050505090806002015490806003018054610b7a90612943565b80601f0160208091040260200160405190810160405280929190818152602001828054610ba690612943565b8015610bf35780601f10610bc857610100808354040283529160200191610bf3565b820191906000526020600020905b815481529060010190602001808311610bd657829003601f168201915b505050600484015460058501805494956001600160a01b03909216949193509150610c1d90612943565b80601f0160208091040260200160405190810160405280929190818152602001828054610c4990612943565b8015610c965780601f10610c6b57610100808354040283529160200191610c96565b820191906000526020600020905b815481529060010190602001808311610c7957829003601f168201915b5050505050908060060154905087565b610ce36040518060a0016040528060608152602001606081526020016000815260200160006001600160a01b031681526020016000151581525090565b600382604051610cf39190612927565b90815260200160405180910390206040518060a0016040529081600082018054610d1c90612943565b80601f0160208091040260200160405190810160405280929190818152602001828054610d4890612943565b8015610d955780601f10610d6a57610100808354040283529160200191610d95565b820191906000526020600020905b815481529060010190602001808311610d7857829003601f168201915b50505050508152602001600182018054610dae90612943565b80601f0160208091040260200160405190810160405280929190818152602001828054610dda90612943565b8015610e275780601f10610dfc57610100808354040283529160200191610e27565b820191906000526020600020905b815481529060010190602001808311610e0a57829003601f168201915b5050509183525050600282015460208201526003909101546001600160a01b0381166040830152600160a01b900460ff16151560609091015292915050565b6040805160808101825260608082526000602083018190529282018390528101919091526001600160a01b03821660009081526007602052604081208054610ead90612943565b80601f0160208091040260200160405190810160405280929190818152602001828054610ed990612943565b8015610f265780601f10610efb57610100808354040283529160200191610f26565b820191906000526020600020905b815481529060010190602001808311610f0957829003601f168201915b505050505090506000815111610f715760405162461bcd60e51b815260206004820152601060248201526f105c9d1a5cdd081b9bdd08199bdd5b9960821b6044820152606401610528565b600281604051610f819190612927565b9081526020016040518091039020604051806080016040529081600082018054610faa90612943565b80601f0160208091040260200160405190810160405280929190818152602001828054610fd690612943565b80156110235780601f10610ff857610100808354040283529160200191611023565b820191906000526020600020905b81548152906001019060200180831161100657829003601f168201915b505050918352505060018201546001600160a01b0390811660208301526002909201549182166040820152600160a01b90910460ff1615156060909101529392505050565b805160208183018101805160028252928201919093012091528054819061108e90612943565b80601f01602080910402602001604051908101604052809291908181526020018280546110ba90612943565b80156111075780601f106110dc57610100808354040283529160200191611107565b820191906000526020600020905b8154815290600101906020018083116110ea57829003601f168201915b50505050600183015460029093015491926001600160a01b03908116929081169150600160a01b900460ff1684565b61113e612209565b6111486000612263565b565b6111936040518060e001604052806000815260200160608152602001600081526020016060815260200160006001600160a01b0316815260200160608152602001600081525090565b60008281526006602052604090205482146111f05760405162461bcd60e51b815260206004820152601a60248201527f5472616e73616374696f6e20646f6573206e6f742065786973740000000000006044820152606401610528565b600660008381526020019081526020016000206040518060e00160405290816000820154815260200160018201805461122890612943565b80601f016020809104026020016040519081016040528092919081815260200182805461125490612943565b80156112a15780601f10611276576101008083540402835291602001916112a1565b820191906000526020600020905b81548152906001019060200180831161128457829003601f168201915b50505050508152602001600282015481526020016003820180546112c490612943565b80601f01602080910402602001604051908101604052809291908181526020018280546112f090612943565b801561133d5780601f106113125761010080835404028352916020019161133d565b820191906000526020600020905b81548152906001019060200180831161132057829003601f168201915b505050918352505060048201546001600160a01b0316602082015260058201805460409092019161136d90612943565b80601f016020809104026020016040519081016040528092919081815260200182805461139990612943565b80156113e65780601f106113bb576101008083540402835291602001916113e6565b820191906000526020600020905b8154815290600101906020018083116113c957829003601f168201915b505050505081526020016006820154815250509050919050565b600061140a612209565b6114126122b3565b60006002866040516114249190612927565b908152604051908190036020019020600281015490915060ff600160a01b909104166114625760405162461bcd60e51b815260040161052890612a8c565b846005876040516114739190612927565b90815260200160405180910390205410156114c55760405162461bcd60e51b8152602060048201526012602482015271496e73756666696369656e742066756e647360701b6044820152606401610528565b846005876040516114d69190612927565b908152602001604051809103902060008282546114f39190612ae8565b9091555050600880546001019055600061150c60085490565b6040805160e08101825282815260208082018b81528284018b9052606083018a90526001600160a01b038916608084015283518085018552600781526670656e64696e6760c81b8184015260a08401524260c08401526000858152600690925292902081518155915192935091600182019061158890826129cc565b5060408201516002820155606082015160038201906115a790826129cc565b5060808201516004820180546001600160a01b0319166001600160a01b0390921691909117905560a082015160058201906115e290826129cc565b5060c08201518160060155905050866040516115fe9190612927565b6040518091039020817ff6808f653ef7d46db0570134abf7ae3f5d04ba40c49bbc5de2b2f841bee9274188888860405161163a93929190612afb565b60405180910390a391505061164e60018055565b949350505050565b60006005826040516116689190612927565b9081526020016040518091039020549050919050565b6040805160808101825260608082526000602083018190528284018190529082015290516002906116b0908490612927565b90815260200160405180910390206040518060800160405290816000820180546116d990612943565b80601f016020809104026020016040519081016040528092919081815260200182805461170590612943565b80156117525780601f1061172757610100808354040283529160200191611752565b820191906000526020600020905b81548152906001019060200180831161173557829003601f168201915b505050918352505060018201546001600160a01b0390811660208301526002909201549182166040820152600160a01b90910460ff16151560609091015292915050565b61179e612209565b6002826040516117ae9190612927565b9081526040519081900360200190206002015460ff600160a01b909104166118105760405162461bcd60e51b8152602060048201526015602482015274105c9d1a5cdd081b9bdd081c9959da5cdd195c9959605a1b6044820152606401610528565b6001600160a01b0381166118665760405162461bcd60e51b815260206004820152601860248201527f496e76616c6964206f7074696d69736d206164647265737300000000000000006044820152606401610528565b806002836040516118779190612927565b908152604080516020928190038301902060020180546001600160a01b0319166001600160a01b0394851617905591831660009081526007909152206118bd83826129cc565b50806001600160a01b0316826040516118d69190612927565b604051908190038120907f136d5e6bc53d2dc976f9c8b45768b773fe5991c09b7e3eb6363c579bc053e1fd90600090a35050565b6119126122b3565b60006002826040516119249190612927565b908152604051908190036020019020600281015490915060ff600160a01b909104166119625760405162461bcd60e51b815260040161052890612a8c565b60006005836040516119749190612927565b9081526020016040518091039020549050600081116119ce5760405162461bcd60e51b81526020600482015260166024820152754e6f2066756e647320746f206469737472696275746560501b6044820152606401610528565b60006005846040516119e09190612927565b9081526040519081900360200181209190915560018301546000916001600160a01b0390911690839060006040518083038185875af1925050503d8060008114611a46576040519150601f19603f3d011682016040523d82523d6000602084013e611a4b565b606091505b5050905080611a8e5760405162461bcd60e51b815260206004820152600f60248201526e151c985b9cd9995c8819985a5b1959608a1b6044820152606401610528565b60018301546040516001600160a01b0390911690611aad908690612927565b604051908190038120848252907f054d53368c7f57909410721809acf5632411d3c372442c62b3f30ebfe5405c659060200160405180910390a3505050611af360018055565b50565b803414611b3d5760405162461bcd60e51b8152602060048201526015602482015274125b98dbdc9c9958dd08199d5b9908185b5bdd5b9d605a1b6044820152606401610528565b6000835111611b815760405162461bcd60e51b815260206004820152601060248201526f125b9d985b1a590819dc985b9d08125160821b6044820152606401610528565b600383604051611b919190612927565b9081526040519081900360200190206003015460ff600160a01b9091041615611bf35760405162461bcd60e51b81526020600482015260146024820152734772616e7420616c72656164792065786973747360601b6044820152606401610528565b6040805160a08101825284815260208101849052808201839052336060820152600160808201529051600390611c2a908690612927565b90815260405190819003602001902081518190611c4790826129cc565b5060208201516001820190611c5c90826129cc565b5060408281015160028301556060830151600390920180546080909401511515600160a01b026001600160a81b03199094166001600160a01b039093169290921792909217905551611caf908490612927565b60405180910390207f70a5093558db26a78bec3bdd867fd0e08a00f34272282654c4a483e02f494fa28383604051611ce8929190612b2c565b60405180910390a2505050565b611cfd612209565b6000828152600660205260409020548214611d5a5760405162461bcd60e51b815260206004820152601a60248201527f5472616e73616374696f6e20646f6573206e6f742065786973740000000000006044820152606401610528565b6000828152600660205260409020600501611d7582826129cc565b50817f7df5c9d82741868217808cba3b4a79e7dd0936e5588c736f24adcd4802e9795982604051611da69190612914565b60405180910390a260408051808201909152600681526519985a5b195960d21b6020918201528151908201207f70bb2974e5d9e962cfbadd05d06a556c7267edf29d72e24a8d9edf357b1ac4bd01611ee15760008281526006602052604081206001018054611e1490612943565b80601f0160208091040260200160405190810160405280929190818152602001828054611e4090612943565b8015611e8d5780601f10611e6257610100808354040283529160200191611e8d565b820191906000526020600020905b815481529060010190602001808311611e7057829003601f168201915b505050600086815260066020526040908190206002015490519394509283925060059150611ebc908590612927565b90815260200160405180910390206000828254611ed99190612acf565b909155505050505b5050565b611eed612209565b6001600160a01b038116611f3c5760405162461bcd60e51b8152602060048201526016602482015275496e76616c69642077616c6c6574206164647265737360501b6044820152606401610528565b6000825111611f815760405162461bcd60e51b8152602060048201526011602482015270125b9d985b1a5908185c9d1a5cdd081251607a1b6044820152606401610528565b600282604051611f919190612927565b9081526040519081900360200190206002015460ff600160a01b9091041615611ff85760405162461bcd60e51b8152602060048201526019602482015278105c9d1a5cdd08185b1c9958591e481c9959da5cdd195c9959603a1b6044820152606401610528565b604080516080810182528381526001600160a01b0383166020820152600081830152600160608201529051600290612031908590612927565b9081526040519081900360200190208151819061204e90826129cc565b5060208201516001820180546001600160a01b039283166001600160a01b0319909116179055604080840151600290930180546060909501511515600160a01b026001600160a81b031990951693831693909317939093179091559051908216906120ba908490612927565b60405190819003812060008252907f94e68bbf4dde11c6eb6880dc2d974331b56348988426553e1480bedce9fb60049060200160405180910390a35050565b6007602052600090815260409020805461211290612943565b80601f016020809104026020016040519081016040528092919081815260200182805461213e90612943565b801561218b5780601f106121605761010080835404028352916020019161218b565b820191906000526020600020905b81548152906001019060200180831161216e57829003601f168201915b505050505081565b61219b612209565b6001600160a01b0381166122005760405162461bcd60e51b815260206004820152602660248201527f4f776e61626c653a206e6577206f776e657220697320746865207a65726f206160448201526564647265737360d01b6064820152608401610528565b611af381612263565b6000546001600160a01b031633146111485760405162461bcd60e51b815260206004820181905260248201527f4f776e61626c653a2063616c6c6572206973206e6f7420746865206f776e65726044820152606401610528565b600080546001600160a01b038381166001600160a01b0319831681178455604051919092169283917f8be0079c531659141344cd1fd0a4f28419497f9722a3daafe3b4186f6b6457e09190a35050565b6002600154036123055760405162461bcd60e51b815260206004820152601f60248201527f5265656e7472616e637947756172643a207265656e7472616e742063616c6c006044820152606401610528565b6002600155565b634e487b7160e01b600052604160045260246000fd5b600082601f83011261233357600080fd5b813567ffffffffffffffff8082111561234e5761234e61230c565b604051601f8301601f19908116603f011681019082821181831017156123765761237661230c565b8160405283815286602085880101111561238f57600080fd5b836020870160208301376000602085830101528094505050505092915050565b80356001600160a01b03811681146123c657600080fd5b919050565b6000806000606084860312156123e057600080fd5b833567ffffffffffffffff8111156123f757600080fd5b61240386828701612322565b935050612412602085016123af565b9150612420604085016123af565b90509250925092565b6000806040838503121561243c57600080fd5b823567ffffffffffffffff8082111561245457600080fd5b61246086838701612322565b9350602085013591508082111561247657600080fd5b5061248385828601612322565b9150509250929050565b60006020828403121561249f57600080fd5b813567ffffffffffffffff8111156124b657600080fd5b61164e84828501612322565b60005b838110156124dd5781810151838201526020016124c5565b50506000910152565b600081518084526124fe8160208601602086016124c2565b601f01601f19169290920160200192915050565b60a08152600061252560a08301886124e6565b828103602084015261253781886124e6565b604084019690965250506001600160a01b03929092166060830152151560809091015292915050565b60006020828403121561257257600080fd5b5035919050565b87815260e06020820152600061259260e08301896124e6565b87604084015282810360608401526125aa81886124e6565b6001600160a01b038716608085015283810360a085015290506125cd81866124e6565b9150508260c083015298975050505050505050565b602081526000825160a060208401526125fe60c08401826124e6565b90506020840151601f1984830301604085015261261b82826124e6565b9150506040840151606084015260018060a01b0360608501511660808401526080840151151560a08401528091505092915050565b60006020828403121561266257600080fd5b61266b826123af565b9392505050565b60208152600082516080602084015261268e60a08401826124e6565b60208501516001600160a01b03908116604086810191909152860151166060808601919091529094015115156080909301929092525090919050565b6080815260006126dd60808301876124e6565b6001600160a01b03958616602084015293909416604082015290151560609091015292915050565b60208152815160208201526000602083015160e0604084015261272c6101008401826124e6565b9050604084015160608401526060840151601f198085840301608086015261275483836124e6565b60808701516001600160a01b031660a08781019190915287015186820390920160c08701529250905061278782826124e6565b91505060c084015160e08401528091505092915050565b600080600080608085870312156127b457600080fd5b843567ffffffffffffffff808211156127cc57600080fd5b6127d888838901612322565b95506020870135945060408701359150808211156127f557600080fd5b5061280287828801612322565b925050612811606086016123af565b905092959194509250565b6000806040838503121561282f57600080fd5b823567ffffffffffffffff81111561284657600080fd5b61285285828601612322565b925050612861602084016123af565b90509250929050565b60008060006060848603121561287f57600080fd5b833567ffffffffffffffff8082111561289757600080fd5b6128a387838801612322565b945060208601359150808211156128b957600080fd5b506128c686828701612322565b925050604084013590509250925092565b600080604083850312156128ea57600080fd5b82359150602083013567ffffffffffffffff81111561290857600080fd5b61248385828601612322565b60208152600061266b60208301846124e6565b600082516129398184602087016124c2565b9190910192915050565b600181811c9082168061295757607f821691505b60208210810361297757634e487b7160e01b600052602260045260246000fd5b50919050565b601f8211156129c757600081815260208120601f850160051c810160208610156129a45750805b601f850160051c820191505b818110156129c3578281556001016129b0565b5050505b505050565b815167ffffffffffffffff8111156129e6576129e661230c565b6129fa816129f48454612943565b8461297d565b602080601f831160018114612a2f5760008415612a175750858301515b600019600386901b1c1916600185901b1785556129c3565b600085815260208120601f198616915b82811015612a5e57888601518255948401946001909101908401612a3f565b5085821015612a7c5787850151600019600388901b60f8161c191681555b5050505050600190811b01905550565b602080825260139082015272105c9d1a5cdd081b9bdd081d995c9a599a5959606a1b604082015260600190565b634e487b7160e01b600052601160045260246000fd5b80820180821115612ae257612ae2612ab9565b92915050565b81810381811115612ae257612ae2612ab9565b838152606060208201526000612b1460608301856124e6565b905060018060a01b0383166040830152949350505050565b604081526000612b3f60408301856124e6565b9050826020830152939250505056fea2646970667358221220736f574345a996d22489035db42bf0c5bd2ec618455a86c835df9bd7739143dc64736f6c63430008140033",
  "linkReferences": {},
  "deployedLinkReferences": {}
}