{
  "_format": "hh-sol-artifact-1",
  "contractName": "ZkSyncArtistManager",
  "sourceName": "src/contracts/ZkSyncArtistManager.sol",
  "abi": [
    {
      "inputs": [],
      "stateMutability": "nonpayable",
      "type": "constructor"
    },
    {
      "anonymous": false,
      "inputs": [
        {
          "indexed": false,
          "internalType": "string",
          "name": "artistId",
          "type": "string"
        },
        {
          "indexed": false,
          "internalType": "address",
          "name": "walletAddress",
          "type": "address"
        }
      ],
      "name": "ArtistRegistered",
      "type": "event"
    },
    {
      "anonymous": false,
      "inputs": [
        {
          "indexed": false,
          "internalType": "string",
          "name": "artistId",
          "type": "string"
        },
        {
          "indexed": false,
          "internalType": "address",
          "name": "wallet",
          "type": "address"
        },
        {
          "indexed": false,
          "internalType": "uint256",
          "name": "amount",
          "type": "uint256"
        }
      ],
      "name": "FundsDistributed",
      "type": "event"
    },
    {
      "anonymous": false,
      "inputs": [
        {
          "indexed": false,
          "internalType": "string",
          "name": "opportunityId",
          "type": "string"
        },
        {
          "indexed": false,
          "internalType": "string",
          "name": "artistId",
          "type": "string"
        },
        {
          "indexed": false,
          "internalType": "uint256",
          "name": "amount",
          "type": "uint256"
        }
      ],
      "name": "FundsReceived",
      "type": "event"
    },
    {
      "anonymous": false,
      "inputs": [
        {
          "indexed": false,
          "internalType": "string",
          "name": "artistId",
          "type": "string"
        },
        {
          "indexed": false,
          "internalType": "address",
          "name": "sessionKey",
          "type": "address"
        }
      ],
      "name": "SessionKeyAdded",
      "type": "event"
    },
    {
      "anonymous": false,
      "inputs": [
        {
          "indexed": false,
          "internalType": "string",
          "name": "artistId",
          "type": "string"
        },
        {
          "indexed": false,
          "internalType": "address",
          "name": "sessionKey",
          "type": "address"
        }
      ],
      "name": "SessionKeyRemoved",
      "type": "event"
    },
    {
      "inputs": [
        {
          "internalType": "string",
          "name": "artistId",
          "type": "string"
        },
        {
          "internalType": "address",
          "name": "sessionKey",
          "type": "address"
        }
      ],
      "name": "addSessionKey",
      "outputs": [],
      "stateMutability": "nonpayable",
      "type": "function"
    },
    {
      "inputs": [
        {
          "internalType": "string",
          "name": "",
          "type": "string"
        },
        {
          "internalType": "uint256",
          "name": "",
          "type": "uint256"
        }
      ],
      "name": "artistSessionKeys",
      "outputs": [
        {
          "internalType": "address",
          "name": "",
          "type": "address"
        }
      ],
      "stateMutability": "view",
      "type": "function"
    },
    {
      "inputs": [
        {
          "internalType": "string",
          "name": "",
          "type": "string"
        }
      ],
      "name": "artistWallets",
      "outputs": [
        {
          "internalType": "address",
          "name": "",
          "type": "address"
        }
      ],
      "stateMutability": "view",
      "type": "function"
    },
    {
      "inputs": [
        {
          "internalType": "string",
          "name": "artistId",
          "type": "string"
        }
      ],
      "name": "distributeFunds",
      "outputs": [],
      "stateMutability": "nonpayable",
      "type": "function"
    },
    {
      "inputs": [
        {
          "internalType": "string",
          "name": "artistId",
          "type": "string"
        }
      ],
      "name": "getPendingFunds",
      "outputs": [
        {
          "internalType": "uint256",
          "name": "",
          "type": "uint256"
        }
      ],
      "stateMutability": "view",
      "type": "function"
    },
    {
      "inputs": [
        {
          "internalType": "string",
          "name": "artistId",
          "type": "string"
        }
      ],
      "name": "getSessionKeys",
      "outputs": [
        {
          "internalType": "address[]",
          "name": "",
          "type": "address[]"
        }
      ],
      "stateMutability": "view",
      "type": "function"
    },
    {
      "inputs": [
        {
          "internalType": "string",
          "name": "artistId",
          "type": "string"
        },
        {
          "internalType": "address",
          "name": "sessionKey",
          "type": "address"
        }
      ],
      "name": "isValidSessionKey",
      "outputs": [
        {
          "internalType": "bool",
          "name": "",
          "type": "bool"
        }
      ],
      "stateMutability": "view",
      "type": "function"
    },
    {
      "inputs": [],
      "name": "owner",
      "outputs": [
        {
          "internalType": "address",
          "name": "",
          "type": "address"
        }
      ],
      "stateMutability": "view",
      "type": "function"
    },
    {
      "inputs": [
        {
          "internalType": "string",
          "name": "",
          "type": "string"
        }
      ],
      "name": "pendingFunds",
      "outputs": [
        {
          "internalType": "uint256",
          "name": "",
          "type": "uint256"
        }
      ],
      "stateMutability": "view",
      "type": "function"
    },
    {
      "inputs": [
        {
          "internalType": "string",
          "name": "opportunityId",
          "type": "string"
        },
        {
          "internalType": "string",
          "name": "artistId",
          "type": "string"
        }
      ],
      "name": "receiveFunds",
      "outputs": [],
      "stateMutability": "payable",
      "type": "function"
    },
    {
      "inputs": [
        {
          "internalType": "string",
          "name": "artistId",
          "type": "string"
        },
        {
          "internalType": "address",
          "name": "walletAddress",
          "type": "address"
        }
      ],
      "name": "registerArtist",
      "outputs": [],
      "stateMutability": "nonpayable",
      "type": "function"
    },
    {
      "inputs": [
        {
          "internalType": "string",
          "name": "artistId",
          "type": "string"
        },
        {
          "internalType": "address",
          "name": "sessionKey",
          "type": "address"
        }
      ],
      "name": "removeSessionKey",
      "outputs": [],
      "stateMutability": "nonpayable",
      "type": "function"
    }
  ],
  "bytecode": "0x608060405234801561001057600080fd5b50600080546001600160a01b0319163317905561118f806100326000396000f3fe6080604052600436106100a75760003560e01c80638da5cb5b116100645780638da5cb5b1461018e578063930a1518146101ae578063a0f320c5146101db578063b2b37d3c14610209578063d3fb99d514610229578063dac343b21461026a57600080fd5b806307ed2aed146100ac57806311eeb4ce146100c1578063336da284146100f65780635755b9bc14610116578063645f3187146101365780637dcd0e3f1461016e575b600080fd5b6100bf6100ba366004610df6565b6102a2565b005b3480156100cd57600080fd5b506100e16100dc366004610e5a565b6103bb565b60405190151581526020015b60405180910390f35b34801561010257600080fd5b506100bf610111366004610e5a565b610499565b34801561012257600080fd5b506100bf610131366004610e5a565b610689565b34801561014257600080fd5b50610156610151366004610eb8565b610772565b6040516001600160a01b0390911681526020016100ed565b34801561017a57600080fd5b506100bf610189366004610e5a565b6107b9565b34801561019a57600080fd5b50600054610156906001600160a01b031681565b3480156101ba57600080fd5b506101ce6101c9366004610efd565b6109db565b6040516100ed9190610f3a565b3480156101e757600080fd5b506101fb6101f6366004610efd565b610a55565b6040519081526020016100ed565b34801561021557600080fd5b506100bf610224366004610efd565b610a7d565b34801561023557600080fd5b50610156610244366004610efd565b80516020818301810180516001825292820191909301209152546001600160a01b031681565b34801561027657600080fd5b506101fb610285366004610efd565b805160208183018101805160028252928201919093012091525481565b600034116102f75760405162461bcd60e51b815260206004820152601d60248201527f416d6f756e74206d7573742062652067726561746572207468616e203000000060448201526064015b60405180910390fd5b60006001600160a01b03166001826040516103129190610fab565b908152604051908190036020019020546001600160a01b0316036103485760405162461bcd60e51b81526004016102ee90610fc7565b346002826040516103599190610fab565b90815260200160405180910390206000828254610376919061100c565b90915550506040517f928128c28fa832bad2a3ecb781785a19dde4f19a417d6d3a1a28f9391811e544906103af9084908490349061104b565b60405180910390a15050565b6000806003846040516103ce9190610fab565b908152604080519182900360209081018320805480830285018301909352828452919083018282801561042a57602002820191906000526020600020905b81546001600160a01b0316815260019091019060200180831161040c575b5050505050905060005b815181101561048c57836001600160a01b031682828151811061045957610459611081565b60200260200101516001600160a01b03160361047a57600192505050610493565b8061048481611097565b915050610434565b5060009150505b92915050565b6000546001600160a01b031633146104c35760405162461bcd60e51b81526004016102ee906110b0565b6001600160a01b03811661050f5760405162461bcd60e51b8152602060048201526013602482015272496e76616c69642073657373696f6e206b657960681b60448201526064016102ee565b60006001600160a01b031660018360405161052a9190610fab565b908152604051908190036020019020546001600160a01b0316036105605760405162461bcd60e51b81526004016102ee90610fc7565b60006003836040516105729190610fab565b9081526020016040518091039020905060005b815481101561061e57826001600160a01b03168282815481106105aa576105aa611081565b6000918252602090912001546001600160a01b03160361060c5760405162461bcd60e51b815260206004820152601a60248201527f53657373696f6e206b657920616c72656164792065786973747300000000000060448201526064016102ee565b8061061681611097565b915050610585565b5080546001810182556000828152602090200180546001600160a01b0319166001600160a01b0384161790556040517f4ff861a85f25e80d0296e9e41321688bf498d3337acd76e3c80e9b457aa7a20e9061067c90859085906110d8565b60405180910390a1505050565b6000546001600160a01b031633146106b35760405162461bcd60e51b81526004016102ee906110b0565b6001600160a01b0381166107025760405162461bcd60e51b8152602060048201526016602482015275496e76616c69642077616c6c6574206164647265737360501b60448201526064016102ee565b806001836040516107139190610fab565b90815260405190819003602001812080546001600160a01b03939093166001600160a01b0319909316929092179091557f3d29da7fef11a3d9e7980c76d39c19e6bd3c33cf9f32c9569f856267bbdeedfd906103af90849084906110d8565b8151602081840181018051600382529282019185019190912091905280548290811061079d57600080fd5b6000918252602090912001546001600160a01b03169150829050565b6000546001600160a01b031633146107e35760405162461bcd60e51b81526004016102ee906110b0565b60006001600160a01b03166001836040516107fe9190610fab565b908152604051908190036020019020546001600160a01b0316036108345760405162461bcd60e51b81526004016102ee90610fc7565b60006003836040516108469190610fab565b9081526020016040518091039020905060005b815481101561099a57826001600160a01b031682828154811061087e5761087e611081565b6000918252602090912001546001600160a01b03160361098857815482906108a890600190611102565b815481106108b8576108b8611081565b9060005260206000200160009054906101000a90046001600160a01b03168282815481106108e8576108e8611081565b9060005260206000200160006101000a8154816001600160a01b0302191690836001600160a01b031602179055508180548061092657610926611115565b600082815260209020810160001990810180546001600160a01b03191690550190556040517ff04aead0ff8f79f2307f9b921ea2210ef4fd003b96befe92c2a8b262ceee64de9061097a90869086906110d8565b60405180910390a150505050565b8061099281611097565b915050610859565b5060405162461bcd60e51b815260206004820152601560248201527414d95cdcda5bdb881ad95e481b9bdd08199bdd5b99605a1b60448201526064016102ee565b60606003826040516109ed9190610fab565b9081526040805191829003602090810183208054808302850183019093528284529190830182828015610a4957602002820191906000526020600020905b81546001600160a01b03168152600190910190602001808311610a2b575b50505050509050919050565b6000600282604051610a679190610fab565b9081526020016040518091039020549050919050565b806000600182604051610a909190610fab565b908152604051908190036020019020546001600160a01b03163303610ab757506001610b88565b6000600383604051610ac99190610fab565b9081526040805191829003602090810183208054808302850183019093528284529190830182828015610b2557602002820191906000526020600020905b81546001600160a01b03168152600190910190602001808311610b07575b5050505050905060005b8151811015610b8557818181518110610b4a57610b4a611081565b60200260200101516001600160a01b0316336001600160a01b031603610b735760019250610b85565b80610b7d81611097565b915050610b2f565b50505b80610ba55760405162461bcd60e51b81526004016102ee906110b0565b6000600184604051610bb79190610fab565b908152604051908190036020019020546001600160a01b0316905080610bef5760405162461bcd60e51b81526004016102ee90610fc7565b6000600285604051610c019190610fab565b908152602001604051809103902054905060008111610c5b5760405162461bcd60e51b81526020600482015260166024820152754e6f2066756e647320746f206469737472696275746560501b60448201526064016102ee565b6000600286604051610c6d9190610fab565b908152604051908190036020018120919091556000906001600160a01b0384169083908381818185875af1925050503d8060008114610cc8576040519150601f19603f3d011682016040523d82523d6000602084013e610ccd565b606091505b5050905080610d105760405162461bcd60e51b815260206004820152600f60248201526e151c985b9cd9995c8819985a5b1959608a1b60448201526064016102ee565b7f054d53368c7f57909410721809acf5632411d3c372442c62b3f30ebfe5405c65868484604051610d439392919061112b565b60405180910390a1505050505050565b634e487b7160e01b600052604160045260246000fd5b600082601f830112610d7a57600080fd5b813567ffffffffffffffff80821115610d9557610d95610d53565b604051601f8301601f19908116603f01168101908282118183101715610dbd57610dbd610d53565b81604052838152866020858801011115610dd657600080fd5b836020870160208301376000602085830101528094505050505092915050565b60008060408385031215610e0957600080fd5b823567ffffffffffffffff80821115610e2157600080fd5b610e2d86838701610d69565b93506020850135915080821115610e4357600080fd5b50610e5085828601610d69565b9150509250929050565b60008060408385031215610e6d57600080fd5b823567ffffffffffffffff811115610e8457600080fd5b610e9085828601610d69565b92505060208301356001600160a01b0381168114610ead57600080fd5b809150509250929050565b60008060408385031215610ecb57600080fd5b823567ffffffffffffffff811115610ee257600080fd5b610eee85828601610d69565b95602094909401359450505050565b600060208284031215610f0f57600080fd5b813567ffffffffffffffff811115610f2657600080fd5b610f3284828501610d69565b949350505050565b6020808252825182820181905260009190848201906040850190845b81811015610f7b5783516001600160a01b031683529284019291840191600101610f56565b50909695505050505050565b60005b83811015610fa2578181015183820152602001610f8a565b50506000910152565b60008251610fbd818460208701610f87565b9190910192915050565b602080825260159082015274105c9d1a5cdd081b9bdd081c9959da5cdd195c9959605a1b604082015260600190565b634e487b7160e01b600052601160045260246000fd5b8082018082111561049357610493610ff6565b60008151808452611037816020860160208601610f87565b601f01601f19169290920160200192915050565b60608152600061105e606083018661101f565b8281036020840152611070818661101f565b915050826040830152949350505050565b634e487b7160e01b600052603260045260246000fd5b6000600182016110a9576110a9610ff6565b5060010190565b6020808252600e908201526d139bdd08185d5d1a1bdc9a5e995960921b604082015260600190565b6040815260006110eb604083018561101f565b905060018060a01b03831660208301529392505050565b8181038181111561049357610493610ff6565b634e487b7160e01b600052603160045260246000fd5b60608152600061113e606083018661101f565b6001600160a01b03949094166020830152506040015291905056fea26469706673582212207d3544a9ba2892dfc3e6dead8548d42abb0cfc388f5954e354a34817a0bc252864736f6c63430008140033",
  "linkReferences": {},
  "deployedLinkReferences": {}
}