{
  "_format": "hh-sol-artifact-1",
  "contractName": "ZkSyncArtistManager",
  "sourceName": "src/contracts/ZkSyncArtistManager.sol",
  "abi": [
    {
      "inputs": [],
      "stateMutability": "nonpayable",
      "type": "constructor"
    },
    {
      "anonymous": false,
      "inputs": [
        {
          "indexed": true,
          "internalType": "string",
          "name": "applicationId",
          "type": "string"
        },
        {
          "indexed": true,
          "internalType": "string",
          "name": "grantId",
          "type": "string"
        },
        {
          "indexed": true,
          "internalType": "address",
          "name": "artist",
          "type": "address"
        }
      ],
      "name": "ApplicationSubmitted",
      "type": "event"
    },
    {
      "anonymous": false,
      "inputs": [
        {
          "indexed": true,
          "internalType": "string",
          "name": "artistId",
          "type": "string"
        },
        {
          "indexed": true,
          "internalType": "address",
          "name": "wallet",
          "type": "address"
        },
        {
          "indexed": false,
          "internalType": "address",
          "name": "optimismAddress",
          "type": "address"
        }
      ],
      "name": "ArtistRegistered",
      "type": "event"
    },
    {
      "anonymous": false,
      "inputs": [
        {
          "indexed": true,
          "internalType": "uint256",
          "name": "txId",
          "type": "uint256"
        },
        {
          "indexed": true,
          "internalType": "string",
          "name": "artistId",
          "type": "string"
        },
        {
          "indexed": false,
          "internalType": "uint256",
          "name": "amount",
          "type": "uint256"
        },
        {
          "indexed": false,
          "internalType": "string",
          "name": "targetChain",
          "type": "string"
        },
        {
          "indexed": false,
          "internalType": "address",
          "name": "targetAddress",
          "type": "address"
        }
      ],
      "name": "CrossChainTransactionInitiated",
      "type": "event"
    },
    {
      "anonymous": false,
      "inputs": [
        {
          "indexed": true,
          "internalType": "uint256",
          "name": "txId",
          "type": "uint256"
        },
        {
          "indexed": false,
          "internalType": "string",
          "name": "status",
          "type": "string"
        }
      ],
      "name": "CrossChainTransactionUpdated",
      "type": "event"
    },
    {
      "anonymous": false,
      "inputs": [
        {
          "indexed": true,
          "internalType": "string",
          "name": "artistId",
          "type": "string"
        },
        {
          "indexed": true,
          "internalType": "address",
          "name": "wallet",
          "type": "address"
        },
        {
          "indexed": false,
          "internalType": "uint256",
          "name": "amount",
          "type": "uint256"
        }
      ],
      "name": "FundsDistributed",
      "type": "event"
    },
    {
      "anonymous": false,
      "inputs": [
        {
          "indexed": true,
          "internalType": "string",
          "name": "grantId",
          "type": "string"
        },
        {
          "indexed": true,
          "internalType": "string",
          "name": "artistId",
          "type": "string"
        },
        {
          "indexed": false,
          "internalType": "uint256",
          "name": "amount",
          "type": "uint256"
        }
      ],
      "name": "GrantAwarded",
      "type": "event"
    },
    {
      "anonymous": false,
      "inputs": [
        {
          "indexed": true,
          "internalType": "string",
          "name": "grantId",
          "type": "string"
        },
        {
          "indexed": false,
          "internalType": "string",
          "name": "title",
          "type": "string"
        },
        {
          "indexed": false,
          "internalType": "uint256",
          "name": "amount",
          "type": "uint256"
        }
      ],
      "name": "GrantCreated",
      "type": "event"
    },
    {
      "anonymous": false,
      "inputs": [
        {
          "indexed": true,
          "internalType": "address",
          "name": "previousOwner",
          "type": "address"
        },
        {
          "indexed": true,
          "internalType": "address",
          "name": "newOwner",
          "type": "address"
        }
      ],
      "name": "OwnershipTransferred",
      "type": "event"
    },
    {
      "anonymous": false,
      "inputs": [
        {
          "indexed": true,
          "internalType": "string",
          "name": "artistId",
          "type": "string"
        },
        {
          "indexed": false,
          "internalType": "address",
          "name": "sessionKey",
          "type": "address"
        }
      ],
      "name": "SessionKeyAdded",
      "type": "event"
    },
    {
      "anonymous": false,
      "inputs": [
        {
          "indexed": true,
          "internalType": "string",
          "name": "artistId",
          "type": "string"
        },
        {
          "indexed": false,
          "internalType": "address",
          "name": "sessionKey",
          "type": "address"
        }
      ],
      "name": "SessionKeyRemoved",
      "type": "event"
    },
    {
      "inputs": [
        {
          "internalType": "string",
          "name": "artistId",
          "type": "string"
        },
        {
          "internalType": "address",
          "name": "sessionKey",
          "type": "address"
        }
      ],
      "name": "addSessionKey",
      "outputs": [],
      "stateMutability": "nonpayable",
      "type": "function"
    },
    {
      "inputs": [
        {
          "internalType": "string",
          "name": "",
          "type": "string"
        }
      ],
      "name": "applications",
      "outputs": [
        {
          "internalType": "string",
          "name": "id",
          "type": "string"
        },
        {
          "internalType": "string",
          "name": "contentHash",
          "type": "string"
        },
        {
          "internalType": "address",
          "name": "artistAddress",
          "type": "address"
        },
        {
          "internalType": "string",
          "name": "grantId",
          "type": "string"
        },
        {
          "internalType": "uint8",
          "name": "status",
          "type": "uint8"
        },
        {
          "internalType": "uint256",
          "name": "timestamp",
          "type": "uint256"
        }
      ],
      "stateMutability": "view",
      "type": "function"
    },
    {
      "inputs": [
        {
          "internalType": "string",
          "name": "",
          "type": "string"
        },
        {
          "internalType": "uint256",
          "name": "",
          "type": "uint256"
        }
      ],
      "name": "artistSessionKeys",
      "outputs": [
        {
          "internalType": "address",
          "name": "",
          "type": "address"
        }
      ],
      "stateMutability": "view",
      "type": "function"
    },
    {
      "inputs": [
        {
          "internalType": "string",
          "name": "",
          "type": "string"
        }
      ],
      "name": "artists",
      "outputs": [
        {
          "internalType": "string",
          "name": "id",
          "type": "string"
        },
        {
          "internalType": "address",
          "name": "wallet",
          "type": "address"
        },
        {
          "internalType": "address",
          "name": "optimismAddress",
          "type": "address"
        },
        {
          "internalType": "bool",
          "name": "verified",
          "type": "bool"
        }
      ],
      "stateMutability": "view",
      "type": "function"
    },
    {
      "inputs": [
        {
          "internalType": "string",
          "name": "grantId",
          "type": "string"
        },
        {
          "internalType": "string",
          "name": "artistId",
          "type": "string"
        }
      ],
      "name": "awardGrant",
      "outputs": [],
      "stateMutability": "nonpayable",
      "type": "function"
    },
    {
      "inputs": [
        {
          "internalType": "string",
          "name": "grantId",
          "type": "string"
        },
        {
          "internalType": "string",
          "name": "title",
          "type": "string"
        },
        {
          "internalType": "uint256",
          "name": "amount",
          "type": "uint256"
        }
      ],
      "name": "createGrant",
      "outputs": [],
      "stateMutability": "payable",
      "type": "function"
    },
    {
      "inputs": [
        {
          "internalType": "uint256",
          "name": "",
          "type": "uint256"
        }
      ],
      "name": "crossChainTransactions",
      "outputs": [
        {
          "internalType": "uint256",
          "name": "id",
          "type": "uint256"
        },
        {
          "internalType": "string",
          "name": "artistId",
          "type": "string"
        },
        {
          "internalType": "uint256",
          "name": "amount",
          "type": "uint256"
        },
        {
          "internalType": "string",
          "name": "targetChain",
          "type": "string"
        },
        {
          "internalType": "address",
          "name": "targetAddress",
          "type": "address"
        },
        {
          "internalType": "string",
          "name": "status",
          "type": "string"
        },
        {
          "internalType": "uint256",
          "name": "timestamp",
          "type": "uint256"
        }
      ],
      "stateMutability": "view",
      "type": "function"
    },
    {
      "inputs": [
        {
          "internalType": "string",
          "name": "artistId",
          "type": "string"
        }
      ],
      "name": "distributeFunds",
      "outputs": [],
      "stateMutability": "nonpayable",
      "type": "function"
    },
    {
      "inputs": [
        {
          "internalType": "string",
          "name": "applicationId",
          "type": "string"
        }
      ],
      "name": "getApplication",
      "outputs": [
        {
          "components": [
            {
              "internalType": "string",
              "name": "id",
              "type": "string"
            },
            {
              "internalType": "string",
              "name": "contentHash",
              "type": "string"
            },
            {
              "internalType": "address",
              "name": "artistAddress",
              "type": "address"
            },
            {
              "internalType": "string",
              "name": "grantId",
              "type": "string"
            },
            {
              "internalType": "uint8",
              "name": "status",
              "type": "uint8"
            },
            {
              "internalType": "uint256",
              "name": "timestamp",
              "type": "uint256"
            }
          ],
          "internalType": "struct ZkSyncArtistManager.Application",
          "name": "",
          "type": "tuple"
        }
      ],
      "stateMutability": "view",
      "type": "function"
    },
    {
      "inputs": [
        {
          "internalType": "string",
          "name": "artistId",
          "type": "string"
        }
      ],
      "name": "getArtist",
      "outputs": [
        {
          "components": [
            {
              "internalType": "string",
              "name": "id",
              "type": "string"
            },
            {
              "internalType": "address",
              "name": "wallet",
              "type": "address"
            },
            {
              "internalType": "address",
              "name": "optimismAddress",
              "type": "address"
            },
            {
              "internalType": "bool",
              "name": "verified",
              "type": "bool"
            }
          ],
          "internalType": "struct ZkSyncArtistManager.Artist",
          "name": "",
          "type": "tuple"
        }
      ],
      "stateMutability": "view",
      "type": "function"
    },
    {
      "inputs": [
        {
          "internalType": "address",
          "name": "optimismAddress",
          "type": "address"
        }
      ],
      "name": "getArtistByOptimismAddress",
      "outputs": [
        {
          "components": [
            {
              "internalType": "string",
              "name": "id",
              "type": "string"
            },
            {
              "internalType": "address",
              "name": "wallet",
              "type": "address"
            },
            {
              "internalType": "address",
              "name": "optimismAddress",
              "type": "address"
            },
            {
              "internalType": "bool",
              "name": "verified",
              "type": "bool"
            }
          ],
          "internalType": "struct ZkSyncArtistManager.Artist",
          "name": "",
          "type": "tuple"
        }
      ],
      "stateMutability": "view",
      "type": "function"
    },
    {
      "inputs": [
        {
          "internalType": "uint256",
          "name": "txId",
          "type": "uint256"
        }
      ],
      "name": "getCrossChainTransaction",
      "outputs": [
        {
          "components": [
            {
              "internalType": "uint256",
              "name": "id",
              "type": "uint256"
            },
            {
              "internalType": "string",
              "name": "artistId",
              "type": "string"
            },
            {
              "internalType": "uint256",
              "name": "amount",
              "type": "uint256"
            },
            {
              "internalType": "string",
              "name": "targetChain",
              "type": "string"
            },
            {
              "internalType": "address",
              "name": "targetAddress",
              "type": "address"
            },
            {
              "internalType": "string",
              "name": "status",
              "type": "string"
            },
            {
              "internalType": "uint256",
              "name": "timestamp",
              "type": "uint256"
            }
          ],
          "internalType": "struct ZkSyncArtistManager.CrossChainTransaction",
          "name": "",
          "type": "tuple"
        }
      ],
      "stateMutability": "view",
      "type": "function"
    },
    {
      "inputs": [
        {
          "internalType": "string",
          "name": "grantId",
          "type": "string"
        }
      ],
      "name": "getGrant",
      "outputs": [
        {
          "components": [
            {
              "internalType": "string",
              "name": "id",
              "type": "string"
            },
            {
              "internalType": "string",
              "name": "title",
              "type": "string"
            },
            {
              "internalType": "uint256",
              "name": "amount",
              "type": "uint256"
            },
            {
              "internalType": "address",
              "name": "funder",
              "type": "address"
            },
            {
              "internalType": "bool",
              "name": "active",
              "type": "bool"
            }
          ],
          "internalType": "struct ZkSyncArtistManager.Grant",
          "name": "",
          "type": "tuple"
        }
      ],
      "stateMutability": "view",
      "type": "function"
    },
    {
      "inputs": [
        {
          "internalType": "string",
          "name": "artistId",
          "type": "string"
        }
      ],
      "name": "getPendingFunds",
      "outputs": [
        {
          "internalType": "uint256",
          "name": "",
          "type": "uint256"
        }
      ],
      "stateMutability": "view",
      "type": "function"
    },
    {
      "inputs": [
        {
          "internalType": "string",
          "name": "artistId",
          "type": "string"
        }
      ],
      "name": "getSessionKeys",
      "outputs": [
        {
          "internalType": "address[]",
          "name": "",
          "type": "address[]"
        }
      ],
      "stateMutability": "view",
      "type": "function"
    },
    {
      "inputs": [
        {
          "internalType": "string",
          "name": "",
          "type": "string"
        },
        {
          "internalType": "string",
          "name": "",
          "type": "string"
        }
      ],
      "name": "grantApplications",
      "outputs": [
        {
          "internalType": "bool",
          "name": "",
          "type": "bool"
        }
      ],
      "stateMutability": "view",
      "type": "function"
    },
    {
      "inputs": [
        {
          "internalType": "string",
          "name": "",
          "type": "string"
        }
      ],
      "name": "grants",
      "outputs": [
        {
          "internalType": "string",
          "name": "id",
          "type": "string"
        },
        {
          "internalType": "string",
          "name": "title",
          "type": "string"
        },
        {
          "internalType": "uint256",
          "name": "amount",
          "type": "uint256"
        },
        {
          "internalType": "address",
          "name": "funder",
          "type": "address"
        },
        {
          "internalType": "bool",
          "name": "active",
          "type": "bool"
        }
      ],
      "stateMutability": "view",
      "type": "function"
    },
    {
      "inputs": [
        {
          "internalType": "string",
          "name": "artistId",
          "type": "string"
        },
        {
          "internalType": "uint256",
          "name": "amount",
          "type": "uint256"
        },
        {
          "internalType": "string",
          "name": "targetChain",
          "type": "string"
        },
        {
          "internalType": "address",
          "name": "targetAddress",
          "type": "address"
        }
      ],
      "name": "initiateCrossChainTransaction",
      "outputs": [
        {
          "internalType": "uint256",
          "name": "",
          "type": "uint256"
        }
      ],
      "stateMutability": "nonpayable",
      "type": "function"
    },
    {
      "inputs": [
        {
          "internalType": "address",
          "name": "",
          "type": "address"
        }
      ],
      "name": "optimismAddressToArtistId",
      "outputs": [
        {
          "internalType": "string",
          "name": "",
          "type": "string"
        }
      ],
      "stateMutability": "view",
      "type": "function"
    },
    {
      "inputs": [],
      "name": "owner",
      "outputs": [
        {
          "internalType": "address",
          "name": "",
          "type": "address"
        }
      ],
      "stateMutability": "view",
      "type": "function"
    },
    {
      "inputs": [
        {
          "internalType": "string",
          "name": "",
          "type": "string"
        }
      ],
      "name": "pendingFunds",
      "outputs": [
        {
          "internalType": "uint256",
          "name": "",
          "type": "uint256"
        }
      ],
      "stateMutability": "view",
      "type": "function"
    },
    {
      "inputs": [
        {
          "internalType": "string",
          "name": "artistId",
          "type": "string"
        },
        {
          "internalType": "address",
          "name": "wallet",
          "type": "address"
        },
        {
          "internalType": "address",
          "name": "optimismAddress",
          "type": "address"
        }
      ],
      "name": "registerArtist",
      "outputs": [],
      "stateMutability": "nonpayable",
      "type": "function"
    },
    {
      "inputs": [
        {
          "internalType": "string",
          "name": "artistId",
          "type": "string"
        },
        {
          "internalType": "address",
          "name": "wallet",
          "type": "address"
        }
      ],
      "name": "registerArtist",
      "outputs": [],
      "stateMutability": "nonpayable",
      "type": "function"
    },
    {
      "inputs": [
        {
          "internalType": "string",
          "name": "artistId",
          "type": "string"
        },
        {
          "internalType": "address",
          "name": "sessionKey",
          "type": "address"
        }
      ],
      "name": "removeSessionKey",
      "outputs": [],
      "stateMutability": "nonpayable",
      "type": "function"
    },
    {
      "inputs": [],
      "name": "renounceOwnership",
      "outputs": [],
      "stateMutability": "nonpayable",
      "type": "function"
    },
    {
      "inputs": [
        {
          "internalType": "string",
          "name": "applicationId",
          "type": "string"
        },
        {
          "internalType": "string",
          "name": "contentHash",
          "type": "string"
        },
        {
          "internalType": "string",
          "name": "grantId",
          "type": "string"
        }
      ],
      "name": "submitApplication",
      "outputs": [],
      "stateMutability": "nonpayable",
      "type": "function"
    },
    {
      "inputs": [
        {
          "internalType": "address",
          "name": "newOwner",
          "type": "address"
        }
      ],
      "name": "transferOwnership",
      "outputs": [],
      "stateMutability": "nonpayable",
      "type": "function"
    },
    {
      "inputs": [
        {
          "internalType": "uint256",
          "name": "txId",
          "type": "uint256"
        },
        {
          "internalType": "string",
          "name": "status",
          "type": "string"
        }
      ],
      "name": "updateCrossChainTransactionStatus",
      "outputs": [],
      "stateMutability": "nonpayable",
      "type": "function"
    },
    {
      "stateMutability": "payable",
      "type": "receive"
    }
  ],
  "bytecode": "0x60806040523480156200001157600080fd5b506200001d3362000027565b6001805562000077565b600080546001600160a01b038381166001600160a01b0319831681178455604051919092169283917f8be0079c531659141344cd1fd0a4f28419497f9722a3daafe3b4186f6b6457e09190a35050565b61378980620000876000396000f3fe6080604052600436106101ba5760003560e01c80637dcd0e3f116100ec578063b2b37d3c1161008a578063dac343b211610064578063dac343b21461059f578063e6f5291b146105d7578063ed7d7e4f14610604578063f2fde38b1461063157600080fd5b8063b2b37d3c1461054c578063c8f79e7a1461056c578063d0daaf3d1461057f57600080fd5b806397823c17116100c657806397823c17146104b157806398bf3752146104de578063a0f320c51461050c578063a2498ab31461052c57600080fd5b80637dcd0e3f146104465780638da5cb5b14610466578063930a15181461048457600080fd5b80634a37472c11610159578063645f318711610133578063645f31871461039c5780636985629f146103d45780636b9b94ac14610401578063715018a61461043157600080fd5b80634a37472c1461032f5780634b531c051461034f5780635755b9bc1461037c57600080fd5b8063336da28411610195578063336da2841461024357806333aec12a1461026357806335a9cfdb146102945780633f6017ac146102fc57600080fd5b8062e9bc54146101c657806314df98b3146101e8578063185f48821461020857600080fd5b366101c157005b600080fd5b3480156101d257600080fd5b506101e66101e1366004612d7f565b610651565b005b3480156101f457600080fd5b506101e6610203366004612ddd565b6108a9565b34801561021457600080fd5b50610228610223366004612e41565b610aec565b60405161023a96959493929190612ec6565b60405180910390f35b34801561024f57600080fd5b506101e661025e366004612f27565b610cd6565b34801561026f57600080fd5b5061028361027e366004612e41565b610edd565b60405161023a959493929190612f75565b3480156102a057600080fd5b506102ec6102af366004612ddd565b8151602081840181018051600482529282019482019490942091909352815180830184018051928152908401929093019190912091525460ff1681565b604051901515815260200161023a565b34801561030857600080fd5b5061031c610317366004612fc3565b611035565b60405161023a9796959493929190612fdc565b34801561033b57600080fd5b506101e661034a366004613045565b611217565b34801561035b57600080fd5b5061036f61036a366004612e41565b611486565b60405161023a91906130cd565b34801561038857600080fd5b506101e6610397366004612f27565b611646565b3480156103a857600080fd5b506103bc6103b736600461313b565b61165e565b6040516001600160a01b03909116815260200161023a565b3480156103e057600080fd5b506103f46103ef366004613180565b6116a5565b60405161023a91906131a2565b34801561040d57600080fd5b5061042161041c366004612e41565b6118a7565b60405161023a94939291906131fa565b34801561043d57600080fd5b506101e6611975565b34801561045257600080fd5b506101e6610461366004612f27565b611989565b34801561047257600080fd5b506000546001600160a01b03166103bc565b34801561049057600080fd5b506104a461049f366004612e41565b611bc1565b60405161023a9190613235565b3480156104bd57600080fd5b506104d16104cc366004612fc3565b611c3b565b60405161023a9190613282565b3480156104ea57600080fd5b506104fe6104f936600461331b565b611ef1565b60405190815260200161023a565b34801561051857600080fd5b506104fe610527366004612e41565b612147565b34801561053857600080fd5b506103f4610547366004612e41565b61216f565b34801561055857600080fd5b506101e6610567366004612e41565b612287565b6101e661057a366004613399565b612473565b34801561058b57600080fd5b506101e661059a366004613406565b612665565b3480156105ab57600080fd5b506104fe6105ba366004612e41565b805160208183018101805160058252928201919093012091525481565b3480156105e357600080fd5b506105f76105f2366004612e41565b612854565b60405161023a9190613443565b34801561061057600080fd5b5061062461061f366004613180565b612aad565b60405161023a91906134d4565b34801561063d57600080fd5b506101e661064c366004613180565b612b47565b610659612bbd565b6001600160a01b0382166106ad5760405162461bcd60e51b8152602060048201526016602482015275496e76616c69642077616c6c6574206164647265737360501b60448201526064015b60405180910390fd5b60008351116106f25760405162461bcd60e51b8152602060048201526011602482015270125b9d985b1a5908185c9d1a5cdd081251607a1b60448201526064016106a4565b60028360405161070291906134e7565b9081526040519081900360200190206002015460ff600160a01b909104161561076d5760405162461bcd60e51b815260206004820152601960248201527f41727469737420616c726561647920726567697374657265640000000000000060448201526064016106a4565b604080516080810182528481526001600160a01b0380851660208301528316818301526001606082015290516002906107a79086906134e7565b908152604051908190036020019020815181906107c4908261358c565b5060208201516001820180546001600160a01b039283166001600160a01b03199091161790556040830151600290920180546060909401511515600160a01b026001600160a81b031990941692821692909217929092179055811615610848576001600160a01b0381166000908152600960205260409020610846848261358c565b505b816001600160a01b03168360405161086091906134e7565b6040519081900381206001600160a01b0384168252907f94e68bbf4dde11c6eb6880dc2d974331b56348988426553e1480bedce9fb6004906020015b60405180910390a3505050565b6108b1612bbd565b6003826040516108c191906134e7565b9081526040519081900360200190206003015460ff600160a01b9091041661091e5760405162461bcd60e51b815260206004820152601060248201526f4772616e74206e6f742061637469766560801b60448201526064016106a4565b60028160405161092e91906134e7565b9081526040519081900360200190206002015460ff600160a01b909104166109685760405162461bcd60e51b81526004016106a49061364c565b60048260405161097891906134e7565b90815260200160405180910390208160405161099491906134e7565b9081526040519081900360200190205460ff16156109e65760405162461bcd60e51b815260206004820152600f60248201526e105b1c9958591e48185dd85c991959608a1b60448201526064016106a4565b60006003836040516109f891906134e7565b908152602001604051809103902090506001600484604051610a1a91906134e7565b908152602001604051809103902083604051610a3691906134e7565b908152604051908190036020018120805492151560ff1990931692909217909155600282015490600590610a6b9085906134e7565b90815260200160405180910390206000828254610a88919061368f565b9091555050604051610a9b9083906134e7565b604051809103902083604051610ab191906134e7565b60405190819003812060028401548252907f68a9a147328b8386f7335122943cb30c598015c517b72dc5d1c04604a062c10d9060200161089c565b8051602081830181018051600682529282019190930120915280548190610b1290613503565b80601f0160208091040260200160405190810160405280929190818152602001828054610b3e90613503565b8015610b8b5780601f10610b6057610100808354040283529160200191610b8b565b820191906000526020600020905b815481529060010190602001808311610b6e57829003601f168201915b505050505090806001018054610ba090613503565b80601f0160208091040260200160405190810160405280929190818152602001828054610bcc90613503565b8015610c195780601f10610bee57610100808354040283529160200191610c19565b820191906000526020600020905b815481529060010190602001808311610bfc57829003601f168201915b505050600284015460038501805494956001600160a01b03909216949193509150610c4390613503565b80601f0160208091040260200160405190810160405280929190818152602001828054610c6f90613503565b8015610cbc5780601f10610c9157610100808354040283529160200191610cbc565b820191906000526020600020905b815481529060010190602001808311610c9f57829003601f168201915b505050506004830154600590930154919260ff1691905086565b610cde612bbd565b6001600160a01b038116610d2a5760405162461bcd60e51b8152602060048201526013602482015272496e76616c69642073657373696f6e206b657960681b60448201526064016106a4565b600282604051610d3a91906134e7565b9081526040519081900360200190206002015460ff600160a01b90910416610d9c5760405162461bcd60e51b8152602060048201526015602482015274105c9d1a5cdd081b9bdd081c9959da5cdd195c9959605a1b60448201526064016106a4565b6000600783604051610dae91906134e7565b9081526020016040518091039020905060005b8154811015610e5a57826001600160a01b0316828281548110610de657610de66136a8565b6000918252602090912001546001600160a01b031603610e485760405162461bcd60e51b815260206004820152601a60248201527f53657373696f6e206b657920616c72656164792065786973747300000000000060448201526064016106a4565b80610e52816136be565b915050610dc1565b5080546001810182556000828152602090200180546001600160a01b0319166001600160a01b038416179055604051610e949084906134e7565b6040519081900381206001600160a01b0384168252907f4ff861a85f25e80d0296e9e41321688bf498d3337acd76e3c80e9b457aa7a20e906020015b60405180910390a2505050565b8051602081830181018051600382529282019190930120915280548190610f0390613503565b80601f0160208091040260200160405190810160405280929190818152602001828054610f2f90613503565b8015610f7c5780601f10610f5157610100808354040283529160200191610f7c565b820191906000526020600020905b815481529060010190602001808311610f5f57829003601f168201915b505050505090806001018054610f9190613503565b80601f0160208091040260200160405190810160405280929190818152602001828054610fbd90613503565b801561100a5780601f10610fdf5761010080835404028352916020019161100a565b820191906000526020600020905b815481529060010190602001808311610fed57829003601f168201915b5050505060028301546003909301549192916001600160a01b0381169150600160a01b900460ff1685565b6008602052600090815260409020805460018201805491929161105790613503565b80601f016020809104026020016040519081016040528092919081815260200182805461108390613503565b80156110d05780601f106110a5576101008083540402835291602001916110d0565b820191906000526020600020905b8154815290600101906020018083116110b357829003601f168201915b5050505050908060020154908060030180546110eb90613503565b80601f016020809104026020016040519081016040528092919081815260200182805461111790613503565b80156111645780601f1061113957610100808354040283529160200191611164565b820191906000526020600020905b81548152906001019060200180831161114757829003601f168201915b505050600484015460058501805494956001600160a01b0390921694919350915061118e90613503565b80601f01602080910402602001604051908101604052809291908181526020018280546111ba90613503565b80156112075780601f106111dc57610100808354040283529160200191611207565b820191906000526020600020905b8154815290600101906020018083116111ea57829003601f168201915b5050505050908060060154905087565b60008351116112615760405162461bcd60e51b8152602060048201526016602482015275125b9d985b1a5908185c1c1b1a58d85d1a5bdb88125160521b60448201526064016106a4565b60008251116112a95760405162461bcd60e51b8152602060048201526014602482015273092dcecc2d8d2c840c6dedce8cadce840d0c2e6d60631b60448201526064016106a4565b60008151116112ed5760405162461bcd60e51b815260206004820152601060248201526f125b9d985b1a590819dc985b9d08125160821b60448201526064016106a4565b6003816040516112fd91906134e7565b9081526040519081900360200190206003015460ff600160a01b9091041661135a5760405162461bcd60e51b815260206004820152601060248201526f4772616e74206e6f742061637469766560801b60448201526064016106a4565b6040805160c08101825284815260208101849052338183015260608101839052600060808201524260a082015290516006906113979086906134e7565b908152604051908190036020019020815181906113b4908261358c565b50602082015160018201906113c9908261358c565b5060408201516002820180546001600160a01b0319166001600160a01b0390921691909117905560608201516003820190611404908261358c565b50608082015160048201805460ff191660ff90921691909117905560a090910151600590910155604051339061143b9083906134e7565b60405180910390208460405161145191906134e7565b604051908190038120907f171d2b8af51615156e439e97776c56d7d8e895d7ec19c65f4a33d7f593aa72bf90600090a4505050565b6114c36040518060a0016040528060608152602001606081526020016000815260200160006001600160a01b031681526020016000151581525090565b6003826040516114d391906134e7565b90815260200160405180910390206040518060a00160405290816000820180546114fc90613503565b80601f016020809104026020016040519081016040528092919081815260200182805461152890613503565b80156115755780601f1061154a57610100808354040283529160200191611575565b820191906000526020600020905b81548152906001019060200180831161155857829003601f168201915b5050505050815260200160018201805461158e90613503565b80601f01602080910402602001604051908101604052809291908181526020018280546115ba90613503565b80156116075780601f106115dc57610100808354040283529160200191611607565b820191906000526020600020905b8154815290600101906020018083116115ea57829003601f168201915b5050509183525050600282015460208201526003909101546001600160a01b0381166040830152600160a01b900460ff16151560609091015292915050565b61164e612bbd565b61165a82826000610651565b5050565b8151602081840181018051600782529282019185019190912091905280548290811061168957600080fd5b6000918252602090912001546001600160a01b03169150829050565b6040805160808101825260608082526000602083018190529282018390528101919091526001600160a01b038216600090815260096020526040812080546116ec90613503565b80601f016020809104026020016040519081016040528092919081815260200182805461171890613503565b80156117655780601f1061173a57610100808354040283529160200191611765565b820191906000526020600020905b81548152906001019060200180831161174857829003601f168201915b5050505050905060008151116117b05760405162461bcd60e51b815260206004820152601060248201526f105c9d1a5cdd081b9bdd08199bdd5b9960821b60448201526064016106a4565b6002816040516117c091906134e7565b90815260200160405180910390206040518060800160405290816000820180546117e990613503565b80601f016020809104026020016040519081016040528092919081815260200182805461181590613503565b80156118625780601f1061183757610100808354040283529160200191611862565b820191906000526020600020905b81548152906001019060200180831161184557829003601f168201915b505050918352505060018201546001600160a01b0390811660208301526002909201549182166040820152600160a01b90910460ff1615156060909101529392505050565b80516020818301810180516002825292820191909301209152805481906118cd90613503565b80601f01602080910402602001604051908101604052809291908181526020018280546118f990613503565b80156119465780601f1061191b57610100808354040283529160200191611946565b820191906000526020600020905b81548152906001019060200180831161192957829003601f168201915b50505050600183015460029093015491926001600160a01b03908116929081169150600160a01b900460ff1684565b61197d612bbd565b6119876000612c17565b565b611991612bbd565b6002826040516119a191906134e7565b9081526040519081900360200190206002015460ff600160a01b90910416611a035760405162461bcd60e51b8152602060048201526015602482015274105c9d1a5cdd081b9bdd081c9959da5cdd195c9959605a1b60448201526064016106a4565b6000600783604051611a1591906134e7565b9081526020016040518091039020905060005b8154811015611b8057826001600160a01b0316828281548110611a4d57611a4d6136a8565b6000918252602090912001546001600160a01b031603611b6e5781548290611a77906001906136d7565b81548110611a8757611a876136a8565b9060005260206000200160009054906101000a90046001600160a01b0316828281548110611ab757611ab76136a8565b9060005260206000200160006101000a8154816001600160a01b0302191690836001600160a01b0316021790555081805480611af557611af56136ea565b600082815260209020810160001990810180546001600160a01b0319169055019055604051611b259085906134e7565b6040519081900381206001600160a01b0385168252907ff04aead0ff8f79f2307f9b921ea2210ef4fd003b96befe92c2a8b262ceee64de9060200160405180910390a250505050565b80611b78816136be565b915050611a28565b5060405162461bcd60e51b815260206004820152601560248201527414d95cdcda5bdb881ad95e481b9bdd08199bdd5b99605a1b60448201526064016106a4565b6060600782604051611bd391906134e7565b9081526040805191829003602090810183208054808302850183019093528284529190830182828015611c2f57602002820191906000526020600020905b81546001600160a01b03168152600190910190602001808311611c11575b50505050509050919050565b611c846040518060e001604052806000815260200160608152602001600081526020016060815260200160006001600160a01b0316815260200160608152602001600081525090565b6000828152600860205260409020548214611ce15760405162461bcd60e51b815260206004820152601a60248201527f5472616e73616374696f6e20646f6573206e6f7420657869737400000000000060448201526064016106a4565b600860008381526020019081526020016000206040518060e001604052908160008201548152602001600182018054611d1990613503565b80601f0160208091040260200160405190810160405280929190818152602001828054611d4590613503565b8015611d925780601f10611d6757610100808354040283529160200191611d92565b820191906000526020600020905b815481529060010190602001808311611d7557829003601f168201915b5050505050815260200160028201548152602001600382018054611db590613503565b80601f0160208091040260200160405190810160405280929190818152602001828054611de190613503565b8015611e2e5780601f10611e0357610100808354040283529160200191611e2e565b820191906000526020600020905b815481529060010190602001808311611e1157829003601f168201915b505050918352505060048201546001600160a01b03166020820152600582018054604090920191611e5e90613503565b80601f0160208091040260200160405190810160405280929190818152602001828054611e8a90613503565b8015611ed75780601f10611eac57610100808354040283529160200191611ed7565b820191906000526020600020905b815481529060010190602001808311611eba57829003601f168201915b505050505081526020016006820154815250509050919050565b6000611efb612bbd565b611f03612c67565b6000600286604051611f1591906134e7565b908152604051908190036020019020600281015490915060ff600160a01b90910416611f535760405162461bcd60e51b81526004016106a49061364c565b84600587604051611f6491906134e7565b9081526020016040518091039020541015611fb65760405162461bcd60e51b8152602060048201526012602482015271496e73756666696369656e742066756e647360701b60448201526064016106a4565b84600587604051611fc791906134e7565b90815260200160405180910390206000828254611fe491906136d7565b9091555050600a805460010190556000611ffd600a5490565b6040805160e08101825282815260208082018b81528284018b9052606083018a90526001600160a01b038916608084015283518085018552600781526670656e64696e6760c81b8184015260a08401524260c084015260008581526008909252929020815181559151929350916001820190612079908261358c565b506040820151600282015560608201516003820190612098908261358c565b5060808201516004820180546001600160a01b0319166001600160a01b0390921691909117905560a082015160058201906120d3908261358c565b5060c08201518160060155905050866040516120ef91906134e7565b6040518091039020817ff6808f653ef7d46db0570134abf7ae3f5d04ba40c49bbc5de2b2f841bee9274188888860405161212b93929190613700565b60405180910390a391505061213f60018055565b949350505050565b600060058260405161215991906134e7565b9081526020016040518091039020549050919050565b6040805160808101825260608082526000602083018190528284018190529082015290516002906121a19084906134e7565b90815260200160405180910390206040518060800160405290816000820180546121ca90613503565b80601f01602080910402602001604051908101604052809291908181526020018280546121f690613503565b80156122435780601f1061221857610100808354040283529160200191612243565b820191906000526020600020905b81548152906001019060200180831161222657829003601f168201915b505050918352505060018201546001600160a01b0390811660208301526002909201549182166040820152600160a01b90910460ff16151560609091015292915050565b61228f612c67565b60006002826040516122a191906134e7565b908152604051908190036020019020600281015490915060ff600160a01b909104166122df5760405162461bcd60e51b81526004016106a49061364c565b60006005836040516122f191906134e7565b90815260200160405180910390205490506000811161234b5760405162461bcd60e51b81526020600482015260166024820152754e6f2066756e647320746f206469737472696275746560501b60448201526064016106a4565b600060058460405161235d91906134e7565b9081526040519081900360200181209190915560018301546000916001600160a01b0390911690839060006040518083038185875af1925050503d80600081146123c3576040519150601f19603f3d011682016040523d82523d6000602084013e6123c8565b606091505b505090508061240b5760405162461bcd60e51b815260206004820152600f60248201526e151c985b9cd9995c8819985a5b1959608a1b60448201526064016106a4565b60018301546040516001600160a01b039091169061242a9086906134e7565b604051908190038120848252907f054d53368c7f57909410721809acf5632411d3c372442c62b3f30ebfe5405c659060200160405180910390a350505061247060018055565b50565b8034146124ba5760405162461bcd60e51b8152602060048201526015602482015274125b98dbdc9c9958dd08199d5b9908185b5bdd5b9d605a1b60448201526064016106a4565b60008351116124fe5760405162461bcd60e51b815260206004820152601060248201526f125b9d985b1a590819dc985b9d08125160821b60448201526064016106a4565b60038360405161250e91906134e7565b9081526040519081900360200190206003015460ff600160a01b90910416156125705760405162461bcd60e51b81526020600482015260146024820152734772616e7420616c72656164792065786973747360601b60448201526064016106a4565b6040805160a081018252848152602081018490528082018390523360608201526001608082015290516003906125a79086906134e7565b908152604051908190036020019020815181906125c4908261358c565b50602082015160018201906125d9908261358c565b5060408281015160028301556060830151600390920180546080909401511515600160a01b026001600160a81b03199094166001600160a01b03909316929092179290921790555161262c9084906134e7565b60405180910390207f70a5093558db26a78bec3bdd867fd0e08a00f34272282654c4a483e02f494fa28383604051610ed0929190613731565b61266d612bbd565b60008281526008602052604090205482146126ca5760405162461bcd60e51b815260206004820152601a60248201527f5472616e73616374696f6e20646f6573206e6f7420657869737400000000000060448201526064016106a4565b60008281526008602052604090206005016126e5828261358c565b50817f7df5c9d82741868217808cba3b4a79e7dd0936e5588c736f24adcd4802e979598260405161271691906134d4565b60405180910390a260408051808201909152600681526519985a5b195960d21b6020918201528151908201207f70bb2974e5d9e962cfbadd05d06a556c7267edf29d72e24a8d9edf357b1ac4bd0161165a576000828152600860205260408120600101805461278490613503565b80601f01602080910402602001604051908101604052809291908181526020018280546127b090613503565b80156127fd5780601f106127d2576101008083540402835291602001916127fd565b820191906000526020600020905b8154815290600101906020018083116127e057829003601f168201915b50505060008681526008602052604090819020600201549051939450928392506005915061282c9085906134e7565b90815260200160405180910390206000828254612849919061368f565b909155505050505050565b6128996040518060c00160405280606081526020016060815260200160006001600160a01b0316815260200160608152602001600060ff168152602001600081525090565b6006826040516128a991906134e7565b90815260200160405180910390206040518060c00160405290816000820180546128d290613503565b80601f01602080910402602001604051908101604052809291908181526020018280546128fe90613503565b801561294b5780601f106129205761010080835404028352916020019161294b565b820191906000526020600020905b81548152906001019060200180831161292e57829003601f168201915b5050505050815260200160018201805461296490613503565b80601f016020809104026020016040519081016040528092919081815260200182805461299090613503565b80156129dd5780601f106129b2576101008083540402835291602001916129dd565b820191906000526020600020905b8154815290600101906020018083116129c057829003601f168201915b505050918352505060028201546001600160a01b03166020820152600382018054604090920191612a0d90613503565b80601f0160208091040260200160405190810160405280929190818152602001828054612a3990613503565b8015612a865780601f10612a5b57610100808354040283529160200191612a86565b820191906000526020600020905b815481529060010190602001808311612a6957829003601f168201915b5050509183525050600482015460ff16602082015260059091015460409091015292915050565b60096020526000908152604090208054612ac690613503565b80601f0160208091040260200160405190810160405280929190818152602001828054612af290613503565b8015612b3f5780601f10612b1457610100808354040283529160200191612b3f565b820191906000526020600020905b815481529060010190602001808311612b2257829003601f168201915b505050505081565b612b4f612bbd565b6001600160a01b038116612bb45760405162461bcd60e51b815260206004820152602660248201527f4f776e61626c653a206e6577206f776e657220697320746865207a65726f206160448201526564647265737360d01b60648201526084016106a4565b61247081612c17565b6000546001600160a01b031633146119875760405162461bcd60e51b815260206004820181905260248201527f4f776e61626c653a2063616c6c6572206973206e6f7420746865206f776e657260448201526064016106a4565b600080546001600160a01b038381166001600160a01b0319831681178455604051919092169283917f8be0079c531659141344cd1fd0a4f28419497f9722a3daafe3b4186f6b6457e09190a35050565b600260015403612cb95760405162461bcd60e51b815260206004820152601f60248201527f5265656e7472616e637947756172643a207265656e7472616e742063616c6c0060448201526064016106a4565b6002600155565b634e487b7160e01b600052604160045260246000fd5b600082601f830112612ce757600080fd5b813567ffffffffffffffff80821115612d0257612d02612cc0565b604051601f8301601f19908116603f01168101908282118183101715612d2a57612d2a612cc0565b81604052838152866020858801011115612d4357600080fd5b836020870160208301376000602085830101528094505050505092915050565b80356001600160a01b0381168114612d7a57600080fd5b919050565b600080600060608486031215612d9457600080fd5b833567ffffffffffffffff811115612dab57600080fd5b612db786828701612cd6565b935050612dc660208501612d63565b9150612dd460408501612d63565b90509250925092565b60008060408385031215612df057600080fd5b823567ffffffffffffffff80821115612e0857600080fd5b612e1486838701612cd6565b93506020850135915080821115612e2a57600080fd5b50612e3785828601612cd6565b9150509250929050565b600060208284031215612e5357600080fd5b813567ffffffffffffffff811115612e6a57600080fd5b61213f84828501612cd6565b60005b83811015612e91578181015183820152602001612e79565b50506000910152565b60008151808452612eb2816020860160208601612e76565b601f01601f19169290920160200192915050565b60c081526000612ed960c0830189612e9a565b8281036020840152612eeb8189612e9a565b6001600160a01b038816604085015283810360608501529050612f0e8187612e9a565b60ff959095166080840152505060a00152949350505050565b60008060408385031215612f3a57600080fd5b823567ffffffffffffffff811115612f5157600080fd5b612f5d85828601612cd6565b925050612f6c60208401612d63565b90509250929050565b60a081526000612f8860a0830188612e9a565b8281036020840152612f9a8188612e9a565b604084019690965250506001600160a01b03929092166060830152151560809091015292915050565b600060208284031215612fd557600080fd5b5035919050565b87815260e060208201526000612ff560e0830189612e9a565b876040840152828103606084015261300d8188612e9a565b6001600160a01b038716608085015283810360a085015290506130308186612e9a565b9150508260c083015298975050505050505050565b60008060006060848603121561305a57600080fd5b833567ffffffffffffffff8082111561307257600080fd5b61307e87838801612cd6565b9450602086013591508082111561309457600080fd5b6130a087838801612cd6565b935060408601359150808211156130b657600080fd5b506130c386828701612cd6565b9150509250925092565b602081526000825160a060208401526130e960c0840182612e9a565b90506020840151601f198483030160408501526131068282612e9a565b9150506040840151606084015260018060a01b0360608501511660808401526080840151151560a08401528091505092915050565b6000806040838503121561314e57600080fd5b823567ffffffffffffffff81111561316557600080fd5b61317185828601612cd6565b95602094909401359450505050565b60006020828403121561319257600080fd5b61319b82612d63565b9392505050565b6020815260008251608060208401526131be60a0840182612e9a565b60208501516001600160a01b03908116604086810191909152860151166060808601919091529094015115156080909301929092525090919050565b60808152600061320d6080830187612e9a565b6001600160a01b03958616602084015293909416604082015290151560609091015292915050565b6020808252825182820181905260009190848201906040850190845b818110156132765783516001600160a01b031683529284019291840191600101613251565b50909695505050505050565b60208152815160208201526000602083015160e060408401526132a9610100840182612e9a565b9050604084015160608401526060840151601f19808584030160808601526132d18383612e9a565b60808701516001600160a01b031660a08781019190915287015186820390920160c0870152925090506133048282612e9a565b91505060c084015160e08401528091505092915050565b6000806000806080858703121561333157600080fd5b843567ffffffffffffffff8082111561334957600080fd5b61335588838901612cd6565b955060208701359450604087013591508082111561337257600080fd5b5061337f87828801612cd6565b92505061338e60608601612d63565b905092959194509250565b6000806000606084860312156133ae57600080fd5b833567ffffffffffffffff808211156133c657600080fd5b6133d287838801612cd6565b945060208601359150808211156133e857600080fd5b506133f586828701612cd6565b925050604084013590509250925092565b6000806040838503121561341957600080fd5b82359150602083013567ffffffffffffffff81111561343757600080fd5b612e3785828601612cd6565b602081526000825160c0602084015261345f60e0840182612e9a565b90506020840151601f198085840301604086015261347d8383612e9a565b60408701516001600160a01b03166060878101919091528701518682039092016080870152925090506134b08282612e9a565b91505060ff60808501511660a084015260a084015160c08401528091505092915050565b60208152600061319b6020830184612e9a565b600082516134f9818460208701612e76565b9190910192915050565b600181811c9082168061351757607f821691505b60208210810361353757634e487b7160e01b600052602260045260246000fd5b50919050565b601f82111561358757600081815260208120601f850160051c810160208610156135645750805b601f850160051c820191505b8181101561358357828155600101613570565b5050505b505050565b815167ffffffffffffffff8111156135a6576135a6612cc0565b6135ba816135b48454613503565b8461353d565b602080601f8311600181146135ef57600084156135d75750858301515b600019600386901b1c1916600185901b178555613583565b600085815260208120601f198616915b8281101561361e578886015182559484019460019091019084016135ff565b508582101561363c5787850151600019600388901b60f8161c191681555b5050505050600190811b01905550565b602080825260139082015272105c9d1a5cdd081b9bdd081d995c9a599a5959606a1b604082015260600190565b634e487b7160e01b600052601160045260246000fd5b808201808211156136a2576136a2613679565b92915050565b634e487b7160e01b600052603260045260246000fd5b6000600182016136d0576136d0613679565b5060010190565b818103818111156136a2576136a2613679565b634e487b7160e01b600052603160045260246000fd5b8381526060602082015260006137196060830185612e9a565b905060018060a01b0383166040830152949350505050565b6040815260006137446040830185612e9a565b9050826020830152939250505056fea2646970667358221220348c3ca9e52445498b0c7710e533466bbca0746a00c6d4fe7464af696597369764736f6c63430008140033",
  "linkReferences": {},
  "deployedLinkReferences": {}
}