{
  "_format": "hh-sol-artifact-1",
  "contractName": "FundDistribution",
  "sourceName": "src/contracts/FundDistribution.sol",
  "abi": [
    {
      "inputs": [],
      "stateMutability": "nonpayable",
      "type": "constructor"
    },
    {
      "anonymous": false,
      "inputs": [
        {
          "indexed": true,
          "internalType": "uint256",
          "name": "id",
          "type": "uint256"
        },
        {
          "indexed": false,
          "internalType": "enum FundDistribution.ApplicationStatus",
          "name": "status",
          "type": "uint8"
        },
        {
          "indexed": false,
          "internalType": "uint256",
          "name": "approvedAmount",
          "type": "uint256"
        }
      ],
      "name": "ApplicationStatusChanged",
      "type": "event"
    },
    {
      "anonymous": false,
      "inputs": [
        {
          "indexed": true,
          "internalType": "uint256",
          "name": "id",
          "type": "uint256"
        },
        {
          "indexed": false,
          "internalType": "uint256",
          "name": "grantId",
          "type": "uint256"
        },
        {
          "indexed": false,
          "internalType": "address",
          "name": "applicant",
          "type": "address"
        },
        {
          "indexed": false,
          "internalType": "uint256",
          "name": "requestedAmount",
          "type": "uint256"
        }
      ],
      "name": "ApplicationSubmitted",
      "type": "event"
    },
    {
      "anonymous": false,
      "inputs": [
        {
          "indexed": true,
          "internalType": "address",
          "name": "token",
          "type": "address"
        },
        {
          "indexed": false,
          "internalType": "address",
          "name": "depositor",
          "type": "address"
        },
        {
          "indexed": false,
          "internalType": "uint256",
          "name": "amount",
          "type": "uint256"
        }
      ],
      "name": "FundsDeposited",
      "type": "event"
    },
    {
      "anonymous": false,
      "inputs": [
        {
          "indexed": true,
          "internalType": "address",
          "name": "token",
          "type": "address"
        },
        {
          "indexed": false,
          "internalType": "address",
          "name": "recipient",
          "type": "address"
        },
        {
          "indexed": false,
          "internalType": "uint256",
          "name": "amount",
          "type": "uint256"
        }
      ],
      "name": "FundsWithdrawn",
      "type": "event"
    },
    {
      "anonymous": false,
      "inputs": [
        {
          "indexed": true,
          "internalType": "uint256",
          "name": "id",
          "type": "uint256"
        },
        {
          "indexed": false,
          "internalType": "string",
          "name": "title",
          "type": "string"
        },
        {
          "indexed": false,
          "internalType": "uint256",
          "name": "amount",
          "type": "uint256"
        },
        {
          "indexed": false,
          "internalType": "address",
          "name": "token",
          "type": "address"
        },
        {
          "indexed": false,
          "internalType": "address",
          "name": "creator",
          "type": "address"
        }
      ],
      "name": "GrantCreated",
      "type": "event"
    },
    {
      "anonymous": false,
      "inputs": [
        {
          "indexed": true,
          "internalType": "uint256",
          "name": "id",
          "type": "uint256"
        },
        {
          "indexed": false,
          "internalType": "string",
          "name": "title",
          "type": "string"
        },
        {
          "indexed": false,
          "internalType": "uint256",
          "name": "amount",
          "type": "uint256"
        },
        {
          "indexed": false,
          "internalType": "bool",
          "name": "active",
          "type": "bool"
        }
      ],
      "name": "GrantUpdated",
      "type": "event"
    },
    {
      "anonymous": false,
      "inputs": [
        {
          "indexed": false,
          "internalType": "address",
          "name": "account",
          "type": "address"
        }
      ],
      "name": "Paused",
      "type": "event"
    },
    {
      "anonymous": false,
      "inputs": [
        {
          "indexed": true,
          "internalType": "uint256",
          "name": "id",
          "type": "uint256"
        },
        {
          "indexed": false,
          "internalType": "uint256",
          "name": "applicationId",
          "type": "uint256"
        },
        {
          "indexed": false,
          "internalType": "address",
          "name": "recipient",
          "type": "address"
        },
        {
          "indexed": false,
          "internalType": "uint256",
          "name": "amount",
          "type": "uint256"
        },
        {
          "indexed": false,
          "internalType": "address",
          "name": "token",
          "type": "address"
        }
      ],
      "name": "PaymentProcessed",
      "type": "event"
    },
    {
      "anonymous": false,
      "inputs": [
        {
          "indexed": true,
          "internalType": "bytes32",
          "name": "role",
          "type": "bytes32"
        },
        {
          "indexed": true,
          "internalType": "bytes32",
          "name": "previousAdminRole",
          "type": "bytes32"
        },
        {
          "indexed": true,
          "internalType": "bytes32",
          "name": "newAdminRole",
          "type": "bytes32"
        }
      ],
      "name": "RoleAdminChanged",
      "type": "event"
    },
    {
      "anonymous": false,
      "inputs": [
        {
          "indexed": true,
          "internalType": "bytes32",
          "name": "role",
          "type": "bytes32"
        },
        {
          "indexed": true,
          "internalType": "address",
          "name": "account",
          "type": "address"
        },
        {
          "indexed": true,
          "internalType": "address",
          "name": "sender",
          "type": "address"
        }
      ],
      "name": "RoleGranted",
      "type": "event"
    },
    {
      "anonymous": false,
      "inputs": [
        {
          "indexed": true,
          "internalType": "bytes32",
          "name": "role",
          "type": "bytes32"
        },
        {
          "indexed": true,
          "internalType": "address",
          "name": "account",
          "type": "address"
        },
        {
          "indexed": true,
          "internalType": "address",
          "name": "sender",
          "type": "address"
        }
      ],
      "name": "RoleRevoked",
      "type": "event"
    },
    {
      "anonymous": false,
      "inputs": [
        {
          "indexed": false,
          "internalType": "address",
          "name": "account",
          "type": "address"
        }
      ],
      "name": "Unpaused",
      "type": "event"
    },
    {
      "inputs": [],
      "name": "ADMIN_ROLE",
      "outputs": [
        {
          "internalType": "bytes32",
          "name": "",
          "type": "bytes32"
        }
      ],
      "stateMutability": "view",
      "type": "function"
    },
    {
      "inputs": [],
      "name": "DEFAULT_ADMIN_ROLE",
      "outputs": [
        {
          "internalType": "bytes32",
          "name": "",
          "type": "bytes32"
        }
      ],
      "stateMutability": "view",
      "type": "function"
    },
    {
      "inputs": [],
      "name": "DISTRIBUTOR_ROLE",
      "outputs": [
        {
          "internalType": "bytes32",
          "name": "",
          "type": "bytes32"
        }
      ],
      "stateMutability": "view",
      "type": "function"
    },
    {
      "inputs": [
        {
          "internalType": "uint256",
          "name": "",
          "type": "uint256"
        }
      ],
      "name": "applications",
      "outputs": [
        {
          "internalType": "uint256",
          "name": "id",
          "type": "uint256"
        },
        {
          "internalType": "uint256",
          "name": "grantId",
          "type": "uint256"
        },
        {
          "internalType": "address",
          "name": "applicant",
          "type": "address"
        },
        {
          "internalType": "string",
          "name": "proposal",
          "type": "string"
        },
        {
          "internalType": "enum FundDistribution.ApplicationStatus",
          "name": "status",
          "type": "uint8"
        },
        {
          "internalType": "uint256",
          "name": "requestedAmount",
          "type": "uint256"
        },
        {
          "internalType": "uint256",
          "name": "approvedAmount",
          "type": "uint256"
        },
        {
          "internalType": "uint256",
          "name": "createdAt",
          "type": "uint256"
        }
      ],
      "stateMutability": "view",
      "type": "function"
    },
    {
      "inputs": [
        {
          "internalType": "address",
          "name": "",
          "type": "address"
        },
        {
          "internalType": "address",
          "name": "",
          "type": "address"
        }
      ],
      "name": "artistBalances",
      "outputs": [
        {
          "internalType": "uint256",
          "name": "",
          "type": "uint256"
        }
      ],
      "stateMutability": "view",
      "type": "function"
    },
    {
      "inputs": [
        {
          "internalType": "string",
          "name": "title",
          "type": "string"
        },
        {
          "internalType": "string",
          "name": "description",
          "type": "string"
        },
        {
          "internalType": "uint256",
          "name": "amount",
          "type": "uint256"
        },
        {
          "internalType": "address",
          "name": "token",
          "type": "address"
        },
        {
          "internalType": "uint256",
          "name": "deadline",
          "type": "uint256"
        }
      ],
      "name": "createGrant",
      "outputs": [],
      "stateMutability": "nonpayable",
      "type": "function"
    },
    {
      "inputs": [],
      "name": "depositNativeToken",
      "outputs": [],
      "stateMutability": "payable",
      "type": "function"
    },
    {
      "inputs": [
        {
          "internalType": "address",
          "name": "token",
          "type": "address"
        },
        {
          "internalType": "uint256",
          "name": "amount",
          "type": "uint256"
        }
      ],
      "name": "depositToken",
      "outputs": [],
      "stateMutability": "nonpayable",
      "type": "function"
    },
    {
      "inputs": [
        {
          "internalType": "address",
          "name": "token",
          "type": "address"
        },
        {
          "internalType": "uint256",
          "name": "amount",
          "type": "uint256"
        },
        {
          "internalType": "address",
          "name": "recipient",
          "type": "address"
        }
      ],
      "name": "emergencyWithdraw",
      "outputs": [],
      "stateMutability": "nonpayable",
      "type": "function"
    },
    {
      "inputs": [
        {
          "internalType": "uint256",
          "name": "applicationId",
          "type": "uint256"
        }
      ],
      "name": "getApplication",
      "outputs": [
        {
          "components": [
            {
              "internalType": "uint256",
              "name": "id",
              "type": "uint256"
            },
            {
              "internalType": "uint256",
              "name": "grantId",
              "type": "uint256"
            },
            {
              "internalType": "address",
              "name": "applicant",
              "type": "address"
            },
            {
              "internalType": "string",
              "name": "proposal",
              "type": "string"
            },
            {
              "internalType": "enum FundDistribution.ApplicationStatus",
              "name": "status",
              "type": "uint8"
            },
            {
              "internalType": "uint256",
              "name": "requestedAmount",
              "type": "uint256"
            },
            {
              "internalType": "uint256",
              "name": "approvedAmount",
              "type": "uint256"
            },
            {
              "internalType": "uint256",
              "name": "createdAt",
              "type": "uint256"
            }
          ],
          "internalType": "struct FundDistribution.Application",
          "name": "",
          "type": "tuple"
        }
      ],
      "stateMutability": "view",
      "type": "function"
    },
    {
      "inputs": [
        {
          "internalType": "address",
          "name": "artist",
          "type": "address"
        },
        {
          "internalType": "address",
          "name": "token",
          "type": "address"
        }
      ],
      "name": "getArtistBalance",
      "outputs": [
        {
          "internalType": "uint256",
          "name": "",
          "type": "uint256"
        }
      ],
      "stateMutability": "view",
      "type": "function"
    },
    {
      "inputs": [
        {
          "internalType": "uint256",
          "name": "grantId",
          "type": "uint256"
        }
      ],
      "name": "getGrant",
      "outputs": [
        {
          "components": [
            {
              "internalType": "uint256",
              "name": "id",
              "type": "uint256"
            },
            {
              "internalType": "string",
              "name": "title",
              "type": "string"
            },
            {
              "internalType": "string",
              "name": "description",
              "type": "string"
            },
            {
              "internalType": "uint256",
              "name": "amount",
              "type": "uint256"
            },
            {
              "internalType": "address",
              "name": "token",
              "type": "address"
            },
            {
              "internalType": "uint256",
              "name": "deadline",
              "type": "uint256"
            },
            {
              "internalType": "address",
              "name": "creator",
              "type": "address"
            },
            {
              "internalType": "bool",
              "name": "active",
              "type": "bool"
            },
            {
              "internalType": "uint256",
              "name": "remainingAmount",
              "type": "uint256"
            },
            {
              "internalType": "uint256",
              "name": "createdAt",
              "type": "uint256"
            }
          ],
          "internalType": "struct FundDistribution.Grant",
          "name": "",
          "type": "tuple"
        }
      ],
      "stateMutability": "view",
      "type": "function"
    },
    {
      "inputs": [
        {
          "internalType": "uint256",
          "name": "paymentId",
          "type": "uint256"
        }
      ],
      "name": "getPayment",
      "outputs": [
        {
          "components": [
            {
              "internalType": "uint256",
              "name": "id",
              "type": "uint256"
            },
            {
              "internalType": "uint256",
              "name": "applicationId",
              "type": "uint256"
            },
            {
              "internalType": "address",
              "name": "recipient",
              "type": "address"
            },
            {
              "internalType": "uint256",
              "name": "amount",
              "type": "uint256"
            },
            {
              "internalType": "address",
              "name": "token",
              "type": "address"
            },
            {
              "internalType": "uint256",
              "name": "timestamp",
              "type": "uint256"
            },
            {
              "internalType": "bytes32",
              "name": "txHash",
              "type": "bytes32"
            }
          ],
          "internalType": "struct FundDistribution.Payment",
          "name": "",
          "type": "tuple"
        }
      ],
      "stateMutability": "view",
      "type": "function"
    },
    {
      "inputs": [
        {
          "internalType": "bytes32",
          "name": "role",
          "type": "bytes32"
        }
      ],
      "name": "getRoleAdmin",
      "outputs": [
        {
          "internalType": "bytes32",
          "name": "",
          "type": "bytes32"
        }
      ],
      "stateMutability": "view",
      "type": "function"
    },
    {
      "inputs": [
        {
          "internalType": "bytes32",
          "name": "role",
          "type": "bytes32"
        },
        {
          "internalType": "address",
          "name": "account",
          "type": "address"
        }
      ],
      "name": "grantRole",
      "outputs": [],
      "stateMutability": "nonpayable",
      "type": "function"
    },
    {
      "inputs": [
        {
          "internalType": "uint256",
          "name": "",
          "type": "uint256"
        }
      ],
      "name": "grants",
      "outputs": [
        {
          "internalType": "uint256",
          "name": "id",
          "type": "uint256"
        },
        {
          "internalType": "string",
          "name": "title",
          "type": "string"
        },
        {
          "internalType": "string",
          "name": "description",
          "type": "string"
        },
        {
          "internalType": "uint256",
          "name": "amount",
          "type": "uint256"
        },
        {
          "internalType": "address",
          "name": "token",
          "type": "address"
        },
        {
          "internalType": "uint256",
          "name": "deadline",
          "type": "uint256"
        },
        {
          "internalType": "address",
          "name": "creator",
          "type": "address"
        },
        {
          "internalType": "bool",
          "name": "active",
          "type": "bool"
        },
        {
          "internalType": "uint256",
          "name": "remainingAmount",
          "type": "uint256"
        },
        {
          "internalType": "uint256",
          "name": "createdAt",
          "type": "uint256"
        }
      ],
      "stateMutability": "view",
      "type": "function"
    },
    {
      "inputs": [
        {
          "internalType": "bytes32",
          "name": "role",
          "type": "bytes32"
        },
        {
          "internalType": "address",
          "name": "account",
          "type": "address"
        }
      ],
      "name": "hasRole",
      "outputs": [
        {
          "internalType": "bool",
          "name": "",
          "type": "bool"
        }
      ],
      "stateMutability": "view",
      "type": "function"
    },
    {
      "inputs": [],
      "name": "nextApplicationId",
      "outputs": [
        {
          "internalType": "uint256",
          "name": "",
          "type": "uint256"
        }
      ],
      "stateMutability": "view",
      "type": "function"
    },
    {
      "inputs": [],
      "name": "nextGrantId",
      "outputs": [
        {
          "internalType": "uint256",
          "name": "",
          "type": "uint256"
        }
      ],
      "stateMutability": "view",
      "type": "function"
    },
    {
      "inputs": [],
      "name": "nextPaymentId",
      "outputs": [
        {
          "internalType": "uint256",
          "name": "",
          "type": "uint256"
        }
      ],
      "stateMutability": "view",
      "type": "function"
    },
    {
      "inputs": [],
      "name": "pause",
      "outputs": [],
      "stateMutability": "nonpayable",
      "type": "function"
    },
    {
      "inputs": [],
      "name": "paused",
      "outputs": [
        {
          "internalType": "bool",
          "name": "",
          "type": "bool"
        }
      ],
      "stateMutability": "view",
      "type": "function"
    },
    {
      "inputs": [
        {
          "internalType": "uint256",
          "name": "",
          "type": "uint256"
        }
      ],
      "name": "payments",
      "outputs": [
        {
          "internalType": "uint256",
          "name": "id",
          "type": "uint256"
        },
        {
          "internalType": "uint256",
          "name": "applicationId",
          "type": "uint256"
        },
        {
          "internalType": "address",
          "name": "recipient",
          "type": "address"
        },
        {
          "internalType": "uint256",
          "name": "amount",
          "type": "uint256"
        },
        {
          "internalType": "address",
          "name": "token",
          "type": "address"
        },
        {
          "internalType": "uint256",
          "name": "timestamp",
          "type": "uint256"
        },
        {
          "internalType": "bytes32",
          "name": "txHash",
          "type": "bytes32"
        }
      ],
      "stateMutability": "view",
      "type": "function"
    },
    {
      "inputs": [
        {
          "internalType": "uint256",
          "name": "applicationId",
          "type": "uint256"
        }
      ],
      "name": "processPayment",
      "outputs": [],
      "stateMutability": "nonpayable",
      "type": "function"
    },
    {
      "inputs": [
        {
          "internalType": "bytes32",
          "name": "role",
          "type": "bytes32"
        },
        {
          "internalType": "address",
          "name": "account",
          "type": "address"
        }
      ],
      "name": "renounceRole",
      "outputs": [],
      "stateMutability": "nonpayable",
      "type": "function"
    },
    {
      "inputs": [
        {
          "internalType": "uint256",
          "name": "applicationId",
          "type": "uint256"
        },
        {
          "internalType": "enum FundDistribution.ApplicationStatus",
          "name": "status",
          "type": "uint8"
        },
        {
          "internalType": "uint256",
          "name": "approvedAmount",
          "type": "uint256"
        }
      ],
      "name": "reviewApplication",
      "outputs": [],
      "stateMutability": "nonpayable",
      "type": "function"
    },
    {
      "inputs": [
        {
          "internalType": "bytes32",
          "name": "role",
          "type": "bytes32"
        },
        {
          "internalType": "address",
          "name": "account",
          "type": "address"
        }
      ],
      "name": "revokeRole",
      "outputs": [],
      "stateMutability": "nonpayable",
      "type": "function"
    },
    {
      "inputs": [
        {
          "internalType": "uint256",
          "name": "grantId",
          "type": "uint256"
        },
        {
          "internalType": "string",
          "name": "proposal",
          "type": "string"
        },
        {
          "internalType": "uint256",
          "name": "requestedAmount",
          "type": "uint256"
        }
      ],
      "name": "submitApplication",
      "outputs": [],
      "stateMutability": "nonpayable",
      "type": "function"
    },
    {
      "inputs": [
        {
          "internalType": "bytes4",
          "name": "interfaceId",
          "type": "bytes4"
        }
      ],
      "name": "supportsInterface",
      "outputs": [
        {
          "internalType": "bool",
          "name": "",
          "type": "bool"
        }
      ],
      "stateMutability": "view",
      "type": "function"
    },
    {
      "inputs": [],
      "name": "unpause",
      "outputs": [],
      "stateMutability": "nonpayable",
      "type": "function"
    },
    {
      "inputs": [
        {
          "internalType": "uint256",
          "name": "grantId",
          "type": "uint256"
        },
        {
          "internalType": "string",
          "name": "title",
          "type": "string"
        },
        {
          "internalType": "string",
          "name": "description",
          "type": "string"
        },
        {
          "internalType": "uint256",
          "name": "amount",
          "type": "uint256"
        },
        {
          "internalType": "bool",
          "name": "active",
          "type": "bool"
        },
        {
          "internalType": "uint256",
          "name": "deadline",
          "type": "uint256"
        }
      ],
      "name": "updateGrant",
      "outputs": [],
      "stateMutability": "nonpayable",
      "type": "function"
    },
    {
      "inputs": [
        {
          "internalType": "address",
          "name": "token",
          "type": "address"
        },
        {
          "internalType": "uint256",
          "name": "amount",
          "type": "uint256"
        }
      ],
      "name": "withdrawFunds",
      "outputs": [],
      "stateMutability": "nonpayable",
      "type": "function"
    },
    {
      "stateMutability": "payable",
      "type": "receive"
    }
  ],
  "bytecode": "0x60806040526001600755600160085560016009553480156200002057600080fd5b50600180556002805460ff191690556200003c6000336200009a565b620000687fa49807205ce4d355092ef5a8a18f56e8913cf4a201fbe287825b095693c21775336200009a565b620000947ffbd454f36a7e1a388bd6fc3ab10d434aa4578f811acbbcf33afb1c697486313c336200009a565b6200013b565b6000828152602081815260408083206001600160a01b038516845290915290205460ff1662000137576000828152602081815260408083206001600160a01b03851684529091529020805460ff19166001179055620000f63390565b6001600160a01b0316816001600160a01b0316837f2f8788117e7eff1d82e926ec794901d17c78024a50270940304540a733656f0d60405160405180910390a45b5050565b61362b806200014b6000396000f3fe6080604052600436106101e75760003560e01c806375b238fc11610102578063b8cc6c9311610095578063d487be9a11610064578063d487be9a146106e1578063d547741f14610701578063dfefadff14610721578063f0bd87cc1461075557600080fd5b8063b8cc6c9314610646578063b9fb7d8514610673578063bb8b3ea9146106ab578063c1075329146106c157600080fd5b806391d14854116100d157806391d14854146105db5780639b22b920146105fb5780639fcf0d1a14610611578063a217fddf1461063157600080fd5b806375b238fc146104f357806379433d8b146105155780638456cb591461051d57806387d817891461053257600080fd5b806336568abe1161017a578063551512de11610149578063551512de1461045f578063567f7c921461047f5780635c975abb146104c5578063625338cb146104dd57600080fd5b806336568abe146103ea5780633a2f84851461040a5780633f4ba83a1461042a578063441e75571461043f57600080fd5b80632c8c3900116101b65780632c8c3900146103045780632f2ff15d146103265780633280a83614610346578063338b5dea146103ca57600080fd5b806301ffc9a71461022e5780630c0debea146102635780631f2f4bfd14610299578063248a9ca3146102c657600080fd5b3661022957604080513381523460208201526000917ff0d0e99cae184d0187b093b48894117462462379674a6e11d89c3fbb618e96b0910160405180910390a2005b600080fd5b34801561023a57600080fd5b5061024e610249366004612b71565b610789565b60405190151581526020015b60405180910390f35b34801561026f57600080fd5b5061028361027e366004612b9b565b6107c0565b60405161025a9a99989796959493929190612c04565b3480156102a557600080fd5b506102b96102b4366004612b9b565b610932565b60405161025a9190612cb1565b3480156102d257600080fd5b506102f66102e1366004612b9b565b60009081526020819052604090206001015490565b60405190815260200161025a565b34801561031057600080fd5b5061032461031f366004612df2565b610ad4565b005b34801561033257600080fd5b50610324610341366004612e78565b610ddc565b34801561035257600080fd5b50610366610361366004612b9b565b610e06565b60405161025a9190600060e0820190508251825260208301516020830152604083015160018060a01b03808216604085015260608501516060850152806080860151166080850152505060a083015160a083015260c083015160c083015292915050565b3480156103d657600080fd5b506103246103e5366004612ea4565b610ef9565b3480156103f657600080fd5b50610324610405366004612e78565b610fc4565b34801561041657600080fd5b50610324610425366004612b9b565b611042565b34801561043657600080fd5b506103246113d9565b34801561044b57600080fd5b5061032461045a366004612edc565b6113fc565b34801561046b57600080fd5b5061032461047a366004612f70565b6116eb565b34801561048b57600080fd5b506102f661049a366004612fac565b6001600160a01b03918216600090815260066020908152604080832093909416825291909152205490565b3480156104d157600080fd5b5060025460ff1661024e565b3480156104e957600080fd5b506102f660085481565b3480156104ff57600080fd5b506102f66000805160206135d683398151915281565b6103246118fe565b34801561052957600080fd5b5061032461193b565b34801561053e57600080fd5b5061059861054d366004612b9b565b60056020819052600091825260409091208054600182015460028301546003840154600485015495850154600690950154939592946001600160a01b03928316949193909216919087565b6040805197885260208801969096526001600160a01b03948516958701959095526060860192909252909116608084015260a083015260c082015260e00161025a565b3480156105e757600080fd5b5061024e6105f6366004612e78565b61195b565b34801561060757600080fd5b506102f660095481565b34801561061d57600080fd5b5061032461062c366004612fd6565b611984565b34801561063d57600080fd5b506102f6600081565b34801561065257600080fd5b50610666610661366004612b9b565b611c70565b60405161025a9190613026565b34801561067f57600080fd5b506102f661068e366004612fac565b600660209081526000928352604080842090915290825290205481565b3480156106b757600080fd5b506102f660075481565b3480156106cd57600080fd5b506103246106dc366004612ea4565b611eaa565b3480156106ed57600080fd5b506103246106fc3660046130eb565b612081565b34801561070d57600080fd5b5061032461071c366004612e78565b6122f8565b34801561072d57600080fd5b5061074161073c366004612b9b565b61231d565b60405161025a989796959493929190613127565b34801561076157600080fd5b506102f67ffbd454f36a7e1a388bd6fc3ab10d434aa4578f811acbbcf33afb1c697486313c81565b60006001600160e01b03198216637965db0b60e01b14806107ba57506301ffc9a760e01b6001600160e01b03198316145b92915050565b600360205260009081526040902080546001820180549192916107e290613188565b80601f016020809104026020016040519081016040528092919081815260200182805461080e90613188565b801561085b5780601f106108305761010080835404028352916020019161085b565b820191906000526020600020905b81548152906001019060200180831161083e57829003601f168201915b50505050509080600201805461087090613188565b80601f016020809104026020016040519081016040528092919081815260200182805461089c90613188565b80156108e95780601f106108be576101008083540402835291602001916108e9565b820191906000526020600020905b8154815290600101906020018083116108cc57829003601f168201915b5050505060038301546004840154600585015460068601546007870154600890970154959693956001600160a01b039384169550919392811692600160a01b90910460ff16918a565b610979604080516101008101825260008082526020820181905291810182905260608082015290608082019081526020016000815260200160008152602001600081525090565b60085482106109a35760405162461bcd60e51b815260040161099a906131c2565b60405180910390fd5b6000828152600460209081526040918290208251610100810184528154815260018201549281019290925260028101546001600160a01b0316928201929092526003820180549192916060840191906109fb90613188565b80601f0160208091040260200160405190810160405280929190818152602001828054610a2790613188565b8015610a745780601f10610a4957610100808354040283529160200191610a74565b820191906000526020600020905b815481529060010190602001808311610a5757829003601f168201915b5050509183525050600482015460209091019060ff166003811115610a9b57610a9b612c79565b6003811115610aac57610aac612c79565b8152600582015460208201526006820154604082015260079091015460609091015292915050565b6000805160206135d6833981519152610aec816123f7565b610af4612401565b6000865111610b3d5760405162461bcd60e51b81526020600482015260156024820152745469746c652063616e6e6f7420626520656d70747960581b604482015260640161099a565b60008411610b5d5760405162461bcd60e51b815260040161099a906131f9565b428211610bac5760405162461bcd60e51b815260206004820152601e60248201527f446561646c696e65206d75737420626520696e20746865206675747572650000604482015260640161099a565b6001600160a01b038316610bdf5783471015610bda5760405162461bcd60e51b815260040161099a90613230565b610c67565b6040516370a0823160e01b815230600482015284906001600160a01b038516906370a0823190602401602060405180830381865afa158015610c25573d6000803e3d6000fd5b505050506040513d601f19601f82011682018060405250810190610c499190613271565b1015610c675760405162461bcd60e51b815260040161099a9061328a565b6007805460009182610c78836132d7565b90915550604080516101408101825282815260208082018b81528284018b9052606083018a90526001600160a01b038916608084015260a083018890523360c0840152600160e0840181905261010084018b905242610120850152600086815260039093529390912082518155905193945090929091820190610cfb908261333e565b5060408201516002820190610d10908261333e565b506060820151600382015560808201516004820180546001600160a01b0319166001600160a01b0392831617905560a0830151600583015560c083015160068301805460e0860151929093166001600160a81b031990931692909217600160a01b9115159190910217905561010082015160078201556101209091015160089091015560405181907f8578e38994413477b93c4554f8fdd2d77fcebfe5f993787dd81d7cdd431f19e690610dcb908a908990899033906133fe565b60405180910390a250505050505050565b600082815260208190526040902060010154610df7816123f7565b610e018383612449565b505050565b6040805160e081018252600080825260208201819052918101829052606081018290526080810182905260a0810182905260c08101919091526009548210610e895760405162461bcd60e51b815260206004820152601660248201527514185e5b595b9d08191bd95cc81b9bdd08195e1a5cdd60521b604482015260640161099a565b50600090815260056020818152604092839020835160e0810185528154815260018201549281019290925260028101546001600160a01b039081169483019490945260038101546060830152600481015490931660808201529082015460a082015260069091015460c082015290565b6001600160a01b038216610f475760405162461bcd60e51b8152602060048201526015602482015274496e76616c696420746f6b656e206164647265737360581b604482015260640161099a565b60008111610f675760405162461bcd60e51b815260040161099a906131f9565b610f7c6001600160a01b0383163330846124cd565b60408051338152602081018390526001600160a01b038416917ff0d0e99cae184d0187b093b48894117462462379674a6e11d89c3fbb618e96b0910160405180910390a25050565b6001600160a01b03811633146110345760405162461bcd60e51b815260206004820152602f60248201527f416363657373436f6e74726f6c3a2063616e206f6e6c792072656e6f756e636560448201526e103937b632b9903337b91039b2b63360891b606482015260840161099a565b61103e8282612538565b5050565b7ffbd454f36a7e1a388bd6fc3ab10d434aa4578f811acbbcf33afb1c697486313c61106c816123f7565b611074612401565b61107c61259d565b600854821061109d5760405162461bcd60e51b815260040161099a906131c2565b60008281526004602052604090206001600482015460ff1660038111156110c6576110c6612c79565b146111135760405162461bcd60e51b815260206004820152601b60248201527f4170706c69636174696f6e206973206e6f7420617070726f7665640000000000604482015260640161099a565b600181015460009081526003602052604090206006810154600160a01b900460ff166111775760405162461bcd60e51b81526020600482015260136024820152724772616e74206973206e6f742061637469766560681b604482015260640161099a565b8060070154826006015411156111ca5760405162461bcd60e51b8152602060048201526018602482015277496e73756666696369656e74206772616e742066756e647360401b604482015260640161099a565b60048201805460ff1916600317905560068201546007820180546000906111f2908490613437565b909155505060068083015460028401546001600160a01b039081166000908152602093845260408082206004870154909316825291909352822080549192909161123d90849061344a565b90915550506009805460009182611253836132d7565b909155506040805160e0810182528281526020810188905260028601546001600160a01b039081169282019290925260068601546060820152600485015490911660808201524260a082015290915060c081016112b1600143613437565b4090526000828152600560208181526040928390208451815584820151600182015584840151600280830180546001600160a01b03199081166001600160a01b039485161790915560608089015160038601556080808a0151600480880180549095169187169190911790935560a08a01519786019790975560c090980151600694850155908a0154928a01549089015486518d8152938316948401949094529482019490945292169282019290925282917ff40442f47cc63569c30b49d7f8c04d2efcf1066be85e3ba4964afff60dbe90c6910160405180910390a2847fdd4718a1ec46ddcd01ddb7e267b2911870c844f66a0e941c2b6cfa914d80c8a0600385600601546040516113c592919061345d565b60405180910390a250505061103e60018055565b6000805160206135d68339815191526113f1816123f7565b6113f96125f6565b50565b6000805160206135d6833981519152611414816123f7565b61141c612401565b600754871061143d5760405162461bcd60e51b815260040161099a90613478565b600087815260036020526040902086516114915760405162461bcd60e51b81526020600482015260156024820152745469746c652063616e6e6f7420626520656d70747960581b604482015260640161099a565b806007015481600301546114a59190613437565b85101561150b5760405162461bcd60e51b815260206004820152602e60248201527f416d6f756e742063616e6e6f74206265206c657373207468616e20616c72656160448201526d191e48191a5cdd1c9a589d5d195960921b606482015260840161099a565b42831161155a5760405162461bcd60e51b815260206004820152601e60248201527f446561646c696e65206d75737420626520696e20746865206675747572650000604482015260640161099a565b806003015485111561165e5760008160030154866115789190613437565b60048301549091506001600160a01b03166115b257804710156115ad5760405162461bcd60e51b815260040161099a90613230565b611643565b6004828101546040516370a0823160e01b8152309281019290925282916001600160a01b03909116906370a0823190602401602060405180830381865afa158015611601573d6000803e3d6000fd5b505050506040513d601f19601f820116820180604052508101906116259190613271565b10156116435760405162461bcd60e51b815260040161099a9061328a565b80826007016000828254611657919061344a565b9091555050505b6001810161166c888261333e565b506002810161167b878261333e565b506003810185905560068101805460ff60a01b1916600160a01b861515021790556005810183905560405188907f9fabb4e0dc4ca131aea86bc773f499a1f472c62d1b71cb965d23449a917924a5906116d9908a90899089906134a6565b60405180910390a25050505050505050565b60006116f6816123f7565b6001600160a01b0382166117405760405162461bcd60e51b8152602060048201526011602482015270125b9d985b1a59081c9958da5c1a595b9d607a1b604482015260640161099a565b6001600160a01b038416611817574783111561176e5760405162461bcd60e51b815260040161099a90613230565b6000826001600160a01b03168460405160006040518083038185875af1925050503d80600081146117bb576040519150601f19603f3d011682016040523d82523d6000602084013e6117c0565b606091505b50509050806118115760405162461bcd60e51b815260206004820152601c60248201527f4e617469766520746f6b656e207472616e73666572206661696c656400000000604482015260640161099a565b506118b2565b6040516370a0823160e01b81523060048201526001600160a01b038516906370a0823190602401602060405180830381865afa15801561185b573d6000803e3d6000fd5b505050506040513d601f19601f8201168201806040525081019061187f9190613271565b83111561189e5760405162461bcd60e51b815260040161099a9061328a565b6118b26001600160a01b0385168385612648565b604080516001600160a01b038481168252602082018690528616917fa92ff919b850e4909ab2261d907ef955f11bc1716733a6cbece38d163a69af8a910160405180910390a250505050565b604080513381523460208201526000917ff0d0e99cae184d0187b093b48894117462462379674a6e11d89c3fbb618e96b0910160405180910390a2565b6000805160206135d6833981519152611953816123f7565b6113f9612678565b6000918252602082815260408084206001600160a01b0393909316845291905290205460ff1690565b61198c612401565b61199461259d565b60075483106119b55760405162461bcd60e51b815260040161099a90613478565b60008381526003602052604090206006810154600160a01b900460ff16611a145760405162461bcd60e51b81526020600482015260136024820152724772616e74206973206e6f742061637469766560681b604482015260640161099a565b8060050154421115611a685760405162461bcd60e51b815260206004820152601f60248201527f4170706c69636174696f6e20646561646c696e65206861732070617373656400604482015260640161099a565b6000835111611ab95760405162461bcd60e51b815260206004820152601860248201527f50726f706f73616c2063616e6e6f7420626520656d7074790000000000000000604482015260640161099a565b600082118015611acd575080600701548211155b611b195760405162461bcd60e51b815260206004820152601860248201527f496e76616c69642072657175657374656420616d6f756e740000000000000000604482015260640161099a565b6008805460009182611b2a836132d7565b919050559050604051806101000160405280828152602001868152602001336001600160a01b0316815260200185815260200160006003811115611b7057611b70612c79565b8152602080820186905260006040808401829052426060948501528582526004835290819020845181559184015160018301558301516002820180546001600160a01b0319166001600160a01b03909216919091179055908201516003820190611bda908261333e565b50608082015160048201805460ff19166001836003811115611bfe57611bfe612c79565b021790555060a0820151600582015560c0820151600682015560e0909101516007909101556040805186815233602082015290810184905281907f20189ef927befb042f72af78706e3b16a956bf1262e3bde38ad84185db92f42c9060600160405180910390a25050610e0160018055565b611cda6040518061014001604052806000815260200160608152602001606081526020016000815260200160006001600160a01b031681526020016000815260200160006001600160a01b0316815260200160001515815260200160008152602001600081525090565b6007548210611cfb5760405162461bcd60e51b815260040161099a90613478565b600360008381526020019081526020016000206040518061014001604052908160008201548152602001600182018054611d3490613188565b80601f0160208091040260200160405190810160405280929190818152602001828054611d6090613188565b8015611dad5780601f10611d8257610100808354040283529160200191611dad565b820191906000526020600020905b815481529060010190602001808311611d9057829003601f168201915b50505050508152602001600282018054611dc690613188565b80601f0160208091040260200160405190810160405280929190818152602001828054611df290613188565b8015611e3f5780601f10611e1457610100808354040283529160200191611e3f565b820191906000526020600020905b815481529060010190602001808311611e2257829003601f168201915b50505091835250506003820154602082015260048201546001600160a01b0390811660408301526005830154606083015260068301549081166080830152600160a01b900460ff16151560a0820152600782015460c082015260089091015460e09091015292915050565b611eb261259d565b60008111611ed25760405162461bcd60e51b815260040161099a906131f9565b3360009081526006602090815260408083206001600160a01b0386168452909152902054811115611f3c5760405162461bcd60e51b8152602060048201526014602482015273496e73756666696369656e742062616c616e636560601b604482015260640161099a565b3360009081526006602090815260408083206001600160a01b038616845290915281208054839290611f6f908490613437565b90915550506001600160a01b03821661202057604051600090339083908381818185875af1925050503d8060008114611fc4576040519150601f19603f3d011682016040523d82523d6000602084013e611fc9565b606091505b505090508061201a5760405162461bcd60e51b815260206004820152601c60248201527f4e617469766520746f6b656e207472616e73666572206661696c656400000000604482015260640161099a565b50612034565b6120346001600160a01b0383163383612648565b60408051338152602081018390526001600160a01b038416917fa92ff919b850e4909ab2261d907ef955f11bc1716733a6cbece38d163a69af8a910160405180910390a261103e60018055565b7ffbd454f36a7e1a388bd6fc3ab10d434aa4578f811acbbcf33afb1c697486313c6120ab816123f7565b6120b3612401565b6120bb61259d565b60085484106120dc5760405162461bcd60e51b815260040161099a906131c2565b600084815260046020526040812090600482015460ff16600381111561210457612104612c79565b146121515760405162461bcd60e51b815260206004820152601a60248201527f4170706c69636174696f6e206973206e6f742070656e64696e67000000000000604482015260640161099a565b600184600381111561216557612165612c79565b036122485760008311801561217e575080600501548311155b6121ca5760405162461bcd60e51b815260206004820152601760248201527f496e76616c696420617070726f76656420616d6f756e74000000000000000000604482015260640161099a565b60018101546000908152600360205260409020600781015484111561222c5760405162461bcd60e51b8152602060048201526018602482015277496e73756666696369656e74206772616e742066756e647360401b604482015260640161099a565b506006810183905560048101805460ff191660011790556122ae565b600284600381111561225c5761225c612c79565b036122755760048101805460ff191660021790556122ae565b60405162461bcd60e51b815260206004820152600e60248201526d496e76616c69642073746174757360901b604482015260640161099a565b847fdd4718a1ec46ddcd01ddb7e267b2911870c844f66a0e941c2b6cfa914d80c8a085856040516122e092919061345d565b60405180910390a2506122f260018055565b50505050565b600082815260208190526040902060010154612313816123f7565b610e018383612538565b6004602052600090815260409020805460018201546002830154600384018054939492936001600160a01b03909216929161235790613188565b80601f016020809104026020016040519081016040528092919081815260200182805461238390613188565b80156123d05780601f106123a5576101008083540402835291602001916123d0565b820191906000526020600020905b8154815290600101906020018083116123b357829003601f168201915b50505050600483015460058401546006850154600790950154939460ff9092169390925088565b6113f981336126b5565b60025460ff16156124475760405162461bcd60e51b815260206004820152601060248201526f14185d5cd8589b194e881c185d5cd95960821b604482015260640161099a565b565b612453828261195b565b61103e576000828152602081815260408083206001600160a01b03851684529091529020805460ff191660011790556124893390565b6001600160a01b0316816001600160a01b0316837f2f8788117e7eff1d82e926ec794901d17c78024a50270940304540a733656f0d60405160405180910390a45050565b6040516001600160a01b03808516602483015283166044820152606481018290526122f29085906323b872dd60e01b906084015b60408051601f198184030181529190526020810180516001600160e01b03166001600160e01b03199093169290921790915261270e565b612542828261195b565b1561103e576000828152602081815260408083206001600160a01b0385168085529252808320805460ff1916905551339285917ff6391f5c32d9c69d2a47ea670b442974b53935d1edc7fd64eb21e047a839171b9190a45050565b6002600154036125ef5760405162461bcd60e51b815260206004820152601f60248201527f5265656e7472616e637947756172643a207265656e7472616e742063616c6c00604482015260640161099a565b6002600155565b6125fe6127e3565b6002805460ff191690557f5db9ee0a495bf2e6ff9c91a7834c1ba4fdd244a5e8aa4e537bd38aeae4b073aa335b6040516001600160a01b03909116815260200160405180910390a1565b6040516001600160a01b038316602482015260448101829052610e0190849063a9059cbb60e01b90606401612501565b612680612401565b6002805460ff191660011790557f62e78cea01bee320cd4e420270b5ea74000d11b0c9f74754ebdbfc544b05a25861262b3390565b6126bf828261195b565b61103e576126cc8161282c565b6126d783602061283e565b6040516020016126e89291906134d0565b60408051601f198184030181529082905262461bcd60e51b825261099a91600401613545565b6000612763826040518060400160405280602081526020017f5361666545524332303a206c6f772d6c6576656c2063616c6c206661696c6564815250856001600160a01b03166129e19092919063ffffffff16565b90508051600014806127845750808060200190518101906127849190613558565b610e015760405162461bcd60e51b815260206004820152602a60248201527f5361666545524332303a204552433230206f7065726174696f6e20646964206e6044820152691bdd081cdd58d8d9595960b21b606482015260840161099a565b60025460ff166124475760405162461bcd60e51b815260206004820152601460248201527314185d5cd8589b194e881b9bdd081c185d5cd95960621b604482015260640161099a565b60606107ba6001600160a01b03831660145b6060600061284d836002613575565b61285890600261344a565b67ffffffffffffffff81111561287057612870612d33565b6040519080825280601f01601f19166020018201604052801561289a576020820181803683370190505b509050600360fc1b816000815181106128b5576128b561358c565b60200101906001600160f81b031916908160001a905350600f60fb1b816001815181106128e4576128e461358c565b60200101906001600160f81b031916908160001a9053506000612908846002613575565b61291390600161344a565b90505b600181111561298b576f181899199a1a9b1b9c1cb0b131b232b360811b85600f16601081106129475761294761358c565b1a60f81b82828151811061295d5761295d61358c565b60200101906001600160f81b031916908160001a90535060049490941c93612984816135a2565b9050612916565b5083156129da5760405162461bcd60e51b815260206004820181905260248201527f537472696e67733a20686578206c656e67746820696e73756666696369656e74604482015260640161099a565b9392505050565b60606129f084846000856129f8565b949350505050565b606082471015612a595760405162461bcd60e51b815260206004820152602660248201527f416464726573733a20696e73756666696369656e742062616c616e636520666f6044820152651c8818d85b1b60d21b606482015260840161099a565b600080866001600160a01b03168587604051612a7591906135b9565b60006040518083038185875af1925050503d8060008114612ab2576040519150601f19603f3d011682016040523d82523d6000602084013e612ab7565b606091505b5091509150612ac887838387612ad3565b979650505050505050565b60608315612b42578251600003612b3b576001600160a01b0385163b612b3b5760405162461bcd60e51b815260206004820152601d60248201527f416464726573733a2063616c6c20746f206e6f6e2d636f6e7472616374000000604482015260640161099a565b50816129f0565b6129f08383815115612b575781518083602001fd5b8060405162461bcd60e51b815260040161099a9190613545565b600060208284031215612b8357600080fd5b81356001600160e01b0319811681146129da57600080fd5b600060208284031215612bad57600080fd5b5035919050565b60005b83811015612bcf578181015183820152602001612bb7565b50506000910152565b60008151808452612bf0816020860160208601612bb4565b601f01601f19169290920160200192915050565b60006101408c8352806020840152612c1e8184018d612bd8565b90508281036040840152612c32818c612bd8565b606084019a909a5250506001600160a01b03968716608082015260a08101959095529290941660c0840152151560e083015261010082019290925261012001529392505050565b634e487b7160e01b600052602160045260246000fd5b60048110612cad57634e487b7160e01b600052602160045260246000fd5b9052565b60208152815160208201526020820151604082015260018060a01b03604083015116606082015260006060830151610100806080850152612cf6610120850183612bd8565b91506080850151612d0a60a0860182612c8f565b5060a085015160c085015260c085015160e085015260e085015181850152508091505092915050565b634e487b7160e01b600052604160045260246000fd5b600082601f830112612d5a57600080fd5b813567ffffffffffffffff80821115612d7557612d75612d33565b604051601f8301601f19908116603f01168101908282118183101715612d9d57612d9d612d33565b81604052838152866020858801011115612db657600080fd5b836020870160208301376000602085830101528094505050505092915050565b80356001600160a01b0381168114612ded57600080fd5b919050565b600080600080600060a08688031215612e0a57600080fd5b853567ffffffffffffffff80821115612e2257600080fd5b612e2e89838a01612d49565b96506020880135915080821115612e4457600080fd5b50612e5188828901612d49565b94505060408601359250612e6760608701612dd6565b949793965091946080013592915050565b60008060408385031215612e8b57600080fd5b82359150612e9b60208401612dd6565b90509250929050565b60008060408385031215612eb757600080fd5b612ec083612dd6565b946020939093013593505050565b80151581146113f957600080fd5b60008060008060008060c08789031215612ef557600080fd5b86359550602087013567ffffffffffffffff80821115612f1457600080fd5b612f208a838b01612d49565b96506040890135915080821115612f3657600080fd5b50612f4389828a01612d49565b945050606087013592506080870135612f5b81612ece565b8092505060a087013590509295509295509295565b600080600060608486031215612f8557600080fd5b612f8e84612dd6565b925060208401359150612fa360408501612dd6565b90509250925092565b60008060408385031215612fbf57600080fd5b612fc883612dd6565b9150612e9b60208401612dd6565b600080600060608486031215612feb57600080fd5b83359250602084013567ffffffffffffffff81111561300957600080fd5b61301586828701612d49565b925050604084013590509250925092565b60208152815160208201526000602083015161014080604085015261304f610160850183612bd8565b91506040850151601f1985840301606086015261306c8382612bd8565b92505060608501516080850152608085015161309360a08601826001600160a01b03169052565b5060a085015160c085015260c08501516130b860e08601826001600160a01b03169052565b5060e08501516101006130ce8187018315159052565b860151610120868101919091529095015193019290925250919050565b60008060006060848603121561310057600080fd5b8335925060208401356004811061311657600080fd5b929592945050506040919091013590565b888152602081018890526001600160a01b03871660408201526101006060820181905260009061315983820189612bd8565b9150506131696080830187612c8f565b8460a08301528360c08301528260e08301529998505050505050505050565b600181811c9082168061319c57607f821691505b6020821081036131bc57634e487b7160e01b600052602260045260246000fd5b50919050565b6020808252601a908201527f4170706c69636174696f6e20646f6573206e6f74206578697374000000000000604082015260600190565b6020808252601d908201527f416d6f756e74206d7573742062652067726561746572207468616e2030000000604082015260600190565b60208082526021908201527f496e73756666696369656e74206e617469766520746f6b656e2062616c616e636040820152606560f81b606082015260800190565b60006020828403121561328357600080fd5b5051919050565b6020808252601a908201527f496e73756666696369656e7420746f6b656e2062616c616e6365000000000000604082015260600190565b634e487b7160e01b600052601160045260246000fd5b6000600182016132e9576132e96132c1565b5060010190565b601f821115610e0157600081815260208120601f850160051c810160208610156133175750805b601f850160051c820191505b8181101561333657828155600101613323565b505050505050565b815167ffffffffffffffff81111561335857613358612d33565b61336c816133668454613188565b846132f0565b602080601f8311600181146133a157600084156133895750858301515b600019600386901b1c1916600185901b178555613336565b600085815260208120601f198616915b828110156133d0578886015182559484019460019091019084016133b1565b50858210156133ee5787850151600019600388901b60f8161c191681555b5050505050600190811b01905550565b6080815260006134116080830187612bd8565b6020830195909552506001600160a01b0392831660408201529116606090910152919050565b818103818111156107ba576107ba6132c1565b808201808211156107ba576107ba6132c1565b6040810161346b8285612c8f565b8260208301529392505050565b60208082526014908201527311dc985b9d08191bd95cc81b9bdd08195e1a5cdd60621b604082015260600190565b6060815260006134b96060830186612bd8565b602083019490945250901515604090910152919050565b7f416363657373436f6e74726f6c3a206163636f756e7420000000000000000000815260008351613508816017850160208801612bb4565b7001034b99036b4b9b9b4b733903937b6329607d1b6017918401918201528351613539816028840160208801612bb4565b01602801949350505050565b6020815260006129da6020830184612bd8565b60006020828403121561356a57600080fd5b81516129da81612ece565b80820281158282048414176107ba576107ba6132c1565b634e487b7160e01b600052603260045260246000fd5b6000816135b1576135b16132c1565b506000190190565b600082516135cb818460208701612bb4565b919091019291505056fea49807205ce4d355092ef5a8a18f56e8913cf4a201fbe287825b095693c21775a2646970667358221220551ed0e2e03064fba43f4ada9b0381cd7b858e4709d1a63a7845c3df7484ba8964736f6c63430008140033",
  "linkReferences": {},
  "deployedLinkReferences": {}
}